:020000040800F2
:10000000186A0020DD010008851E0008631600083C
:10001000811E0008290F0008232C000800000000A2
:100020000000000000000000000000004501000882
:10003000CD10000800000000890100083D250008DF
:10004000F7010008F7010008F7010008F7010008B0
:10005000F7010008F7010008F7010008F7010008A0
:10006000F7010008F7010008F7010008F701000890
:10007000F7010008F7010008F7010008F701000880
:10008000F7010008F7010008F7010008F701000870
:10009000F7010008F7010008F7010008F701000860
:1000A000F7010008F7010008F7010008F701000850
:1000B000F7010008F7010008F7010008F701000840
:1000C000F7010008F7010008F7010008F701000830
:1000D000F7010008C527000831290008C5290008D4
:1000E000F7010008F7010008F7010008F701000810
:1000F000F7010008F7010008F7010008F701000800
:10010000F7010008F7010008F7010008F7010008EF
:10011000F701000855270008D1250008F70100085D
:10012000F7010008F7010008F7010008F7010008CF
:10013000DFF80CD000F030FC004800472D350008F7
:10014000186A0020224B19680868B0E8F00F80F3A5
:100150000988BFF36F8F4FF0000080F311884EF0D5
:100160000D0E70470000000006480068006880F32C
:10017000088862B661B6BFF34F8FBFF36F8F00DFA1
:1001800000BF00BF08ED00E0EFF30980BFF36F8F01
:100190000F4B1A6820E9F00F106008B54FF0BF0050
:1001A00080F31188BFF34F8FBFF36F8F04F0FCF91A
:1001B0004FF0000080F31188BDE808401968086816
:1001C000B0E8F00F80F30988BFF36F8F704700BF6E
:1001D00018030020EFF305807047000006488047B1
:1001E00006480047FEE7FEE7FEE7FEE7FEE7FEE71C
:1001F000FEE7FEE7FEE7FEE7712500083101000893
:10020000014610B509683C22B1FBF2F302FB13135F
:10021000B1FBF2F11D480360B1FBF2F302FB1313D3
:10022000B1FBF2F118224360B1FBF2F302FB1313AE
:10023000B1FBF2F183600A1D0723B2FBF3F403FB69
:10024000142282618A0040F2B55102F66C32B2FB90
:10025000F1F344334361B2FBF1F301FB132189084D
:10026000C1613B2903D3027D920700D0491C0022C3
:10027000074C13460261E25C8A4203D8891A5B1C70
:100280000361F8E7491CC16010BD0000EC49002083
:10029000B852000840EA01039B0703D009E008C9EF
:1002A000121F08C0042AFAD203E011F8013B00F83B
:1002B000013B521EF9D27047D2B201E000F8012B87
:1002C000491EFBD270470022F6E710B513460A46D6
:1002D00004461946FFF7F0FF204610BD30B480EA0F
:1002E000010202F0004530F0004221F0004013D03E
:1002F00090B1C30DD40DC2F31601C0F31600E41A79
:1003000041F4000140F400027D34914201D3641CA9
:1003100000E04900002C02DA30BC002070474FF4A6
:1003200000000023914201D3891A034340084FEA99
:100330004101F7D151B1914202D14FF0004105E0A6
:1003400002D24FF0010101E06FF0010103EBC45054
:10035000284430BC00F074BA2DE9FE4F804681EA93
:100360000300C00F0C46009021F0004123F000452F
:10037000B8EB0200A94105D24046214690461C46F2
:100380000B46024623F00040104347D0270DC7F329
:100390000A00C3F30A510290401A019040286BDA18
:1003A000C3F3130040F4801B0098924620B1002351
:1003B000D2EB030A63EB0B0B01985946C0F14002E4
:1003C000504600F00CFA06460D4650465946019A32
:1003D00000F024FA10EB08006141002487EA115272
:1003E00084EAE7731A4340D0009A62B3019A012A63
:1003F0004FEA075215DC001B61EB02014FF000428F
:1004000002EA0752CDE90042001C41F58011324654
:100410002B4600F05BFA03B0BDE8F08F4046214662
:10042000F9E7001B61EB0201001C41F58013001885
:100430005B412018A2F5001747EB030140EAD57095
:10044000B6196D4111E06D084FEA360645EAC075F0
:100450004FEA0752001B61EB0201001C41F58011BD
:1004600049084FEA30000019514132462B4603B08B
:10047000BDE8F04F00F01BBA0098012240000023B5
:10048000D0EB020263EBE073009821464FEAE07480
:10049000B8EB000061EB0401E9E783F000435BE7A0
:1004A00081F0004158E72DE9FE4F81EA030404F092
:1004B000004421F0004100944FF0000B23F0004372
:1004C00050EA01045ED052EA03045BD0C3F30A543D
:1004D000C1F30A552C44A4F2F3340194A0FB025456
:1004E000C1F3130141F48011C3F3130343F48013E8
:1004F00001FB024400FB034E840A970A44EA81543C
:1005000047EA8357A4FB076802958D0A05FB078518
:100510004FEA932C04FB0C542705029D4FEA065822
:1005200047EA1637B5EB08056EEB070C870E920EFF
:1005300047EA811742EA8312A7FB0201B6EB0B01DF
:1005400064EB00042B0D43EA0C335E1844EB1C50A3
:10055000DA465146E7FB0201C5F313044FEA0B33B9
:1005600043EA14534FEA0432019C43EA0603A4F120
:100570000C040294009CCDE900B400F0A7F903B08C
:10058000BDE8F08F00200146F9E72DE9F04D81EA42
:10059000030404F0004B21F0004514464FF0000A1C
:1005A00023F0004150EA050220D054EA01021DD098
:1005B000C5F30A570246C5F31303C1F31300C1F391
:1005C0000A5640F4801543F48013A7EB0608101B6D
:1005D000D64608F2FD3873EB050002D308F1010896
:1005E00001E092185B41B8F1000F03DA00200146E8
:1005F000BDE8F08D00204FF48011064684460EE0E1
:10060000171B73EB050705D3121B63EB05030643AA
:100610004CEA010C49084FEA300092185B4150EA5D
:100620000107EDD152EA030012D082EA040083EA06
:100630000501084305D0101BAB4106D2012200235F
:1006400006E000224FF0004302E06FF00102531079
:100650001AEB06004CEB085110EB0A0041EB0B01C2
:10066000BDE8F04D00F023B996230022114600F0BA
:10067000F0B80EB5C10F80EAE0700844CA07002147
:1006800040F233438DE80E000A460B4600F01EF997
:1006900003B000BD0EB540F2334102910021CDE917
:1006A00000110A460B4600F011F903B000BD00F03E
:1006B000004230F000400AD0C10D01F56071C0F376
:1006C000160042EA0151C20840071143704700205A
:1006D0000146704730B5041E71F1000404DB4FF091
:1006E0000044404264EB0101141E73F1000405DB79
:1006F0001C464FF00043524263EB0403994208BF8B
:10070000904230BD01F0004330B421F0004150EA86
:10071000010206D00A0DA2F56072C1F31301002A8E
:1007200002DC30BC00207047440F44EAC104C10021
:10073000E01830BC00EBC25000F082B8002801DBAA
:10074000C0F10040002901DBC1F10041884270473F
:1007500030B50B46014600202022012409E021FA91
:1007600002F59D4205D303FA02F5491B04FA02F58E
:100770002844151EA2F10102F1DC30BD2DE9F05F25
:100780000546002092469B46884606468146402400
:100790001BE0284641464746224600F02FF85346C4
:1007A0005A46C01A914110D311461846224600F00D
:1007B00016F82D1A67EB01084F462246012000214A
:1007C00000F00DF817EB00094E41201EA4F10104C2
:1007D000DFDC484631462A464346BDE8F09F202AE2
:1007E00004DB203A00FA02F1002070479140C2F188
:1007F000200320FA03F3194390407047202A04DBBA
:10080000203A21FA02F00021704721FA02F3D04089
:10081000C2F120029140084319467047202A06DBA6
:10082000CB17203A41FA02F043EAE07306E041FABE
:1008300002F3D040C2F120029140084319467047AC
:100840000029A8BF7047401C490008BF20F00100E4
:10085000704710B4B0FA80FC00FA0CF050EA0104C2
:1008600004BF10BC704749B1CCF1200421FA04F454
:1008700011FA0CF118BF012121430843A3EB0C012D
:10088000CB1D4FEA00614FEA102042BF002010BC90
:10089000704700EBC35010440029A4BF10BC704740
:1008A000401C490008BF20F0010010BC704710B583
:1008B000141E73F1000408DA401C41F10001921883
:1008C0005B411A4301D120F0010010BD2DE9F04D2C
:1008D00092469B4611B1B1FA81F202E0B0FA80F281
:1008E00020329046FFF77BFF04460F4640EA0A009D
:1008F00041EA0B0153465A46084313D0114653EAC6
:10090000010019D0C8F140025046FFF777FF0546B5
:100910000E46504659464246FFF761FF084305D050
:10092000012004E020463946BDE8F08D0020054353
:1009300046EAE0762C4337430A986305E40AA0EBC5
:1009400008000022FD0A44EA47540A3002D500207C
:100950000146E9E7010510196941DDE9084500197B
:100960006941BDE8F04DA2E7C1F30A52C1F313019A
:1009700040F2FF3341F480119A4202DA002001462E
:10098000704740F233439A42A2F2334202DC5242B1
:10099000FFF734BFFFF723BF064C074D06E0E068C2
:1009A00040F0010394E8070098471034AC42F6D3B6
:1009B000FFF7C2FBC4520008E452000870B58C185F
:1009C00010F8015B15F0070301D110F8013B2A1163
:1009D00006D110F8012B03E010F8016B01F8016B50
:1009E0005B1EF9D12B0705D40023521E0DD401F84C
:1009F000013BFAE710F8013BCB1A921C03E013F815
:100A0000015B01F8015B521EF9D5A142D8D3002049
:100A100070BD21B1826842F00102826003E0826809
:100A200022F001028260704721B1826842F4807234
:100A3000826003E0826822F480728260704701461F
:100A400000208A6802F004020AB1012000E00020C0
:100A500070470146C86C80B2704702460020136898
:100A60000B400BB1012000E0002070470146002040
:100A70008A6802F008020AB1012000E000207047F5
:100A800030B502460020002350680F4C20400D79FD
:100A90000C6844EA05242043506090680B4C2040C9
:100AA000D1E902542C434D7944EA45042043906037
:100AB000D06A20F470000C7C641EE4B2234340EA48
:100AC0000350D06230BD0000FFFEF0FFFDF7F1FFE4
:100AD000F0B504460D4600200021092D11DDE06827
:100AE000A5F10A0606EB4607072606FA07F1884332
:100AF000A5F10A0606EB460603FA06F10843E06094
:100B00000CE0206905EB4507072606FA07F1884344
:100B100005EB450603FA06F108432061072A0FDAC0
:100B2000606B561E06EB86071F2606FA07F1884300
:100B3000561E06EB860605FA06F10843606322E0BE
:100B40000D2A0FDA206BD61F06EB86071F2606FA42
:100B500007F18843D61F06EB860605FA06F108431F
:100B6000206310E0E06AA2F10D0606EB86071F265F
:100B700006FA07F18843A2F10D0606EB860605FA90
:100B800006F10843E062F0BD816841F00801816030
:100B9000704721B1826842F4A002826003E082685B
:100BA00022F4A00282607047816841F004018160F4
:100BB0007047000010B501248021114800F04AFD63
:100BC00040210F4800F044FD0520002100F0DFFA2D
:100BD00040210B4800F03EFD0520002100F0D7FA2F
:100BE0008021074800F02BFD00B900244021044873
:100BF00000F02EFD0520002100F0C9FA204610BDAE
:100C0000000C014070B5002500248021154800F03B
:100C100021FD00BF1AE06006040E4021114800F0DB
:100C200017FD0520002100F0B2FA40210D4800F028
:100C300011FD0520002100F0AAFA8021094800F0EA
:100C4000FEFC08B144F00104681CC5B2082DE2DBCB
:100C50004021044800F0FCFC0520002100F097FA38
:100C6000204670BD000C014010B5044640211548D7
:100C700000F0EEFC0520002100F089FA24B9802163
:100C8000104800F0E5FC03E080210E4800F0E2FC93
:100C90000520002100F07BFA40210A4800F0DAFC30
:100CA0000520002100F073FA4021064800F0D0FC36
:100CB0008021044800F0CEFC0520002100F067FAF6
:100CC00010BD0000000C014070B50546002422E074
:100CD0004021164800F0BCFC0520002100F057FA26
:100CE00080202041284020B18021104800F0B2FC33
:100CF00003E080210D4800F0ABFC0520002100F04E
:100D000046FA4021094800F0A5FC0520002100F02A
:100D10003EFA601CC4B2082CDADB4021034800F024
:100D200097FC0520002100F032FA70BD000C014054
:100D300010B5044600F018F84620FFF7C5FFFFF78E
:100D400039FF18B100F02CF8012010BD2046FFF744
:100D5000BBFFFFF72FFF18B100F022F80120F4E7E6
:100D600000F01EF80020F0E710B540210B4800F01D
:100D700071FC8021094800F06DFC0520002100F085
:100D800006FA8021054800F063FC0520002100F0F0
:100D9000FEF94021014800F05BFC10BD000C014051
:100DA00010B540210D4800F053FC80210B4800F0A5
:100DB0004FFC0520002100F0EAF94021074800F02F
:100DC00049FC0520002100F0E2F98021034800F0F1
:100DD00041FC0520002100F0DAF910BD000C0140B3
:100DE00010B500F03FF81020FFF7A2FF08B1012076
:100DF00010BDB420002100F06AF90020F8E70000DF
:100E00002DE9F041FFF7B0FF4720FFF75DFFFFF747
:100E1000D1FE20B1FFF7C4FF1048BDE8F081FFF715
:100E2000F1FE05460020FFF71FFFFFF7EBFE074628
:100E30000120FFF719FFFFF7B3FF47EA0524B4F5D8
:100E4000803F01DB0548E8E72046FFF70DFC8046C0
:100E50000349FFF743FA06463046DEE7000080BF4D
:100E60009A99993F08B50121082001F081F8C02026
:100E7000ADF8000014208DF8030003208DF8020067
:100E80006946064800F050FB4021044800F0E2FBB0
:100E90008021024800F0DEFB08BD0000000C01408C
:100EA00010B5012001F074F8002001F071F810BDB8
:100EB00008B50146002000900348009000980844BF
:100EC00000900098008808BD006C004008B5002222
:100ED0000092044A0092009A02440092009A116023
:100EE00008BD0000006C00408CB02C2101A8FFF769
:100EF000EAF900BF00BF03F099F9FFF781FF0790FF
:100F000003F0A6F903208DF82E000023021F01A98B
:100F10000448006803F0CCFC4FF47A7003F014FA34
:100F2000E9E700004000002000BFFEE721B10268B1
:100F300042F00102026004E002684FF6FE731A40BC
:100F40000260704701684FF6FE7211400160002197
:100F5000016041608160C1604B49884208D14A49C3
:100F60000839496841F00F01474A083A51608AE060
:100F700045491431884208D143490839496841F04C
:100F8000F001414A083A51607DE03F4928318842EA
:100F900008D13D490839496841F470613A4A083A34
:100FA000516070E038493C31884208D136490839EF
:100FB000496841F47041344A083A516063E032496B
:100FC0005031884208D130490839496841F47021CC
:100FD0002D4A083A516056E02B496431884208D1C5
:100FE00029490839496841F47001274A083A516093
:100FF00049E025497831884208D1234908394968B0
:1010000041F07061204A083A51603CE01F49884233
:1010100006D1011F096841F00F01021F116032E083
:101020001A491431884208D11849091F096841F04A
:10103000F001164A121F116025E014492831884238
:1010400008D11249091F096841F470610F4A121F43
:10105000116018E00D493C31884208D10B49091F45
:10106000096841F47041094A121F11600BE00749F9
:101070005031884207D10549091F096841F47021A0
:10108000024A121F11607047080002400804024023
:1010900010B50022026847F6F0739A430C6A8B6819
:1010A00023430C6923434C6923438C692343CC6954
:1010B00023434C6A23438C6A23431A430260CB6860
:1010C00043600B6883604B68C36010BD7047F0B528
:1010D0004FF47A7300260446A4FB032701FB037335
:1010E00000FB0631104647E000BF00BF00BF00BF55
:1010F00000BF00BF00BF00BF00BF00BF00BF00BFF8
:1011000000BF00BF00BF00BF00BF00BF00BF00BFE7
:1011100000BF00BF00BF00BF00BF00BF00BF00BFD7
:1011200000BF00BF00BF00BF00BF00BF00BF00BFC7
:1011300000BF00BF00BF00BF00BF00BF00BF00BFB7
:1011400000BF00BF00BF00BF00BF00BF00BF00BFA7
:1011500000BF00BF00BF00BF00BF00BF00BF00BF97
:1011600000BF00BF00BF00BF00BF00BF00BF00BF87
:1011700000BF00BF00BF00BF0A460346401E61F12A
:10118000000100256B406A401343ADD1F0BD30B57E
:1011900047E000BF00BF00BF00BF00BF00BF00BFEF
:1011A00000BF00BF00BF00BF00BF00BF00BF00BF47
:1011B00000BF00BF00BF00BF00BF00BF00BF00BF37
:1011C00000BF00BF00BF00BF00BF00BF00BF00BF27
:1011D00000BF00BF00BF00BF00BF00BF00BF00BF17
:1011E00000BF00BF00BF00BF00BF00BF00BF00BF07
:1011F00000BF00BF00BF00BF00BF00BF00BF00BFF7
:1012000000BF00BF00BF00BF00BF00BF00BF00BFE6
:1012100000BF00BF00BF00BF00BF00BF00BF00BFD6
:1012200000BF0A460346401E61F1000100256B40E5
:101230006A401343ADD130BD8CB02C2101A8FFF71B
:1012400042F800BF02F0F2FF00F034F803F000F8BB
:101250000A480068049009484168059101208DF80A
:101260002E000023821E01A90548006803F020FB20
:101270004FF4FA6003F068F8E4E700009000002003
:101280004000002008B50121080200F071FE002096
:1012900000904FF40060ADF8000001208DF80200CE
:1012A00014208DF803006946014800F03DF908BD9F
:1012B000002001402DE9F04786B000224FF4006184
:1012C0008F4800F0C9F919200021FFF700FF012223
:1012D000D1028B4800F0C0F94FF0000A0DE0012068
:1012E0000021FFF754FF0AF1010000F0FF0ABAF1F4
:1012F000640F02DD06B0BDE8F0874FF4006180485E
:1013000000F09DF90128EAD04FF0000A0BE001201F
:101310000021FFF73CFF0AF1010000F0FF0ABAF1DB
:10132000640F00DDE6E74FF40061754800F087F9CF
:101330000028ECD0002004900590002473E04FF0CA
:10134000000A0BE001200021FFF721FF0AF1010054
:1013500000F0FF0ABAF1640F00DDCBE74FF4006143
:10136000674800F06CF90128ECD04FF0000A0BE060
:1013700001200021FFF70BFF0AF1010000F0FF0A36
:10138000BAF1640F00DDB5E74FF400615C4800F08E
:1013900056F90028ECD028200021FFF7F8FE4FF482
:1013A0000061574800F04BF901281DD12046E21793
:1013B00004EB5272D210C2F1040204AB9A5C2146D3
:1013C000E31704EB5373DB10A4EBC303C3F107056E
:1013D0000123AB401A43E31704EB5373DB10C3F153
:1013E000040304ADEA541CE0E21704EB5272D2107D
:1013F000C2F1040204AB9A5C2146E31704EB537379
:10140000DB10A4EBC303C3F107050123AB409A43F0
:101410002046E31704EB5373DB10C3F1040304AD60
:10142000EA54601CC4B2282C89DB9DF814009DF896
:10143000131008449DF8121008449DF81110084438
:101440009DF81010884200D054E79DF811008028C4
:1014500022DB9DF81110A1F18000FFF70AF9804608
:10146000284A294BFFF71FF804460D469DF8120045
:10147000FFF710F9064622462B46FEF76DFF0022C5
:10148000224BCDE90001FFF70EF8CDE90201FFF78D
:1014900039F91F49086019E09DF81100FFF7FAF8C3
:1014A0000646184A184BFEF7FEFF04460D469DF807
:1014B0001200FFF7EFF8804622462B46FEF74CFF5E
:1014C000CDE90201FFF71EF9114908609DF81400EB
:1014D000FFF7CAF80E4948604868FFF7E8F8044685
:1014E0000D460B490868FFF7E2F8064632460B4600
:1014F00008A0CDE9004501F097FB00BFFAE6000027
:10150000002001409A9999999999B93F0000F0BF3C
:101510009000002074656D3A252E31660968756D5E
:101520003A252E31660D0A002DE9F04102460025CC
:101530000026002000230024002791F803C00CF0AF
:101540000F0591F803C00CF0100CBCF1000F03D094
:1015500091F802C04CEA050591F800C0BCF1000FFB
:1015600031D0146800202BE04FF0010C0CFA00F38E
:10157000B1F800C00CEA03069E4220D183004FF070
:101580000F0C0CFA03F7BC4305FA03FC4CEA040405
:1015900091F803C0BCF1280F06D14FF0010C0CFAF2
:1015A00000FCC2F814C00AE091F803C0BCF1480F77
:1015B00005D14FF0010C0CFA00FCC2F810C0401C21
:1015C0000828D1D31460B1F800C0BCF1FF0F34DD9E
:1015D000546800202EE000F1080C4FF0010808FAD2
:1015E0000CF3B1F800C00CEA03069E4221D183003F
:1015F0004FF00F0C0CFA03F7BC4305FA03FC4CEA5E
:10160000040491F803C0BCF1280F05D100F1080CC7
:1016100008FA0CF8C2F8148091F803C0BCF1480F26
:1016200007D100F1080C4FF0010808FA0CF8C2F8D5
:101630001080401C0828CED35460BDE8F0810246DB
:10164000002093680B400BB1012000E000207047A0
:1016500041617047016170470AB1016100E0416179
:10166000704700BFFEE7000008B50121142000F01C
:101670007FFC0120ADF8000028208DF80300032036
:101680008DF8020069460748FFF74EFF7020ADF85D
:10169000000048208DF8030069460348FFF744FF27
:1016A00008BD0000000801400010014070B504466C
:1016B000A1882068FFF7C3FF0546A079A84201D1A1
:1016C000012070BD0020FCE72DE9F0410027002635
:1016D00043E006EB4600234901EB80042046FFF778
:1016E000E5FF0546607A30B101280BD0022816D0FC
:1016F000032828D123E025B1012060721A48008810
:10170000608123E045B1608917490988081A1428C7
:1017100004D30220607201E00020607216E055B12F
:10172000608911490988081AB0F5487F06D3277ADD
:101730000320607202E0E7790020607206E00DB9D4
:101740000020607202E00020607200BF00BF17B18D
:101750003846BDE8F081701CC6B2042EB9D3002013
:10176000F7E700005800002016030020002400BF07
:101770000A2002F0E9FDFFF7A7FF0446012C08D17B
:1017800009A001F051FA01210E48006802F069FF3A
:10179000EEE7032CECD10CA001F046FA0121094838
:1017A000006802F041FFE3E74B4559312050726574
:1017B00073736564212041726D696E672E2E2E0D44
:1017C0000A000000480000204B4559322050726545
:1017D00073736564212044697361726D696E672E4D
:1017E0002E2E0D0A0000000090B02C2105A8FEF757
:1017F0006AFD00BF4FF0FF312C48006803F014FA77
:1018000000F0CAF82A48D0E906211046FEF77AFF10
:1018100005902748006906902548C0680790002079
:101820008DF83E000023421E05A92248006803F0FF
:101830003FF80798FEF73BFF04460D460698FEF773
:1018400036FF06460F460598FEF731FF80464246B2
:101850000B4619A0CDE90067CDE9024501F0E4F996
:101860001C490598FEF76AFF05D240211A48006816
:1018700002F0F7FE04E040211748006802F0D4FEB1
:101880000798FEF714FF04460022144BFEF722FFD0
:1018900005D210211048006802F0E3FEAAE71021EB
:1018A0000D48006802F0C0FEA4E7000044000020DC
:1018B00088030020400000206B716D646174613A00
:1018C00020252E32662C20252E32662C20252E3205
:1018D000660A00000000BE43480000200000E03F10
:1018E00000B587B00121042000F042FB012148042B
:1018F00000F02EFB0420ADF8180018208DF81B0016
:1019000003208DF81A0006A92148FFF70DFE0820D4
:10191000ADF8180004208DF81B0003208DF81A0084
:1019200006A91B48FFF700FE4FF416500290002056
:10193000ADF80C00ADF80E00ADF81000ADF81400D5
:101940000C20ADF8120002A9124801F0F5F80122AE
:1019500040F225510F4801F0C9F8012240F224411C
:101960000C4801F0C3F826208DF8040002208DF801
:10197000050001208DF806008DF8070001A800F091
:1019800083FA0121034801F06EF807B000BD0000A2
:1019900000080140004400402DE9F0413048C07A81
:1019A00001284BD12E48807A082847DB2C48007844
:1019B0005F283FD10024002005E02949095C21442B
:1019C000CCB2411CC8B20728F7DB2548C079A04239
:1019D0002CD123498978224A527841EA0220FEF725
:1019E00048FE07461F4A204BFEF75DFD0546FEF701
:1019F00089FE1B49C8600A79C97802EB0120FEF70D
:101A000038FE0746194A1A4BFEF74DFD0546FEF70C
:101A100079FE134908618979114A527941EA022015
:101A2000FEF727FE0E4AC2E9060102E011A001F00E
:101A3000FBF80AE015A001F0F7F806E00848C07AC4
:101A4000012802D116A001F0EFF800200449C87265
:101A500088720A210248FEF736FCBDE8F0810000DA
:101A6000880300209A9999999999B93F7B14AE47B8
:101A7000E17A843F6B716D20E6A0A1E9AA8CE59222
:101A80008CE99499E8AFAF5C720A00006B716D202D
:101A9000E5B8A7E5A4B4E99499E8AFAF0D0A000052
:101AA0006B716D20E695B0E68DAEE995BFE5BAA6FF
:101AB000E4B88DE8B6B30D0A0000000090B02C2108
:101AC00005A8FEF700FC00BF4FF0FF3205A9304823
:101AD000006803F027F89DF83E00052855D2DFE89E
:101AE00000F014032C343E000998FEF7E0FD044694
:101AF0000D460898FEF7DBFD064632460B4625A04C
:101B0000CDE9004501F090F840E00798FEF7CFFDE1
:101B100004460D460698FEF7CAFD06460F46059890
:101B2000FEF7C5FD804642460B4620A0CDE9006782
:101B3000CDE9024501F078F828E0BDF82A20BDF88B
:101B4000281024A001F070F820E00B98FEF7AFFDFC
:101B5000044622460B4626A001F066F816E0BDF8C2
:101B60003C10BDF83A00BDF83820BDF83630CDE95C
:101B70000032CDE90201BDF83430BDF83220BDF8A5
:101B8000301020A001F050F800E000BF9CE70000FA
:101B90004000002074656D3A20252E31662068755E
:101BA0006D3A20252E31660A000000004B514D3A57
:101BB00020636F323A20252E3266206368326F3AF6
:101BC00020252E326620766F633A20252E32660A53
:101BD000000000006C696768743A20253034642C7A
:101BE0002079616E77753A20253034640A00000050
:101BF0004248313735303A20252E3166206C782026
:101C00000A0000005254433A20253034642C202529
:101C10003032642C20253032642C20253032642C64
:101C200020253032642C20253032642C2025640A93
:101C30000000000008B500BF642000231A465121AF
:101C400000900D48006802F055FD044604F00100C4
:101C500068B104F05000502804D104210748FFF770
:101C6000F7FC08E004210548FFF7F4FC03E0042139
:101C70000248FFF7EFFCDFE74800002000180140B2
:101C800008B50121402000F073F9002000903C20AD
:101C9000ADF8000001208DF8020010208DF803003F
:101CA00069460A48FFF740FC04210848FFF7D2FCC8
:101CB00008210648FFF7CEFC10210448FFF7CAFCB4
:101CC00020210248FFF7C6FC08BD000000180140B3
:101CD0008CB02C2101A8FEF7F6FA00BF00F0B0F896
:101CE0000B484088ADF8180009488188ADF81A10F3
:101CF00002208DF82E000023C21E01A905480068AD
:101D000002F0D6FD4FF4FA6002F01EFBE6E7000099
:101D10009C0000204000002000B591B00121084641
:101D200000F006F901214FF4057000F021F94FF49D
:101D3000004000F0F1F82020ADF8400000208DF8C0
:101D4000430010A93948FFF7EFFB0220ADF840002F
:101D500010A93748FFF7E8FB3648FFF7F3F8364895
:101D60000590364806900020079014200890002027
:101D7000099080200A9040000B9080000C90202059
:101D80000D9000020E9000200F9005A92948FFF742
:101D90007FF901212748FFF7C9F8002000900120B2
:101DA0008DF804008DF805004FF4602002900020AB
:101DB000039002208DF8100069461F484C38FEF74A
:101DC0005FFE0523012219461B484C38FEF780FEB2
:101DD000052302220B2118484C38FEF779FE012119
:101DE00015484C38FEF720FE012113484C38FEF709
:101DF00010FE11484C38FEF7C7FE00BF0E484C38A5
:101E0000FEF734FE0028F9D10B484C38FEF7CCFE23
:101E100000BF09484C38FEF712FE0028F9D1012115
:101E200005484C38FEF7B5FE11B000BD0008014072
:101E300000100140080002404C2401409C0000209A
:101E400070B5002400250DE000BF02210A48FEF70E
:101E500004FE0028F9D00848FEF7FBFD204484B2B8
:101E6000681CC5B20A2DEFDB0A2094FBF0F084B2A7
:101E70000248048070BD000000240140A000002042
:101E800000BFFEE77047000070B5002100230F225D
:101E9000C47804B3154C246804F4E064C4F5E06429
:101EA000210AC1F10403CA40447804FA03F184789A
:101EB0001440214309010E4C0678A155047804F022
:101EC0001F050124AC4005786D11AD0005F1E0253A
:101ED000C5F8004109E0047804F01F050124AC4076
:101EE000044D0678761145F8264070BD0CED00E0F3
:101EF00000E400E080E100E002490143024A116091
:101F0000704700000000FA050CED00E0014908628E
:101F10007047000000000E4201460020034A50684E
:101F200020F4404008435060704700000010024019
:101F300029B1064A52690243044B5A6104E0034A3C
:101F400052698243014B5A61704700000010024001
:101F500029B1064AD2690243044BDA6104E0034A1C
:101F6000D2698243014BDA617047000000100240E1
:101F700029B1064A92690243044B9A6104E0034A7C
:101F800092698243014B9A61704700000010024041
:101F900001490860704700004004424230B500210A
:101FA0000022002400232D4D6D6805F00C0121B1A5
:101FB000042905D0082923D105E0294D056022E038
:101FC000274D05601FE0254D6D6805F47012234D07
:101FD0006D6805F48034022505EB92421CB9214D51
:101FE000554305600BE01D4D6D6805F400351DB1CE
:101FF0001C4D5543056002E0194D5543056002E054
:10200000174D056000BF00BF144D6D6805F0F0016D
:102010000909154D6B5C0568DD4045600F4D6D6825
:1020200005F4E061090A104D6B5C4568DD40856090
:102030000A4D6D6805F46051C90A0B4D6B5C45682B
:10204000DD40C560054D6D6805F44041890B074DC5
:102050006B5CC568B5FBF3F5056130BD001002404F
:1020600000127A0000093D0000000020100000204E
:1020700010B501460022002300204A11012A02D196
:10208000094C236806E0022A02D1074C236A01E0CA
:10209000054C636A01F01F02012494401C400CB1FE
:1020A000012000E0002010BD00100240014908603E
:1020B00070470000800442420149086070470000F8
:1020C0003C0442420249096A0143014A11627047D5
:1020D00000100240024909888143014A118070477B
:1020E000042800400348008840F01000014908809F
:1020F0007047000004280040034800884FF6EF7145
:102100000840014908807047042800400021034826
:102110000188001F008841EA004070471C280040E9
:1021200001460020034A12880A400AB1012000E05B
:10213000002070470428004008B5FFF7E7FF009033
:102140006846FEF75DF80149086008BD9800002068
:1021500010B501214FF0C050FFF7FAFE0120FFF744
:10216000D5FE0420FEF7A4FE4AF2A221884203D144
:10217000FFF7CCFF642833D21CA000F055FDFEF71A
:102180008FFE0120FFF792FF1D4C00BF6120FFF77B
:102190006FFF18B9201EA4F10104F7D11CB919A0D2
:1021A00000F042FD10BD4FF40070FFF78BFF49F6C1
:1021B0003F4000F051F80120FFF77EFF00F0C6F825
:1021C00000F0A2F8174800F039F800F09DF84AF244
:1021D000A2210420FEF77AFE13A000F025FD03E003
:1021E00000F0B4F800F090F800BFDBE75254432051
:1021F000496E697420284C5349292E2E2E0D0A0051
:10220000FFFF0F00525443204572726F723A204C08
:102210005349205374617274204661696C6564216E
:102220000D0A000085B4826952544320496E6974D6
:1022300020537563636573732E0D0A0000B5024663
:10224000FFF750FF100C03490880091D0A80FFF7B3
:1022500053FF00BD1828004000B50246FFF742FFBB
:10226000C2F3034003490880091D0A80FFF744FFB9
:1022700000BD0000082800408CB02C2101A8FEF70A
:1022800022F800BFFFF758FF1D480068808A00F25F
:102290006C7080B2ADF8200019480068008A401CBC
:1022A00081B2ADF8221016480068808981B2ADF87D
:1022B000241013480068008981B2ADF82610104838
:1022C0000068808881B2ADF828100D480068008849
:1022D00081B2ADF82A100A480068008B81B2ADF8CF
:1022E0002C1004208DF82E000023421F01A9054860
:1022F000006802F0DDFA4FF47A7002F025F8C1E7C9
:10230000980000204000002010B5074C00BF20209E
:10231000FFF706FF18B9201EA4F10104F7D114B984
:1023200002A000F081FC10BDFFFF0F0052544320BB
:102330004572726F723A204C6173745461736B20F2
:1023400054696D656F7574210D0A000010B5094C54
:102350000820FFF7BFFE00BF0820FFF7E1FE18B915
:10236000201EA4F10104F7D114B903A000F05CFC15
:1023700010BD0000FFFF0F00525443204572726FE2
:10238000723A2053796E6368726F2054696D656F7D
:102390007574210D0A00000010B500F001F810BDA1
:1023A0000CB50020019000903348006840F4803064
:1023B0003149086000BF3048006800F400300090E8
:1023C0000198401C0190009818B90198B0F5A06FD1
:1023D000F1D12948006800F4003010B101200090CC
:1023E00001E0002000900098012843D123480068B4
:1023F00040F01000214908600846006820F0030002
:1024000008600846006840F0020008601A4840680A
:10241000194948600846406848600846406840F4EA
:10242000806048600846406820F47C104860084698
:10243000406840F4E81048600846006840F080704A
:10244000086000BF0C48006800F000700028F9D058
:102450000948406820F00300074948600846406882
:1024600040F00200486000BF0348406800F00C00E4
:102470000828F9D10CBD00000010024000200240E5
:1024800000B587B001211020FFF772FD0121202047
:10249000FFF76EFD01210805FFF75AFD4FF480504C
:1024A000ADF8180018208DF81B0003208DF81A00D5
:1024B00006A91F48FFF738F80420ADF818008DF87A
:1024C0001B0006A91B48FFF72FF84FF41650029087
:1024D0000020ADF80C00ADF80E00ADF81000ADF81E
:1024E00014000C20ADF8120002A9134800F024FBE0
:1024F000012240F22551104800F0F8FA012240F282
:1025000024410D4800F0F2FA35208DF80400022035
:102510008DF805008DF8060001208DF8070001A850
:10252000FFF7B2FC0121044800F09DFA07B000BD9E
:1025300000100140001401400050004010B500BFE1
:10254000BF2080F31188BFF34F8FBFF36F8F00BFA1
:1025500002F076FC18B14FF080500449086000BFCB
:10256000002080F3118800BF10BD000004ED00E0E2
:1025700010B51348006840F0010011490860084692
:102580004068104908400E494860084600680E49F6
:1025900008400B4908600846006820F48020086065
:1025A0000846406820F4FE0048604FF41F00886031
:1025B000FFF7F2FE4FF000600449086010BD000014
:1025C000001002400000FFF8FFFFF6FE08ED00E0FB
:1025D00010B50121064800F01EF840B105480088FA
:1025E000401C044908800121014800F005F810BD95
:1025F0000010004016030020CA430282704721B138
:10260000028842F00102028004E002884FF6FE7365
:102610001A400280704730B5024600200023002493
:10262000158A05EA0103958905EA010413B10CB185
:10263000012000E0002030BD1AB183890B43838163
:1026400002E083898B438381704700001FB501211D
:102650001020FFF77DFC40F2E730ADF8080047207E
:10266000ADF804000020ADF80A00ADF806008DF8C2
:102670000C0001A90D4800F01BF836208DF8000071
:1026800003208DF8010000208DF8020001208DF854
:1026900003006846FFF7F8FB012211460348FFF7E5
:1026A000CBFF01210148FFF7AAFF1FBD001000402A
:1026B000002202881D4B98420ED01D4B98420BD031
:1026C000B0F1804F08D01B4B984205D01A4B98426E
:1026D00002D01A4B984204D14FF68F731A404B88A0
:1026E0001A43174B984207D0164B984204D04FF626
:1026F000FF431A40CB881A4302808B8883850B885E
:1027000003850A4B98420BD0094B984208D00E4BD8
:10271000984205D00D4B984202D00D4B984201D102
:102720000B7A03860123838270470000002C01404E
:10273000003401400004004000080040000C00404C
:1027400000100040001400400040014000440140DF
:102750000048014010B5002440F22551174800F010
:102760009BF9012818D11648C07803280CD21348C9
:1027700000F04EFAC1B21248C278C078401C104B2B
:10278000D8701846815402E00C4800F041FA40F23B
:1027900025510A4800F058F940F22441074800F05A
:1027A0007BF9012808D10649087104480088C4B2A1
:1027B00002488088C4B200BF10BD00000050004035
:1027C0008800002070B540F225511E4800F064F9E1
:1027D000C0B11C4800F01CFAC4B21B4890F80201BA
:1027E00078B91948B0F80001FF280ADC1648B0F89B
:1027F0000011B0F80001401C134AA2F80001104675
:10280000445400BF40F224410E4800F045F950B155
:102810000C480088C5B20B48001D0088C5B20120D5
:10282000094981F802010821064800F028F938B169
:1028300004480088C5B20348001D0088C5B200BF27
:1028400070BD000000380140A803002000B587B02B
:10285000012144F20400FFF78BFB4FF40070ADF848
:10286000180018208DF81B0003208DF81A0006A907
:102870002148FEF759FE4FF48060ADF8180004209F
:102880008DF81B0006A91C48FEF74EFE4FF4E13000
:1028900002900020ADF80C00ADF80E00ADF810006D
:1028A000ADF814000C20ADF8120002A9134800F096
:1028B00043F925208DF8040002208DF80500012041
:1028C0008DF806008DF8070001A8FFF7DDFA012258
:1028D00040F22551094800F009F9012240F2244153
:1028E000064800F003F90121044800F0BCF8034851
:1028F00000F08EF907B000BD00080140003801402B
:1029000010B5044600BF8021084800F0B8F8002840
:10291000F9D02146054800F080F900BF4021034866
:1029200000F0ADF80028F9D010BD000000380140DB
:1029300038B5002440F225511E4800F0ADF80128BA
:1029400014D11D48807A08280BDA1A4800F060F983
:10295000C1B21948827A807A401C174B9872184687
:10296000815440F22551134800F06EF840F22441A2
:10297000104800F091F801281AD10F49C8720020C0
:10298000009069460D48006802F084F8009838B15C
:102990004FF080500A490860BFF34F8FBFF36F8F2D
:1029A00004480088C4B20348001D0088C4B200BFB8
:1029B00038BD00000044004088030020440000208F
:1029C00004ED00E010B5002440F225511B4800F052
:1029D00063F8012820D11948001D0088C4B21848A6
:1029E00004801848B0F80012B0F80002401C154AE4
:1029F000A2F80002104644540146B1F80002C11783
:102A000000EBD1514912A0EB4121A2F8001240F293
:102A100025510A4800F018F840F22441074800F018
:102A20003BF8012809D1074981F8020203480088D0
:102A3000C4B20248001D0088C4B210BD0048004066
:102A4000043801400801002010B50022002340F6A0
:102A50006A14A14200D100BF0A1201249440A3B21B
:102A6000DC43048010BD21B1828942F4005282818E
:102A700004E082894DF6FF731A4082817047024656
:102A80000020B1F5007F00D100BF13880B400BB1CF
:102A9000012000E00020704770B5024600240023AA
:102AA0000025002040F66A16B14200D100BFC1F3F4
:102AB000421501F01F03012606FA03F3012D02D18E
:102AC0009689334006E0022D02D1168A334001E098
:102AD000968A33400C12012606FA04F41688344014
:102AE00013B10CB1012000E0002070BDF0B5034629
:102AF000002400260025002040F66A17B94200D1C4
:102B000000BF1846C1F3421401F01F06012707FA5F
:102B100006F5012C01D10C3004E0022C01D110305B
:102B200000E014301AB107682F43076002E007681D
:102B3000AF430760F0BD00002DE9F04786B00546C1
:102B40000E460024A24600BFA1460027B08900B16E
:102B500000BF2F462C8A4CF6FF700440F0880443D7
:102B60002C82AC894EF6F3100440B08831890843BA
:102B7000718908430443AC81AC8A4FF6FF4004409E
:102B8000B0890443AC8201A8FFF708FA1F488742C6
:102B900002D1DDF810A001E0DDF80CA0A88900F456
:102BA000004040B10AEBCA0000EB0A10316849004E
:102BB000B0FBF1F807E00AEBCA0000EB0A1031683D
:102BC0008900B0FBF1F86420B8FBF0F004012009A3
:102BD000642101FB1089A88900F4004040B1322033
:102BE00000EBC900B0FBF1F000F00700044308E07F
:102BF000322000EB09106421B0FBF1F000F00F006F
:102C000004432C8106B0BDE8F08700000038014085
:102C100001468888C0F308007047C1F3080282802B
:102C2000704700BFFEE700000FB4054B10B503A9C5
:102C3000044A029800F0DAF810BC5DF814FB0000BA
:102C40001B3500088403002002E008C8121F08C1D9
:102C5000002AFAD170477047002001E001C1121F1D
:102C6000002AFBD1704700002DE9FF5F82B00021F0
:102C7000DDE90430020DDDF840B0034318D044F61E
:102C80001050A2F2FF3242431514119801281FD0B0
:102C9000A5EB0B00401C5FEA000A4FF000064E4F08
:102CA000DFF83891B046504615D5CAF1000413E05C
:102CB000119801244AA3012801D16FEA0B0102985F
:102CC000119AC0E90031C0E9024206B0BDE8F09FA8
:102CD000CBF10000DFE704460021404A491842EBEF
:102CE0000450CDE9001012E0E00707D032463B4621
:102CF00040464946FDF7D7FB8046894632463B466B
:102D000010461946FDF7CFFB06460F466410002C0F
:102D1000EAD1DDE90401DDE90023BAF1000F06DAAA
:102D2000FDF7C1FB42464B46FDF7BDFB05E0FDF755
:102D30002CFC42464B46FDF728FC04460E4600227A
:102D4000284BFDF7C7FC03D84FF0FF30014607E0E2
:102D50000022254B20463146FDF7FEFAFDF704FE22
:102D6000102409E0002C0ADB0A220023FDF706FDEF
:102D7000039B30321A55641E50EA0102F2D1641CE2
:102D8000039AC4F111031444119A012A03D00122B9
:102D900008430DD10AE0084304D000204FF0110B86
:102DA000119072E7A3EB0B056D1E0DE05B4504DD92
:102DB0004FF0000205F1010504E003DA4FF00002D4
:102DC000A5F10105002AECD002981199C0E9023161
:102DD000C0E9004579E70000000014400000F03F22
:102DE000300000000000F0430000E03F2DE9FF4FFD
:102DF00095B09B468946064600250FE2252877D1E7
:102E000000242746F84A0121059400E0044316F8FF
:102E1000013F203B01FA03F01042F7D130782A2815
:102E200011D06FF02F033078A0F13002092A16D8A4
:102E3000059A44F0020402EB820203EB42021044C2
:102E4000761C0590EFE759F8042B0592002A03DA67
:102E5000504244F40054059044F00204761C30784B
:102E60002E2816D116F8010F44F004042A280DD09C
:102E70006FF02F023078A0F13003092B09D807EB4F
:102E8000870302EB4303C718761CF3E759F8047B6A
:102E9000761C30786C280FD006DC4C2817D06828B8
:102EA0000DD06A2814D104E0742810D07A280FD1EC
:102EB0000DE044F400140AE044F4801401E044F40A
:102EC00040147278824202D104F58014761C761C7C
:102ED000307866280BD013DC582877D009DC00281E
:102EE00075D04528F6D04628F4D047281AD19DE160
:102EF00018E0632835D0642879D0652812D195E18F
:102F0000702873D008DC6728F1D069286FD06E284C
:102F10000DD06F2806D1B5E073282CD0752875D058
:102F2000782874D05A46179990476D1C75E1C4F300
:102F30000250022809D003280DD0D9F80010042827
:102F40000DD00D6009F1040967E1D9F80010EA1706
:102F5000C1E90052F6E7D9F800100D80F2E70D70D4
:102F6000F0E719F8041B8DF8001000208DF801001F
:102F7000EA46012003E059F804AB4FF0FF30610747
:102F80004FF0000102D40DE008F101018846B9427A
:102F90000FDA8045F8DB1AF808100029F4D108E0B0
:102FA00008F1010188468142FADB1AF8081000296D
:102FB000F6D105985B46A0EB080721463846179ADC
:102FC00000F094FA284400EB080507E04DE029E101
:102FD0000DE01AF8010B5A4617999047B8F101080D
:102FE000F7D25B4621463846179A13E142E00A229F
:102FF0000092C4F302524FF0000A022A08D059F896
:1030000004CB032A4FEAEC710AD00DE029E02AE054
:1030100009F1070121F00702F2E802C1914609E037
:103020000FFA8CFC4FEAEC71042A03D14FFA8CFCA6
:103030004FEAEC71002907DA0A460021DCF1000CA6
:1030400061EB02012D2202E0220504D52B228DF82E
:103050000420012203E0E20701D02022F7E7904696
:1030600059E00A2102E010220DE010214FF0000A81
:1030700000910BE010224FF0000A44F004040827EE
:10308000009203E008224FF0000A0092C4F30252BB
:10309000022A05D059F804CB0021032A08D009E000
:1030A00009F1070121F00702F2E802C1914605E0AB
:1030B0001FFA8CFC042A01D10CF0FF0C4FF0000821
:1030C000220728D5702806D0009B83F0100353EA0E
:1030D0000A0305D00EE040228DF80420012208E00A
:1030E0005CEA010206D030228DF804208DF805003C
:1030F00002229046009B83F0080353EA0A030AD198
:103100005CEA010201D1620705D530228DF8042066
:103110004FF001087F1E582804D034A003900EA859
:1031200002900DE036A0F9E753466046009AFDF79D
:1031300025FB84460398825C0298401E0290027030
:103140005CEA0100F0D1029806A9081A00F1200AF1
:10315000600702D524F4803400E00127574502DDE2
:10316000A7EB0A0000E0002000EB0A0100900598A0
:103170004144401A0590E00306D45B462146179A65
:10318000059800F0B3F90544002706E001A85A4667
:10319000C05D179990476D1C7F1C4745F6DBE00327
:1031A0000CD55B462146179A059800F09FF9054417
:1031B00004E030205A46179990476D1C0099481E2C
:1031C00000900029F5DC08E0029802995A46007840
:1031D000491C0291179990476D1CBAF10001AAF1A0
:1031E000010AF1DC65E100000928010030313233C9
:1031F0003435363738396162636465660000000033
:10320000303132333435363738394142434445461C
:103210000000000000F058F90544761C30780028C2
:103220007FF4ECAD19B02846BDE8F08F620700D4FA
:10323000062709F1070222F0070CFCE80223E14609
:1032400003F000485FEA080C02D00FF2702C0DE08A
:103250005FEA045C02D50FF2682C07E05FEAC47CE9
:1032600002D00FF2602C01E0AFF2700C4FF0FF388B
:1032700023F00043CDF850C065280CD006DC45286B
:1032800009D046281DD047283DD13DE0662818D0FA
:1032900067287ED138E00021112F01DB112000E0EA
:1032A000781CCDE9000106A90EA8FFF7DDFCDDE9D9
:1032B0000F010E9A03910021009207F1010A049177
:1032C0004DE04FF000400097CDE9011006A90EA88F
:1032D000FFF7CAFCDDE90F0203920E9B1199002251
:1032E000DDF80CA00093049211B9791C00EB010ADF
:1032F000B7EB0A0004D4C0F1FF3007F1010A0490D3
:10330000AAEB0700019044E0012F00DA0127002119
:10331000112F01DD112000E03846CDE9000106A99A
:103320000EA8FFF7A1FCDDE90F010E9A0391002121
:1033300004910092BA4621070CD40399514500DA52
:103340008A46BAF1010F05DD009AAAF10101515C2C
:10335000302908D0B84202DA10F1040F06DA012150
:10336000CDE9011015E0AAF10101E9E7002805DC2B
:10337000049901440491AAEB000102E0411C51456B
:1033800000DD8A460499401A401C01904FF000402D
:103390000290200704D40198504501DBCDF8048049
:1033A00000208DF84F0002980DF14F07B0F1004F4B
:1033B00025D02B200E9002984FF0020800280CDA3E
:1033C000404202902D200E9007E00A210298FDF75E
:1033D000BFF93031029007F8011DB8F10001A8F1E2
:1033E0000108F2DC02980028EFD1791E0E980870CF
:1033F000307800F0200040F0450007F8020D12A8D8
:10340000C01B00F107081498007800B1012000EB00
:103410000A01019801EBE07105984144401A401EF1
:103420000590E00306D45B462146179A059800F004
:103430005DF805441498007818B15A4617999047DA
:103440006D1CE00324D55B462146179A059800F0D1
:103450004DF805441CE00498002807DBDDE9030172
:10346000884203DD0098405C179901E017993020ED
:103470005A469047049805F10105401C04900198B4
:10348000401E019004D12E205A46179990476D1C7A
:10349000BAF10001AAF1010ADDDC05E017F8010B21
:1034A0005A46179990476D1CB8F10001A8F1010820
:1034B000F4DC5B462146179A0598ABE62D00000028
:1034C0002B000000200000002DE9F04104460025FB
:1034D0001E461746880404D405E039462020B0472C
:1034E0006D1C641EF9D52846BDE8F0812DE9F04138
:1034F000044600251E469046C80301D5302700E04B
:103500002027880404D505E041463846B0476D1CA5
:10351000641EF9D52846BDE8F08170B504460D4615
:10352000E0B2FFF7EDF9204670BD00001CB54FF486
:10353000A060FEF7E1FC00222C21052001F05AF9E1
:103540003F49086003220021012001F053F93D4961
:10355000086001F079F83C490860FFF777F9FFF758
:1035600075F8FEF781F8FEF78BFBFDF78BFEFEF793
:10357000B7F9FEF7D1FBFEF783FFFDF773FCFDF70C
:103580002FFCFEF7E5FD3148012100238022CDE923
:1035900000102FA1304801F00DFC04462F480321F4
:1035A00000238022CDE900102DA12E4801F002FC5D
:1035B00004462D48032100234FF48072CDE900100A
:1035C0002AA12C4801F0F6FB04462B4802210023D7
:1035D0008022CDE9001029A1294801F0EBFB044627
:1035E0002848022100238022CDE9001026A1284886
:1035F00001F0E0FB04462748022100238022CDE9A8
:10360000001025A1264801F0D5FB044625480221DB
:1036100000230A02CDE9001023A1244801F0CAFBCF
:103620000446234804210023CA01CDE9001021A14A
:10363000214801F0BFFB044600F076FF00201CBDCE
:10364000400000204400002048000020140000201A
:103650006C65643100000000351C00082400002067
:103660006B6579006D1700082C00002064687431C8
:103670003100000039120008300000206B716D002D
:10368000E9170008340000206C69676874000000C6
:10369000D11C000838000020626831373530000046
:1036A000E90E0008280000207274630079220008E7
:1036B0003C0000206C636400BD1A00082DE9F04155
:1036C00005460E461C4807681C480068001D00F0AF
:1036D00053FD50B91948006890F82C10012088401B
:1036E00017490968814316480160681C38B936B12A
:1036F00012480168091D134800F08CFD1AE07C197E
:103700000E4800684460BC4207D20C480168091D9D
:103710000D48006800F064FD0CE008480168091DD0
:103720000A48006800F05CFD09480068844201D244
:1037300007480460BDE8F0812C0300201803002036
:1037400030030020B0050020200300201C030020CF
:103750004803002010B5044600F068FD23480068C7
:10376000401C224908602248006840B92048046093
:103770000846006801280DD100F0C8F90AE01D488C
:10378000006838B91A480068C06AE16A884201D8FE
:103790001748046018480068401C1749086094F8EE
:1037A0002C10012088401549096808431349086016
:1037B000E16A01EB8101124A02EB8100211D00F058
:1037C00029FD00F045FD0B48006868B10848006815
:1037D000C06AE16A884207D24FF080500949086008
:1037E000BFF34F8FBFF36F8F10BD00002803002081
:1037F000180300203403002044030020300300207D
:10380000FC04002004ED00E010B500F00FFD1048AE
:103810000068D0B90F4800F0D3FC0F4800F0D0FC8E
:103820000C480E4908600C480D4908600022102120
:103830000A2000F0DFFF064908600846006820B152
:1038400008A10348006800F043FD00F001FD10BD31
:103850005C030020C4050020D8050020540300208C
:1038600058030020546D72510000000010B516E09E
:1038700000F0DCFC0C48C068C468201D00F07CFC33
:103880000A480068401E0949086009480068401E4F
:103890000749086000F0DCFC204600F05FF80448AF
:1038A00000680028E4D110BD9C05002028030020FA
:1038B0002403002070B504460D46206C70B1216CC5
:1038C000E0680144E160D4E90210884201D3216834
:1038D000E1602846226CE168FCF7DCFC70BD2DE954
:1038E000F04104460F4615464FF00008A66B206CC9
:1038F00048B9206800282CD1A06801F02FFB804631
:103900000020A06025E07DB93946226C6068FCF794
:10391000C1FC216C606808446060D4E90101884200
:1039200017D32068606014E03946226CE068FCF729
:10393000B1FC216CE068411AE1602168E0688842CE
:1039400003D2216CA068411AE160022D01D106B1B9
:10395000761E701CA0634046BDE8F08110B5044699
:10396000206B00F085FC204600F082FC10BD014673
:103970004A6A22B10A6B1268C2F1050000E0002019
:10398000704700000146084A126812680AB901220D
:1039900000E000220A600A6822B9034A1268D2686D
:1039A000106800E0002070475403002030B54FF449
:1039B0008843174800F007042CB1C01D20F0070011
:1039C000134C041B1B1B0246124C22600024114D99
:1039D0006C60D018083820F007000F4C20600024DD
:1039E0000D4D2D686C600C4D2D682C601146441AED
:1039F0004C60094C24680C60084D4C682C60084DE4
:103A00004C682C604FF00044064D2C6030BD000027
:103A1000EC050020680300207003002078030020DC
:103A2000740300207C03002000BFFFF71FFF06483F
:103A300000680128F9D94FF0805004490860BFF3AD
:103A40004F8FBFF36F8FF0E7FC04002004ED00E020
:103A50002DE9F04106460D4617469846069C0DB9DD
:103A6000246000E02760E66325640121204600F021
:103A7000DFFE0020A064BDE8F0812DE9FF5F8046F5
:103A80000E469146DDE90E7A109CA9F10100216BEA
:103A900001EB800B2BF0070B86B1002507E0715D71
:103AA00004F134004155705D00B902E06D1C102D29
:103AB000F5D300BF00214320015502E0002084F827
:103AC0003400052F00D30427E76267640020A06458
:103AD000201D00F082FB04F1180000F07EFB246141
:103AE000C7F10500A06164620020E06484F8500022
:103AF00041465846039A00F02DFB2060BAF1000FB2
:103B000001D0CAF80040BDE8FF9F000010B50024B6
:103B100007E004EB84010F4A02EB810000F050FB48
:103B2000641C052CF5D30C4800F04AFB0B4800F050
:103B300047FB0B4800F044FB0A4800F041FB0A48F1
:103B400000F03EFB04480949086004480849086041
:103B500010BD0000FC04002060050020740500205A
:103B6000880500209C050020B00500201C030020D3
:103B70002003002010B50146164800E000680368E5
:103B80008B42FBD30246436813448B4204D1436803
:103B90004C682344436001460A464B68134404685A
:103BA000A34211D10C4C03682468A34208D04B688F
:103BB0000468646823444B6003681B680B6005E07D
:103BC000054B1B680B6001E003680B60884200D066
:103BD000016010BD68030020700300202DE9F04152
:103BE00004460D4616461F464FF0000865602461E6
:103BF000B5420CD8F01BA169884202D34FF00108EE
:103C000011E0211D0948006800F0EAFA0BE0BE420D
:103C100004D2BD4202D34FF0010804E0211D044844
:103C2000006800F0DDFA4046BDE8F081580300204E
:103C30005403002070B5054600F0F8FAA86B08B9E7
:103C4000012400E0002400F003FB204670BD70B5A5
:103C5000054600F0EBFAA86BE96B884201D101241C
:103C600000E0002400F0F4FA204670BD2DE9F34195
:103C70000D460098846C0027A06BE16B88421BD234
:103C800094F945602A4669462046FFF728FE074614
:103C9000701C60B9606A08B9012000E0002050B9CA
:103CA00004F1240001F000FA28B1012703E0701CA0
:103CB00040B284F8450000BF3846BDE8FC810000F2
:103CC000F8B505460E4614480068C068C468201D53
:103CD00000F052FA94F8240000F0040088B1A069C2
:103CE00041192B4632462046FFF778FF78B1002075
:103CF00003462A4601460090204601F0A7FA0746EF
:103D000005E094F8240020F0010084F82400204607
:103D1000216A8847F8BD000054030020F0B587B041
:103D200076E00398002805DA04AED6E90020B168F1
:103D3000904700BF039800286ADB059C606908B9BA
:103D4000012000E0002010B9201D00F015FA02A8A3
:103D500000F0BEF8054603980A2857D2DFE800F0C5
:103D60000905072D354606082E3600BF00BF00BFE7
:103D700000BF94F8240040F0010084F82400049867
:103D8000A269811803462A462046FFF727FF98B10B
:103D90002046216A884794F8240000F0040058B1B6
:103DA000002000900498A16942180023194620467B
:103DB00001F04CFA074600BF29E000BF94F8240048
:103DC00020F0010084F8240021E000BF94F82400D2
:103DD00040F0010084F824000498A061A069411912
:103DE0002B462A462046FFF7F9FE10E094F82400FF
:103DF00000F0020018B9204600F03AFA05E094F805
:103E0000240020F0010084F8240000E000BF00BF7F
:103E1000002203A90348006800F084FE002880D136
:103E200007B0F0BD5C030020F8B505460C4600F075
:103E3000B3FB684600F04CF80646009820BB44B936
:103E4000B54206D801F070F931462846FFF738FF31
:103E50001CE03CB10E480068006808B9012000E091
:103E600000200446A91B22460A48006800F046FAD2
:103E700001F05AF950B94FF0805007490860BFF37C
:103E80004F8FBFF36F8F01E001F04EF9F8BD0000D6
:103E9000580300205C03002004ED00E00A49096893
:103EA000096809B9012100E0002121B14FF0FF317B
:103EB000064A116006E004490968C968C868034AEF
:103EC00041681160704700001C0300204803002077
:103ED00070B5044600F0AEFF05460748006885420D
:103EE00004D200F00BF80120206001E000202060E7
:103EF00001480560284670BD640300202DE9F843A1
:103F000028E01E480068C06805681C480068C06852
:103F1000C468201D00F030F92046216A884794F8D3
:103F2000240000F00400A8B1A0694619AE4207D9E8
:103F300066602461211D1148006800F051F909E014
:103F4000002003462A4601460090204601F07EF9F3
:103F5000804600BF09480068006808B9012000E0F9
:103F600000200028CDD005480768054800680349AF
:103F7000086003480760BDE8F88300005403002090
:103F80005803002000BFBF2080F31188BFF34F8F7C
:103F9000BFF36F8F00BF00BFFEE710B503460020E0
:103FA00022B903EA010434B1012004E003EA010468
:103FB0008C4200D1012010BD08B500BF6846FFF754
:103FC000E1FC044620460099FFF72EFFFFF7A6FE0E
:103FD000F4E770B5044600F029F994F945501AE069
:103FE000A06C38B100212046FFF740FE88B100F0F8
:103FF000D1F90EE0606A08B9012000E0002038B96C
:1040000004F1240001F050F818B100F0C3F900E009
:1040100003E0681E45B2002DE2DC00BFFF2084F8FB
:10402000450000F015F900F001F994F9445010E052
:10403000206908B9012000E0002048B904F110000F
:1040400001F032F808B100F0A5F9681E45B200E0B1
:1040500001E0002DECDC00BFFF2084F8440000F0FC
:10406000F7F870BD2DE9F04105464FF0000800F06B
:1040700093FA2B48006808B9FFF798FC29480068B4
:104080002840002847D145B1083505F0070020B188
:1040900005F00700C0F108000544002D3BD0224880
:1040A0000068854237D8214E3046046801E0264634
:1040B00024686068A84202D220680028F7D1184816
:1040C0000068844227D0306800F10808206830601A
:1040D0006068401B102807D967196068401B78602A
:1040E00065603846FFF746FD0F4960680968081AA1
:1040F0000D490860084600680D490968884203D2E6
:10410000094800680A490860064960680968084368
:1041100060600020206001F007F84046BDE8F081B3
:10412000700300207C03002074030020680300203B
:10413000780300200648006830B10549096801F19C
:104140004800896C491C0160014800687047000004
:1041500018030020001F4FF080730360001F21F040
:1041600001030360001F034B036014380260203812
:1041700070470000853F000801460A69D1E9013017
:104180009860D1E9010358605068884201D188687D
:104190005060002008611068401E10601068704771
:1041A00005490968886904490968C96AC1F10501B6
:1041B000014A1268916170471803002000BFFEE7B2
:1041C00000F1080141604FF0FF31816000F108010A
:1041D000C1600161002101607047002101617047E9
:1041E00010B502460B685C1C0CB9106907E002F1BF
:1041F000080000E04068446824689C42FAD944689A
:104200004C604C68A160886041600A611468641C5D
:10421000146010BD42684A6093688B60936859606F
:104220009160086103685B1C0360704700BFBF209A
:1042300080F31188BFF34F8FBFF36F8F00BF034828
:104240000068401C0149086070470000800300209E
:1042500006480068401E054908600846006820B905
:10426000002080F3118800BF00BF7047800300204A
:1042700070B506463546D6B1083D2C460C496068F7
:104280000968084098B1206888B9094960680968D8
:104290008843606000F080F9064960680968084456
:1042A000044908602046FFF765FC00F03DFF70BD43
:1042B0007C0300207403002000204FF0E0210861FF
:1042C0008861024848610720086170473F19010072
:1042D000024600200BE0084B53F8303033B9064B50
:1042E00043F8301003EBC0035A6002E0401C0A2878
:1042F000F1D300BF70470000AC0400202DE9F0416D
:1043000005460E4617462C46FFF790FF94F94400E9
:10431000401C10B9002084F8440094F94500401C6A
:1043200010B9002084F84500FFF792FFA06B28B970
:104330003A46314604F1240000F042F82046FFF7E7
:1043400048FEBDE8F081000070B50446002544B188
:1043500000F022F900212046FFF7B0F900F0E4FE5A
:1043600005463DB94FF0805003490860BFF34F8FB9
:10437000BFF36F8F70BD000004ED00E003490968D2
:104380000160034909684160704700004003002054
:104390002C03002001200149086070473C030020E5
:1043A00070B505460C460548016818312846FFF7E8
:1043B00017FF01212046FFF781F970BD1803002087
:1043C00070B506460D461446064801681831304659
:1043D000FFF720FF0CB14FF0FF3521462846FFF7CD
:1043E0006DF970BD1803002070B506460C461546E1
:1043F00044F00040064909688861054801681831A1
:104400003046FFF707FF01212846FFF757F970BD37
:10441000180300202DE9F04706460F4634464FF0BA
:104420000109002E47D0606CB84201D23D4600E041
:10443000656CE06AA8423ED0A06C01283BD1D4F85C
:104440002C80E562A06900F0004010B9C5F10500BC
:10445000A06108EB8801194A02EB8101606988427A
:1044600001D1012000E0002028B3201DFFF784FEC9
:1044700078B9E06A00EB8000104951F8200040B99B
:1044800094F82C10012088400D49096881430C489C
:10449000016094F82C1001208840094909680843FC
:1044A00007490860E16A01EB8101044A02EB8100DF
:1044B000211DFFF7AFFEBDE8F0870000FC040020DF
:1044C0003003002070B505460E4646F000402860D7
:1044D000EC682846FFF750FE201DFFF74DFE94F8CC
:1044E0002C10012088400C49096808430A490860DB
:1044F000E16A01EB8101094A02EB8100211DFFF70E
:1045000089FE0749E06A0968C96A884202D9012020
:104510000449086070BD000030030020FC04002046
:10452000180300203C0300201CB5144800210B4652
:104530008022CDE9001012A1134800F03BFC044694
:10454000012C02D100F064FE0446012C14D100BFFE
:10455000BF2080F31188BFF34F8FBFF36F8F00BF71
:104560004FF0FF3009490860012009490860002028
:104570000849086000F024F91CBD00004C0300202D
:1045800049444C4500000000293A00084803002037
:10459000340300202C03002002480068401C01491D
:1045A000086070475003002010B51A48006818B121
:1045B0000120194908602BE00020174908601748BE
:1045C0000068006815490968096B884205D81348D6
:1045D000016834310068FFF7F1FD11480068B0FA56
:1045E00080F0C0F11F0101EB81020E4B03EB820052
:1045F00042685268426000F108024368934202D167
:104600004268526842604268D268044B1A6000BF38
:1046100010BD0000500300203C03002018030020C0
:1046200030030020FC0400202DE9F04104460E4632
:104630002546FFF7FBFD2F682868B0432860FFF789
:1046400007FE3846BDE8F08110B51820FFF70AFDD7
:10465000044624B100202060201DFFF7B1FD204654
:1046600010BD2DE9FE4F06468946002001903446D4
:10467000009004F1040B0BF108000290FFF78CFF8F
:10468000DBF80C70206840EA0900206026E0D7F8CB
:1046900004A03D680020009005F07F4825F07F458C
:1046A00008F0806028B92068284040B101200090BF
:1046B00005E020682840A84201D101200090009820
:1046C00058B108F0807010B101982843019020681B
:1046D00040F000713846FFF7F5FE574602988742D2
:1046E000D5D1206801998843206000F01DFD206825
:1046F000BDE8FE8F2DE9FF5F80460E4617469946BE
:10470000DDF838A044464FF0000B00200190FFF781
:1047100043FF206800904A4631460098FFF73DFC71
:104720000390039830B1009DDA46CFB12068B043C2
:10473000206015E0BAF1000F03D1009D0120019027
:104740000EE00FB14BF0807BB9F1000F01D04BF0C0
:10475000806B46EA0B015246201DFFF745FE0025FF
:1047600000F0E2FC0290BAF1000F22D0029838B9B2
:104770004FF0805011490860BFF34F8FBFF36F8F28
:10478000FFF70EFD054605F0007080B9FFF74EFDFE
:1047900025684A4631462846FFF7FFFB18B117B196
:1047A0002068B043206001200190FFF751FD25F003
:1047B0007F45284604B0BDE8F09F000004ED00E00E
:1047C00010B50A48006840F47F00084908600846B0
:1047D000006840F07F400860FFF76EFD002004494C
:1047E0000860FBF7C1FC002010BD000020ED00E0D8
:1047F000800300202DE9F84307460D4690460DB989
:10480000002601E007FB05F606F14C00FFF72AFC45
:1048100004464CB1A14609F14C0943464A46294693
:1048200038460094FFF714F92046BDE8F8830000ED
:1048300070B505460E462C46FFF7F8FCD4E90F127A
:10484000206801FB0200A0600020A0632068606077
:10485000E06B401E226C216800FB0211E160FF202A
:1048600084F8440084F845009EB9206908B9012005
:1048700000E00020A8B904F1100000F015FC80B1A0
:104880004FF0805009490860BFF34F8FBFF36F8F1F
:1048900007E004F11000FFF793FC04F12400FFF798
:1048A0008FFCFFF7D5FC012070BD000004ED00E097
:1048B0002DE9FF4782B0074688461D464FF00009A4
:1048C0003C4600BFFFF7B2FCA06BE16B884201D30E
:1048D000022D3FD1D4F838A02A4641462046FEF7A3
:1048E000FEFF0646A06C90B1022D02D1BAF1000F76
:1048F0002AD129462046FFF7B9F928B34FF0805056
:104900003C490860BFF34F8FBFF36F8F1CE0606AB4
:1049100008B9012000E0002068B904F1240000F08B
:10492000C3FB88B14FF0805032490860BFF34F8F0E
:10493000BFF36F8F08E03EB14FF080502D49086003
:10494000BFF34F8FBFF36F8FFFF782FC012006B0DC
:10495000BDE8F087049818B9FFF77AFC0020F6E765
:10496000B9F1000F04D16846FFF708FD4FF00109C7
:10497000FFF76EFCFFF710FEFFF758FC94F94400B8
:10498000401C10B9002084F8440094F94500401CF4
:1049900010B9002084F84500FFF75AFC04A96846C6
:1049A00000F0DAF9F8B92046FFF751F9A8B104F19F
:1049B00010000499FFF7F4FC2046FFF70AFB00F013
:1049C000B3FB00287FF47EAF4FF0805009490860A8
:1049D000BFF34F8FBFF36F8F74E72046FFF7F9FAED
:1049E00000F0A2FB6EE72046FFF7F3FA00F09CFB15
:1049F0000020ACE704ED00E02DE9F05F06468A46B2
:104A000015461F46344600BFBF21EFF3118081F3E6
:104A10001188BFF34F8FBFF36F8F00BF8146A06B2C
:104A2000E16B884201D3022F2BD194F945B03A466D
:104A300051462046FEF753FF0BF10100C8B9A06CA8
:104A400040B139462046FFF711F9B8B1B5B10120A0
:104A5000286013E0606A08B9012000E0002068B90E
:104A600004F1240000F020FB40B13DB1012028609A
:104A700004E00BF1010040B284F845004FF001085A
:104A800001E04FF0000800BF89F3118800BF4046E5
:104A9000BDE8F09F2DE9F04706460D46344600BFBD
:104AA000BF21EFF3118081F31188BFF34F8FBFF364
:104AB0006F8F00BF8046D4F83890E06B484528D906
:104AC00094F945A009F10100A0630AF10100C8B9F9
:104AD000A06C40B100212046FFF7C8F8B8B1B5B1CD
:104AE0000120286013E0606A08B9012000E000207E
:104AF00068B904F1240000F0D7FA40B13DB10120BB
:104B0000286004E00AF1010040B284F84500012762
:104B100000E0002700BF88F3118800BF3846BDE8D9
:104B2000F08700002DE9F74183B005460F464FF0AE
:104B300000082C4600BFFFF779FBA66BF6B139469B
:104B40002046FEF7B7FE701EA063206908B9012059
:104B500000E0002060B904F1100000F0A5FA38B1BF
:104B60004FF080502F490860BFF34F8FBFF36F8F16
:104B7000FFF76EFB012006B0BDE8F081059818B97B
:104B8000FFF766FB0020F6E7B8F1000F04D101A89B
:104B9000FFF7F4FB4FF00108FFF75AFBFFF7FCFCAF
:104BA000FFF744FB94F94400401C10B9002084F83E
:104BB000440094F94500401C10B9002084F84500D9
:104BC000FFF746FB05A901A800F0C6F8F0B920469A
:104BD000FFF730F8A0B104F124000599FFF7E0FBDE
:104BE0002046FFF7F6F900F09FFA0028A3D14FF016
:104BF00080500C490860BFF34F8FBFF36F8F9AE767
:104C00002046FFF7E6F900F08FFA94E72046FFF719
:104C1000E0F900F089FA2046FFF70CF800288AD066
:104C20000020A8E704ED00E02DE9F34182B005463D
:104C300000272C46B84600BFFFF7F8FAA66BFEB176
:104C4000701EA063206810B9FFF774FAA060206995
:104C500008B9012000E0002060B904F1100000F064
:104C600023FA38B14FF080503A490860BFF34F8FB4
:104C7000BFF36F8FFFF7ECFA012004B0BDE8F081BD
:104C8000039818B9FFF7E4FA0020F6E71FB9684661
:104C9000FFF774FB0127FFF7DBFAFFF77DFCFFF757
:104CA000C5FA94F94400401C10B9002084F844006F
:104CB00094F94500401C10B9002084F84500FFF726
:104CC000C7FA03A9684600F047F840BB2046FEF744
:104CD000B1FFF0B1206838B9FFF7A8FAA06800F07A
:104CE0007FF98046FFF7B4FA04F124000399FFF737
:104CF00057FB2046FFF76DF900F016FA00289BD10C
:104D00004FF0805013490860BFF34F8FBFF36F8F90
:104D100092E72046FFF75DF900F006FA8CE720469F
:104D2000FFF757F900F000FA2046FEF783FF00284E
:104D300082D0B8F1000F0BD0FFF778FA2046FEF7CB
:104D400016FE06463146A068FFF764FBFFF780FABF
:104D5000002092E704ED00E070B506460C46FFF730
:104D600065FA124802687068131A2068401C08B976
:104D7000002517E00E4930680968884204D0706841
:104D8000904201D801250DE02068984207D920689B
:104D9000C01A20603046FFF7F1FA002502E000203B
:104DA00020600125FFF754FA284670BD2C0300202F
:104DB000400300202DE9FF4F85B080468946174605
:104DC000DDE912ABB800FFF74DF9064656B15420A5
:104DD000FFF748F904460CB1266304E03046FFF7BC
:104DE00047FA00E000247CB10020CDE900ABCDE91A
:104DF00002403A4649464046089BFEF73EFE2046A2
:104E0000FEF7A8FC012501E04FF0FF35284609B068
:104E1000BDE8F08F0549096809B9012005E004499A
:104E2000096809B9022000E000207047340300201F
:104E30005003002001490868704700002C0300203F
:104E40002DE9F04100273A480068002863D139482D
:104E50000068451C374805608DB93748D0F8008098
:104E600036480068344908603448C0F80080344847
:104E70000068401C32490860FFF710F800BF314855
:104E8000006885423BD300BF2B480068006808B922
:104E9000012000E0002020B14FF0FF3029490860D8
:104EA0002CE025480068C068C4686668B54202D234
:104EB0002448066022E0201DFFF75EF9A06A18B1C1
:104EC00004F11800FFF758F994F82C1001208840DD
:104ED0001D49096808431C490860E16A01EB81012A
:104EE0001A4A02EB8100211DFFF794F91849E06A84
:104EF0000968C96A8842C7D30127C5E700BF1448BB
:104F00000068C06A00EB8000104951F820000128B9
:104F100000D9012704E00F480068401C0D490860D3
:104F20000D48006800B101273846BDE8F081000057
:104F3000500300202C0300201C030020200300202D
:104F4000400300204803002030030020FC04002020
:104F500018030020380300203C03002070B50546EC
:104F60002C460026ADB3A06C401EA064616CE06AC4
:104F700088422ED0A06C60BB201DFFF7FDF878B9E9
:104F8000E06A00EB8000144951F8200040B994F821
:104F90002C10012088401149096881430F480160A5
:104FA000606CE062E06AC0F10500A06194F82C102A
:104FB0000120884009490968084308490860E16AF6
:104FC00001EB8101044A02EB8100211DFFF722F968
:104FD0000126304670BD0000FC0400203003002094
:104FE00070B505462C460026002D54D02B49E06AAA
:104FF0000968C96A884247D2A06900F0004028B910
:1050000026480068C06AC0F10500A061E16A01EBB2
:105010008101234A02EB81016069884201D10120AC
:1050200000E0002050B3201DFFF7A6F878B9E06A31
:1050300000EB80001A4951F8200040B994F82C1078
:1050400001208840174909688143164801601348C8
:105050000068C06AE06294F82C1001208840114971
:10506000096808430F490860E16A01EB81010C4AB5
:1050700002EB8100211DFFF7CDF803E0074800682F
:10508000C06AE062012606E00449606C0968C96AEA
:10509000884200D20126304670BD0000180300206F
:1050A000FC0400203003002070B50646F068C46898
:1050B00004F11800FFF760F815480068A8B9201D32
:1050C000FFF75AF894F82C1001208840114909681C
:1050D000084310490860E16A01EB81010E4A02EBC6
:1050E0008100211DFFF796F804E004F118010B4838
:1050F000FFF790F80A49E06A0968C96A884204D94A
:10510000012501200749086000E00025284670BD00
:105110005003002030030020FC04002088050020FC
:10512000180300203C03002070B500240026FFF780
:105130007DF82E480068401E2C490860084600682B
:1051400000284FD12A48006800284BD024E0294885
:10515000C068C46804F11800FFF70EF8201DFFF7BF
:105160000BF894F82C100120884023490968084363
:1051700021490860E16A01EB8101204A02EB8100CC
:10518000211DFFF747F81E49E06A0968C96A88428D
:1051900002D301201B4908601648006808B90120A5
:1051A00000E000200028D2D00CB1FEF777FE1648B0
:1051B000056865B100BFFFF743FE10B1012011493A
:1051C00008606D1E002DF6D100200F4908600D48C3
:1051D000006838B1012630070C490860BFF34F8FD3
:1051E000BFF36F8FFFF734F8304670BD50030020D7
:1051F000280300208805002030030020FC04002044
:10520000180300203C0300203803002004ED00E0D8
:105210001CB50024FEF7F8FA0748006850B10748AB
:10522000042100238A01CDE9001005A10648FFF7FB
:10523000C1FD044620461CBD5C0300206003002025
:10524000546D722053766300B93F00082DE9FF4783
:1052500005460C4616461F46DDF830804FF0000923
:105260001448006810B3009401960295062C15DAD4
:10527000FFF7D0FD022808D10023424669460D48B9
:105280000068FFF715FB814610E000231A466946C7
:1052900008480068FFF70CFB814607E000233A4608
:1052A000694604480068FFF7A7FB8146484604B0FA
:1052B000BDE8F0875C0300201F1D1F1E1F1E1F1F5F
:1052C0001E1F1E1FE452000800000020880300007B
:1052D000BC090008345300088803002090660000D1
:1052E000582C0008412D010203040400094506075B
:1052F00008090204060815080140014401010225BD
:10530000100140105B03040C22205B05060C2240B8
:105310000A1E07710231580009FF31323334353625
:10532000373801FF012F330201231E462908016887
:045330001AAA014173
:0400000508000131BD
:00000001FF
