:020000040800F2
:10000000A0B70020DD010008DF510008D10F000873
:10001000DB510008530900086F5B00080000000076
:100020000000000000000000000000004501000882
:1000300057090008000000008901000881540008E9
:10004000F7010008F7010008F7010008F7010008B0
:10005000F7010008F7010008F7010008F7010008A0
:10006000F7010008F7010008F7010008F701000890
:10007000F7010008F7010008F7010008F701000880
:10008000F7010008F7010008F7010008F701000870
:10009000F7010008F7010008F7010008F701000860
:1000A000F7010008F7010008F7010008F701000850
:1000B000F7010008F7010008F7010008F701000840
:1000C000F7010008F7010008F7010008F701000830
:1000D000F7010008115700087D5800081159000861
:1000E000F7010008F7010008F7010008F701000810
:1000F000F7010008F7010008F7010008F701000800
:10010000F7010008F7010008F7010008F7010008EF
:10011000F7010008A156000815550008F70100086E
:10012000F7010008F7010008F7010008F7010008CF
:10013000DFF80CD000F0D0FB00480047BDDA010822
:10014000A0B70020224B19680868B0E8F00F80F3D0
:100150000988BFF36F8F4FF0000080F311884EF0D5
:100160000D0E70470000000006480068006880F32C
:10017000088862B661B6BFF34F8FBFF36F8F00DFA1
:1001800000BF00BF08ED00E0EFF30980BFF36F8F01
:100190000F4B1A6820E9F00F106008B54FF0BF0050
:1001A00080F31188BFF34F8FBFF36F8F24F024F8D3
:1001B0004FF0000080F31188BDE808401968086816
:1001C000B0E8F00F80F30988BFF36F8F704700BF6E
:1001D00030030020EFF30580704700000648804799
:1001E00006480047FEE7FEE7FEE7FEE7FEE7FEE71C
:1001F000FEE7FEE7FEE7FEE7B55400083101000820
:100200002DE9F05F0546002092469B46884606464B
:10021000814640241BE0284641464746224600F0DE
:100220008CFA53465A46C01A914110D311461846CB
:10023000224600F073FA2D1A67EB01084F4622465A
:100240000120002100F06AFA17EB00094E41201E40
:10025000A4F10104DFDC484631462A464346BDE8A6
:10026000F09F40EA01039B0703D009E008C9121F71
:1002700008C0042AFAD203E011F8013B00F8013B60
:10028000521EF9D27047D2B201E000F8012B491E8C
:10029000FBD270470022F6E710B513460A46044623
:1002A0001946FFF7F0FF204610BD421C10F8011B55
:1002B0000029FBD1801A704710B5002200E0521CC3
:1002C000835C8C5CA34201D1002BF8D1D8B2E1B29F
:1002D000401A10BD30B504460020034600E05B1C08
:1002E000934203D2E05CCD5C401BF8D030BD0346A6
:1002F00011F8012B00F8012B002AF9D1184670479C
:100300002DE9FE4F804681EA0300C00F0C460090A5
:1003100021F0004123F00045B8EB0200A94105D2CD
:100320004046214690461C460B46024623F00040BC
:10033000104347D0270DC7F30A00C3F30A510290B8
:10034000401A019040286BDAC3F3130040F4801B7D
:100350000098924620B10023D2EB030A63EB0B0B0B
:1003600001985946C0F14002504600F0D7F90646C0
:100370000D4650465946019A00F0EFF910EB08007F
:100380006141002487EA115284EAE7731A4340D09E
:10039000009A62B3019A012A4FEA075215DC001B4A
:1003A00061EB02014FF0004202EA0752CDE9004240
:1003B000001C41F5801132462B4600F026FA03B0AE
:1003C000BDE8F08F40462146F9E7001B61EB0201D2
:1003D000001C41F5801300185B412018A2F500179E
:1003E00047EB030140EAD570B6196D4111E06D0885
:1003F0004FEA360645EAC0754FEA0752001B61EB2B
:100400000201001C41F5801149084FEA3000001933
:10041000514132462B4603B0BDE8F04F00F0E6B93B
:100420000098012240000023D0EB020263EBE0734E
:10043000009821464FEAE074B8EB000061EB04013C
:10044000E9E783F000435BE781F0004158E72DE9DD
:10045000FE4F81EA030404F0004421F000410094BF
:100460004FF0000B23F0004350EA01045ED052EA43
:1004700003045BD0C3F30A54C1F30A552C44A4F21D
:10048000F3340194A0FB0254C1F3130141F4801131
:10049000C3F3130343F4801301FB024400FB034E38
:1004A000840A970A44EA815447EA8357A4FB076801
:1004B00002958D0A05FB07854FEA932C04FB0C542B
:1004C0002705029D4FEA065847EA1637B5EB08059F
:1004D0006EEB070C870E920E47EA811742EA8312F1
:1004E000A7FB0201B6EB0B0164EB00042B0D43EA02
:1004F0000C335E1844EB1C50DA465146E7FB020110
:10050000C5F313044FEA0B3343EA14534FEA0432A2
:10051000019C43EA0603A4F10C040294009CCDE97B
:1005200000B400F072F903B0BDE8F08F002001467E
:10053000F9E72DE9F04D81EA030404F0004B21F0C6
:10054000004514464FF0000A23F0004150EA05022E
:1005500020D054EA01021DD0C5F30A570246C5F364
:100560001303C1F31300C1F30A5640F4801543F49A
:100570008013A7EB0608101BD64608F2FD3873EB74
:10058000050002D308F1010801E092185B41B8F1BF
:10059000000F03DA00200146BDE8F08D00204FF483
:1005A0008011064684460EE0171B73EB050705D342
:1005B000121B63EB050306434CEA010C49084FEAA2
:1005C000300092185B4150EA0107EDD152EA030076
:1005D00012D082EA040083EA0501084305D0101B0B
:1005E000AB4106D20122002306E000224FF0004377
:1005F00002E06FF0010253101AEB06004CEB0851B9
:1006000010EB0A0041EB0B01BDE8F04D00F0EEB835
:1006100096230022114600F0BBB80EB5C10F80EA48
:10062000E0700844CA07002140F233438DE80E0011
:100630000A460B4600F0E9F803B000BD0EB540F2E3
:10064000334102910021CDE900110A460B4600F02A
:10065000DCF803B000BDC1F30A5210B5C1F31301B9
:1006600040F2FF3341F480119A4201DA002010BDBC
:1006700040F233439A42A2F2334203DC524200F08A
:100680005CF810BD904010BD30B5041E71F100043F
:1006900004DB4FF00044404264EB0101141E73F18F
:1006A000000405DB1C464FF00043524263EB040399
:1006B000994208BF904230BD01F0004330B421F0B0
:1006C000004150EA010206D00A0DA2F56072C1F3A2
:1006D0001301002A02DC30BC00207047440F44EABA
:1006E000C104C100E01830BC00EBC25000F047B8B4
:1006F00030B50B46014600202022012409E021FAF2
:1007000002F59D4205D303FA02F5491B04FA02F5EE
:100710002844151EA2F10102F1DC30BD202A04DBC1
:10072000203A00FA02F1002070479140C2F1200304
:1007300020FA03F3194390407047202A04DB203A43
:1007400021FA02F00021704721FA02F3D040C2F1F1
:1007500020029140084319467047202A06DBCB1738
:10076000203A41FA02F043EAE07306E041FA02F36C
:10077000D040C2F120029140084319467047002939
:10078000A8BF7047401C490008BF20F00100704717
:1007900010B4B0FA80FC00FA0CF050EA010404BF77
:1007A00010BC704749B1CCF1200421FA04F411FACD
:1007B0000CF118BF012121430843A3EB0C01CB1D11
:1007C0004FEA00614FEA102042BF002010BC704782
:1007D00000EBC35010440029A4BF10BC7047401C5C
:1007E000490008BF20F0010010BC704710B5141E6E
:1007F00073F1000408DA401C41F1000192185B41DA
:100800001A4301D120F0010010BD2DE9F04D9246B0
:100810009B4611B1B1FA81F202E0B0FA80F22032C7
:100820009046FFF77BFF04460F4640EA0A0041EA84
:100830000B0153465A46084313D0114653EA0100B0
:1008400019D0C8F140025046FFF777FF05460E4623
:10085000504659464246FFF761FF084305D0012044
:1008600004E020463946BDE8F08D0020054346EA05
:10087000E0762C4337430A986305E40AA0EB0800AE
:100880000022FD0A44EA47540A3002D500200146FE
:10089000E9E7010510196941DDE9084500196941D9
:1008A000BDE8F04DA2E7C1F30A52C1F3130140F2D3
:1008B000FF3341F480119A4202DA0020014670476A
:1008C00040F233439A42A2F2334202DC5242FFF733
:1008D00034BFFFF723BF0000064C074D06E0E06879
:1008E00040F0010394E8070098471034AC42F6D377
:1008F000FFF722FCECF107080CF2070870B58C1822
:1009000010F8015B15F0070301D110F8013B2A1123
:1009100006D110F8012B03E010F8016B01F8016B10
:100920005B1EF9D12B0705D40023521E0DD401F80C
:10093000013BFAE710F8013BCB1A921C03E013F8D5
:10094000015B01F8015B521EF9D5A142D8D300200A
:1009500070BD00BFFEE77047F0B54FF47A73002614
:100960000446A4FB032701FB037300FB063110467A
:1009700047E000BF00BF00BF00BF00BF00BF00BF17
:1009800000BF00BF00BF00BF00BF00BF00BF00BF6F
:1009900000BF00BF00BF00BF00BF00BF00BF00BF5F
:1009A00000BF00BF00BF00BF00BF00BF00BF00BF4F
:1009B00000BF00BF00BF00BF00BF00BF00BF00BF3F
:1009C00000BF00BF00BF00BF00BF00BF00BF00BF2F
:1009D00000BF00BF00BF00BF00BF00BF00BF00BF1F
:1009E00000BF00BF00BF00BF00BF00BF00BF00BF0F
:1009F00000BF00BF00BF00BF00BF00BF00BF00BFFF
:100A000000BF0A460346401E61F1000100256B400D
:100A10006A401343ADD1F0BD30B547E000BF00BF21
:100A200000BF00BF00BF00BF00BF00BF00BF00BFCE
:100A300000BF00BF00BF00BF00BF00BF00BF00BFBE
:100A400000BF00BF00BF00BF00BF00BF00BF00BFAE
:100A500000BF00BF00BF00BF00BF00BF00BF00BF9E
:100A600000BF00BF00BF00BF00BF00BF00BF00BF8E
:100A700000BF00BF00BF00BF00BF00BF00BF00BF7E
:100A800000BF00BF00BF00BF00BF00BF00BF00BF6E
:100A900000BF00BF00BF00BF00BF00BF00BF00BF5E
:100AA00000BF00BF00BF00BF00BF00BF0A46034633
:100AB000401E61F1000100256B406A401343ADD137
:100AC00030BD00008CB000F025F82C2101A8FFF704
:100AD000E1FB00BF23F03CFA00F034F823F04AFABF
:100AE0000A480068049009484168059101208DF882
:100AF0002E000023821E01A90548006823F0AEFCE9
:100B00004FF4FA6023F0B2FAE4E70000AC000020F2
:100B10004800002008B50121080204F0C3FB0020B2
:100B200000904FF40060ADF8000001208DF8020045
:100B300014208DF803006946014800F0AEF908BDA5
:100B4000002001402DE9F04786B000224FF40061FB
:100B5000864800F038FA19200021FFF7FDFE012237
:100B6000D102824800F02FFA4FF0000A0DE0012078
:100B70000021FFF751FF0AF1010000F0FF0ABAF16E
:100B8000640F02DD06B0BDE8F0874FF400617748DE
:100B900000F00EFA0128EAD04FF0000A0BE0012025
:100BA0000021FFF739FF0AF1010000F0FF0ABAF156
:100BB000640F00DDE6E74FF400616C4800F0F8F9DF
:100BC0000028ECD0002004900590002473E04FF042
:100BD000000A0BE001200021FFF71EFF0AF10100CF
:100BE00000F0FF0ABAF1640F00DDCBE74FF40061BB
:100BF0005E4800F0DDF90128ECD04FF0000A0BE070
:100C000001200021FFF708FF0AF1010000F0FF0AB0
:100C1000BAF1640F00DDB5E74FF40061534800F00E
:100C2000C7F90028ECD028200021FFF7F5FE4FF48B
:100C300000614E4800F0BCF901281DD12046E217A2
:100C400004EB5272D210C2F1040204AB9A5C21464A
:100C5000E31704EB5373DB10A4EBC303C3F10705E5
:100C60000123AB401A43E31704EB5373DB10C3F1CA
:100C7000040304ADEA541CE0E21704EB5272D210F4
:100C8000C2F1040204AB9A5C2146E31704EB5373F0
:100C9000DB10A4EBC303C3F107050123AB409A4368
:100CA0002046E31704EB5373DB10C3F1040304ADD8
:100CB000EA54601CC4B2282C89DB9DF814009DF80E
:100CC000131008449DF8121008449DF811100844B0
:100CD0009DF81010884200D054E79DF8110080283C
:100CE00022DB9DF81110A1F18000FFF796FC8046F1
:100CF0001F4A204BFFF7ABFB04460D469DF8120040
:100D0000FFF79CFC064622462B46FFF7F9FA002225
:100D1000194BCDE90001FFF79AFBCDE90201FFF77E
:100D2000CBFC1649086019E09DF81100FFF786FC1E
:100D300006460F4A0F4BFFF78AFB04460D469DF807
:100D40001200FFF77BFC804622462B46FFF7D8FABD
:100D5000CDE90201FFF7B0FC084908609DF81400D6
:100D6000FFF756FC0549486000BF0BE70020014033
:100D70009A9999999999B93F0000F0BFAC00002069
:100D800051B18200A2F1C042126842F00103820018
:100D9000A2F1C042136009E08200A2F1C0421268D1
:100DA000034B1A408300A3F1C0431A607047000050
:100DB000FEFF0F00D0E901121143C268114302691E
:100DC00011434269114382691143C2691143026AA6
:100DD0001143426A1143826A1143C26A1143026B92
:100DE000114302689200A2F1C04211608168082993
:100DF0000BD101688900A1F1C041096841F04002AE
:100E000001688900A1F1C0410A60416B0968426B29
:100E1000526841EA0211426B926841EA0221426B38
:100E2000928941EA0241426B128A41EA0251426BC5
:100E3000127D41EA0261426B926911430268521CC1
:100E40009200A2F1C0421160C16AB1F5804F1BD17E
:100E5000816B0968826B526841EA0211826B926869
:100E600041EA0221826B128A41EA0251826B127DB1
:100E700041EA0261826B9269114302689200A2F119
:100E8000C042C2F8041107E06FF0704201688900A7
:100E9000A1F1C041C1F8042170472DE9F04102469B
:100EA00000250026002000230024002791F803C01D
:100EB0000CF00F0591F803C00CF0100CBCF1000F02
:100EC00003D091F802C04CEA050591F800C0BCF1CE
:100ED000000F31D0146800202BE04FF0010C0CFA09
:100EE00000F3B1F800C00CEA03069E4220D1830053
:100EF0004FF00F0C0CFA03F7BC4305FA03FC4CEA65
:100F0000040491F803C0BCF1280F06D14FF0010C86
:100F10000CFA00FCC2F814C00AE091F803C0BCF15E
:100F2000480F05D14FF0010C0CFA00FCC2F810C0BC
:100F3000401C0828D1D31460B1F800C0BCF1FF0FE9
:100F400034DD546800202EE000F1080C4FF0010859
:100F500008FA0CF3B1F800C00CEA03069E4221D156
:100F600083004FF00F0C0CFA03F7BC4305FA03FCA7
:100F70004CEA040491F803C0BCF1280F05D100F13C
:100F8000080C08FA0CF8C2F8148091F803C0BCF100
:100F9000480F07D100F1080C4FF0010808FA0CF8CF
:100FA000C2F81080401C0828CED35460BDE8F08100
:100FB0000246002093680B400BB1012000E00020A6
:100FC0007047016170470AB1016100E041617047FB
:100FD00000BFFEE708B50121142004F063F90120E9
:100FE000ADF8000028208DF8030003208DF80200E2
:100FF00069460748FFF751FF7020ADF80000482010
:101000008DF8030069460348FFF747FF08BD00005D
:10101000000801400010014070B50446A188206816
:10102000FFF7C6FF0546A079A84201D1012070BD97
:101030000020FCE72DE9F0410027002642E023488C
:1010400000EB06142046FFF7E7FF0546607A30B153
:1010500001280BD0022816D0032829D124E025B17D
:10106000012060721A480068E06024E045B1184928
:10107000E0680968081A142804D30220607201E0AD
:101080000020607217E05DB11149E0680968081A34
:1010900040F6B831884206D3277A0320607202E016
:1010A000E7790020607206E00DB90020607202E06E
:1010B0000020607200BF00BF17B13846BDE8F08164
:1010C000701CC6B2042EBAD30020F7E764000020DB
:1010D00028030020FFF77EFF0024012500BF0A201F
:1010E00022F0C4FFFFF7A6FF0446012C08D11CA084
:1010F00004F040FD01212148006823F0EEF809E0EA
:10110000032C07D11EA004F035FD01211B48006807
:1011100023F0D3F8052C12D1681CC5B2022D00DDD6
:101120000125012D04D11E4908681BF095FA13E032
:10113000022D11D11A4908691BF08EFA0CE0072C18
:101140000AD10120174981F803021549486F1BF0A5
:1011500083FA15A004F00EFD0A2022F087FFBEE7F7
:101160004B4559312050726573736564212041727B
:101170006D696E672E2E2E0D0A00000050000020B3
:101180004B45593220507265737365642120446960
:101190007361726D696E672E2E2E0D0A00000000BD
:1011A000744C0020180100206170E6A8A1E5BC8FF6
:1011B000200D0A008CB02C2101A8FFF76BF800BFAE
:1011C0004FF0FF3201A90A48006823F081FA9DF828
:1011D0002E00052809D2DFE800F004030506070009
:1011E00004E003E002E001E000E000BFE8E7000007
:1011F0004800002070B5044600261748058840883E
:1012000045431548808846F60401884216D11248A5
:101210008079012812D100200F4988712A20488145
:101220002B2088810021084603F0DEFE01200A49B8
:1012300088712B2048812A20888103E000210846FC
:1012400003F0D2FE03F0B0FF002602E00348048062
:10125000761CAE42FAD370BD200600200008006C58
:101260002DE9F84F07460D4690469946DDF828B01F
:10127000A8EB0700401C1FFA80FAA9EB0500401CF0
:1012800080B20090002414E0281981B2384603F09F
:10129000ABFE03F089FF002607E004FB0A603BF881
:1012A000100006490880701C86B25645F5DB601CAC
:1012B00084B200988442E7DBBDE8F88F0008006C38
:1012C00010B5FE48808849F2413188427ED1CF2056
:1012D00003F064FF002003F05BFFC12003F058FF20
:1012E000302003F055FFED2003F058FF642003F099
:1012F0004FFF032003F04CFF122003F049FF812031
:1013000003F046FFE82003F049FF852003F040FF8B
:10131000102003F03DFF7A2003F03AFFCB2003F0CA
:101320003DFF392003F034FF2C2003F031FF002073
:1013300003F02EFF342003F02BFF022003F028FFE0
:10134000F72003F02BFF202003F022FFEA2003F018
:1013500025FF002003F01CFF002003F019FFC02030
:1013600003F01CFF1B2003F013FFC12003F016FF46
:10137000012003F00DFFC52003F010FF302003F023
:1013800007FF302003F004FFC72003F007FFB7205A
:1013900003F0FEFE362003F001FF482003F0F8FEC4
:1013A0003A2003F0FBFE552003F0F2FEB12003F0DB
:1013B000F5FE002003F0ECFE1A2003F0E9FEB62053
:1013C00003F0ECFE0A2003F0E3FE00E098E0A22028
:1013D00003F0DEFEF22003F0E1FE002003F0D8FE71
:1013E000262003F0DBFE012003F0D2FEE02003F014
:1013F000D5FE0F2003F0CCFE2A2003F0C9FE2820E2
:1014000003F0C6FE082003F0C3FE0E2003F0C0FE6A
:10141000082003F0BDFE542003F0BAFEA92003F01B
:10142000B7FE432003F0B4FE0A2003F0B1FE0F2004
:1014300003F0AEFE002003F0ABFE002003F0A8FE98
:10144000002003F0A5FE002003F0A2FEE12003F03F
:10145000A5FE002003F09CFE152003F099FE172046
:1014600003F096FE072003F093FE112003F090FE98
:10147000062003F08DFE2B2003F08AFE562003F099
:1014800087FE3C2003F084FE052003F081FE10203F
:1014900003F07EFE0F2003F07BFE3F2003F078FE7A
:1014A0003F2003F075FE0F2003F072FE2B2003F0A7
:1014B00075FE002003F06CFE002003F069FE0120A1
:1014C00003F066FE3F2003F063FE2A2003F066FE71
:1014D000002003F05DFE002003F05AFE002003F020
:1014E00057FEEF2003F054FE112003F057FE782042
:1014F0000021FFF731FA292003F050FE03F04EB926
:101500006E48808846F6040188427DD1112003F0A0
:1015100045FE14200021FFF71FFAD02003F03EFE05
:10152000072003F035FE422003F032FE1D2003F0B9
:101530002FFED12003F032FE002003F029FE1A20F6
:1015400003F026FE092003F023FED22003F026FE3E
:10155000012003F01DFE222003F01AFEC02003F03C
:101560001DFE102003F014FE3B2003F011FE0020AE
:1015700003F00EFE022003F00BFE112003F008FE24
:10158000C52003F00BFE032003F002FEC82003F089
:1015900005FE002003F0FCFD252003F0F9FD2120CD
:1015A00003F0F6FD052003F0F3FD002003F0F0FD4D
:1015B0000A2003F0EDFD652003F0EAFD252003F08D
:1015C000E7FD772003F0E4FD502003F0E1FD0F205C
:1015D00003F0DEFD002003F0DBFDF82003F0DEFD6C
:1015E000012003F0D5FDFE2003F0D8FD002003F01C
:1015F000CFFD022003F0CCFD202003F0CFFD3620EC
:1016000003F0CCFD082000E02DE003F0C1FD3A20FE
:1016100003F0C4FD552003F0BBFD2B2003F0BEFDFD
:10162000002003F0B5FD002003F0B2FD012003F01F
:10163000AFFD3F2003F0ACFD2A2003F0AFFD0020FA
:1016400003F0A6FD002003F0A3FD012003F0A0FDA0
:10165000DF2003F09DFD78200021FFF77DF9292090
:1016600003F09CFD4AE71548808845F21031884216
:1016700040F07E87ED2003F091FD012003F088FD0E
:10168000FE2003F085FDEE2003F088FDDE2003F050
:101690007FFD212003F07CFDF12003F07FFD012080
:1016A00003F076FDDF2003F079FD102003F070FDDC
:1016B000C42003F073FD8F2002E00000200600200C
:1016C00003F066FDC62003F069FD002003F060FD15
:1016D000E22003F05DFDE22003F05AFDE22003F07A
:1016E00057FDBF2003F05AFDAA2003F051FDB020A2
:1016F00003F054FD0D2003F04BFD002003F048FDE6
:101700000D2003F045FD002003F042FD112003F001
:101710003FFD002003F03CFD192003F039FD0020BF
:1017200003F036FD212003F033FD002003F030FDEF
:101730002D2003F02DFD002003F02AFD3D2003F0B5
:1017400027FD002003F024FD5D2003F021FD002093
:1017500003F01EFD5D2003F01BFD002003F018FDCB
:10176000B12003F01BFD802003F012FD002003F0E8
:101770000FFD8B2003F00CFD002003F009FD9620E7
:1017800003F006FD002003F003FDB22003F006FD88
:10179000002003F0FDFC002003F0FAFC022003F01F
:1017A000F7FC002003F0F4FC032003F0F1FC002020
:1017B00003F0EEFCB32003F0F1FC002003F0E8FCA2
:1017C000002003F0E5FC002003F0E2FC002003F021
:1017D000DFFC002003F0DCFC002003F0D9FC00203B
:1017E00003F0D6FC002003F0D3FC002003F0D0FC73
:1017F000002003F0CDFC002003F0CAFC002003F021
:10180000C7FC002003F0C4FC002003F0C1FC002052
:1018100003F0BEFC002003F0BBFC002003F0B8FC8A
:10182000002003F0B5FC002003F0B2FC002003F020
:10183000AFFC002003F0ACFC002003F0A9FC00206A
:1018400003F0A6FC002003F0A3FCB42003F0A6FCE8
:101850008B2003F09DFC002003F09AFC962003F0FF
:1018600097FC002003F094FCA12003F091FC0020E1
:1018700003F08EFCB52003F091FC022003F088FCFD
:10188000002003F085FC032003F082FC002003F01D
:101890007FFC042003F07CFC002003F079FCB620E0
:1018A00003F07CFC002003F073FC002003F070FCCC
:1018B000B72003F073FC002003F06AFC002003F063
:1018C00067FC3F2003F064FC002003F061FC5E2015
:1018D00003F05EFC002003F05BFC642003F058FC86
:1018E000002003F055FC8C2003F052FC002003F094
:1018F0004FFCAC2003F04CFC002003F049FCDC2042
:1019000003F046FC002003F043FC702003F040FC91
:10191000002003F03DFC902003F03AFC002003F08F
:1019200037FCEB2003F034FC002003F031FCDC201A
:1019300003F02EFC002003F02BFCB82003F02EFC5B
:10194000002003F025FC002003F022FC002003F01F
:101950001FFC002003F01CFC002003F019FC0020F9
:1019600003F016FC002003F013FC002003F010FC31
:10197000BA2003F013FC242003F00AFC002003F03B
:1019800007FC002003F004FC002003F001FCC12050
:1019900003F004FC202003F0FBFB002003F0F8FB25
:1019A000542003F0F5FB002003F0F2FBFF2003F0CE
:1019B000EFFB002003F0ECFBC22003F0EFFB0A205A
:1019C00003F0E6FB002003F0E3FB042003F0E0FB60
:1019D000002003F0DDFBC32003F0E0FB3C2003F01C
:1019E000D7FB002003F0D4FB3A2003F0D1FB00200A
:1019F00003F0CEFB392003F0CBFB002003F0C8FB43
:101A0000372003F0C5FB002003F0C2FB3C2003F0AD
:101A1000BFFB002003F0BCFB362003F0B9FB002025
:101A200003F0B6FB322003F0B3FB002003F0B0FB61
:101A30002F2003F0ADFB002003F0AAFB2C2003F0C5
:101A4000A7FB002003F0A4FB292003F0A1FB00204A
:101A500003F09EFB262003F09BFB002003F098FB85
:101A6000242003F095FB002003F092FB242003F0D8
:101A70008FFB002003F08CFB232003F089FB002068
:101A800003F086FB3C2003F083FB002003F080FB87
:101A9000362003F07DFB002003F07AFB322003F0B8
:101AA00077FB002003F074FB2F2003F071FB002074
:101AB00003F06EFB2C2003F06BFB002003F068FBAF
:101AC000292003F065FB002003F062FB262003F0D1
:101AD0005FFB002003F05CFB242003F059FB002097
:101AE00003F056FB242003F053FB002003F050FBCF
:101AF000232003F04DFB002003F04AFBC42003F039
:101B00004DFB622003F044FB002003F041FB052065
:101B100003F03EFB002003F03BFB842003F038FB86
:101B2000002003F035FBF02003F032FB002003F02F
:101B30002FFB182003F02CFB002003F029FBA4202E
:101B400003F026FB002003F023FB182003F020FB0A
:101B5000002003F01DFB502003F01AFB002003F0CF
:101B600017FB0C2003F014FB002003F011FB1720DF
:101B700003F00EFB002003F00BFB952003F008FBA5
:101B8000002003F005FBF32003F002FB002003F02C
:101B9000FFFAE62003F0FCFA002003F0F9FAC52072
:101BA00003F0FCFA322003F0F3FA002003F0F0FA1D
:101BB000442003F0EDFA002003F0EAFA652003F078
:101BC000E7FA002003F0E4FA762003F0E1FA0020BF
:101BD00003F0DEFA882003F0DBFA002003F0D8FAE5
:101BE000C62003F0DBFA202003F0D2FA002003F035
:101BF000CFFA172003F0CCFA002003F0C9FA012035
:101C000003F0C6FA002003F0C3FAC72003F0C6FAB7
:101C1000002003F0BDFA002003F0BAFA002003F020
:101C2000B7FA002003F0B4FAC82003F0B7FA002096
:101C300003F0AEFA002003F0ABFA002003F0A8FA9C
:101C4000002003F0A5FAC92003F0A8FA002003F051
:101C50009FFA002003F09CFA002003F099FA00207C
:101C600003F096FA002003F093FA002003F090FAB4
:101C7000002003F08DFA002003F08AFA002003F020
:101C800087FA002003F084FA002003F081FA002094
:101C900003F07EFA002003F07BFA002003F078FACC
:101CA000002003F075FA002003F072FAE02003F040
:101CB00075FA162003F06CFA002003F069FA1C2074
:101CC00003F066FA002003F063FA212003F060FAC3
:101CD000002003F05DFA362003F05AFA002003F0EA
:101CE00057FA462003F054FA002003F051FA52202C
:101CF00003F04EFA002003F04BFA642003F048FA98
:101D0000002003F045FA7A2003F042FA002003F0A5
:101D10003FFA8B2003F03CFA002003F039FA9920B7
:101D200003F036FA002003F033FAA82003F030FA6B
:101D3000002003F02DFAB92003F02AFA002003F066
:101D400027FAC42003F024FA002003F021FACA2065
:101D500003F01EFA002003F01BFAD22003F018FA59
:101D6000002003F015FAD92003F012FA002003F046
:101D70000FFAE02003F00CFA002003F009FAF32038
:101D800003F006FA002003F003FAE12003F006FA5C
:101D9000162003F0FDF9002003F0FAF91C2003F0EF
:101DA000F7F9002003F0F4F9222003F0F1F9002004
:101DB00003F0EEF9362003F0EBF9002003F0E8F928
:101DC000452003F0E5F9002003F0E2F9522003F08A
:101DD000DFF9002003F0DCF9642003F0D9F90020DA
:101DE00003F0D6F97A2003F0D3F9002003F0D0F9FC
:101DF0008B2003F0CDF9002003F0CAF9992003F0FD
:101E0000C7F9002003F0C4F9A82003F0C1F90020AD
:101E100003F0BEF9B92003F0BBF9002003F0B8F9D4
:101E2000C42003F0B5F9002003F0B2F9CA2003F092
:101E3000AFF9002003F0ACF9D22003F0A9F900209B
:101E400003F0A6F9D82003F0A3F9002003F0A0F9CD
:101E5000E02003F09DF9002003F09AF9F32003F04D
:101E600097F9002003F094F9E22003F097F9052098
:101E700003F08EF9002003F08BF90B2003F088F9B2
:101E8000002003F085F91B2003F082F9002003F005
:101E90007FF9342003F07CF9002003F079F9442025
:101EA00003F076F9002003F073F94F2003F070F986
:101EB000002003F06DF9612003F06AF9002003F0BF
:101EC00067F9792003F064F9002003F061F98820B4
:101ED00003F05EF9002003F05BF9972003F058F956
:101EE000002003F055F9A62003F052F9002003F07A
:101EF0004FF9B72003F04CF9002003F049F9C22054
:101F000003F046F9002003F043F9C72003F040F93D
:101F1000002003F03DF9D12003F03AF9002003F04E
:101F200037F9D62003F034F9002003F031F9DD2031
:101F300003F02EF9002003F02BF9F32003F028F929
:101F4000002003F025F9E32003F028F9052003F031
:101F50001FF9002003F01CF90A2003F019F90020F2
:101F600003F016F91C2003F013F9002003F010F918
:101F7000332003F00DF9002003F00AF9442003F0A8
:101F800007F9002003F004F9502003F001F90020C4
:101F900003F0FEF8622003F0FBF8002003F0F8F8ED
:101FA000782003F0F5F8002003F0F2F8882003F021
:101FB000EFF8002003F0ECF8972003F0E9F8002098
:101FC00003F0E6F8A62003F0E3F8002003F0E0F8C1
:101FD000B72003F0DDF8002003F0DAF8C22003F0A8
:101FE000D7F8002003F0D4F8C72003F0D1F8002080
:101FF00003F0CEF8D12003F0CBF8002003F0C8F8AE
:10200000D52003F0C5F8002003F0C2F8DD2003F06E
:10201000BFF8002003F0BCF8F32003F0B9F800206B
:1020200003F0B6F8E42003F0B9F8012003F0B0F8AB
:10203000002003F0ADF8012003F0AAF8002003F01F
:10204000A7F8022003F0A4F8002003F0A1F82A204A
:1020500003F09EF8002003F09BF83C2003F098F872
:10206000002003F095F84B2003F092F8002003F0D5
:102070008FF85D2003F08CF8002003F089F87420BD
:1020800003F086F8002003F083F8842003F080F842
:10209000002003F07DF8932003F07AF8002003F08D
:1020A00077F8A22003F074F8002003F071F8B32051
:1020B00003F06EF8002003F06BF8BE2003F068F820
:1020C000002003F065F8C42003F062F8002003F05C
:1020D0005FF8CD2003F05CF8002003F059F8D3201E
:1020E00003F056F8002003F053F8DD2003F050F819
:1020F000002003F04DF8F32003F04AF8002003F02D
:1021000047F8E52003F04AF8002003F041F80020EA
:1021100003F03EF8002003F03BF8002003F038F80D
:10212000022003F035F8002003F032F8292003F0F4
:102130002FF8002003F02CF83C2003F029F80020B1
:1021400003F026F84B2003F023F8002003F020F8DA
:102150005D2003F01DF8002003F01AF8742003F04E
:1021600017F8002003F014F8842003F011F8002081
:1021700003F00EF8932003F00BF8002003F008F8AA
:10218000A22003F005F8002003F002F8B32002F0CB
:10219000FFFF002002F0FCFFBE2002F0F9FF00204C
:1021A00002F0F6FFC42002F0F3FF002002F0F0FF7F
:1021B000CD2002F0EDFF002002F0EAFFD32002F074
:1021C000E7FF002002F0E4FFDC2002F0E1FF002046
:1021D00002F0DEFFF32002F0DBFF002002F0D8FF68
:1021E000E62002F0DBFF112002F0D2FF002002F017
:1021F000CFFF342002F0CCFF002002F0C9FF5620B0
:1022000002F0C6FF002002F0C3FF762002F0C0FFFC
:10221000002002F0BDFF772002F0BAFF002002F09C
:10222000B7FF662002F0B4FF002002F0B1FF882063
:1022300002F0AEFF002002F0ABFF992002F0A8FFF1
:10224000002002F0A5FFBB2002F0A2FF002002F058
:102250009FFF992002F09CFF002002F099FF66206A
:1022600002F096FF002002F093FF552002F090FF4D
:10227000002002F08DFF552002F08AFF002002F0BE
:1022800087FF452002F084FF002002F081FF4320F9
:1022900002F07EFF002002F07BFF442002F078FF76
:1022A000002002F075FFE72002F078FF322002F0F4
:1022B0006FFF002002F06CFF552002F069FF002044
:1022C00002F066FF762002F063FF002002F060FF5C
:1022D000662002F05DFF002002F05AFF672002F046
:1022E00057FF002002F054FF672002F051FF00204A
:1022F00002F04EFF872002F04BFF002002F048FF63
:10230000992002F045FF002002F042FFBB2002F0BE
:102310003FFF002002F03CFF992002F039FF00202F
:1023200002F036FF772002F033FF002002F030FF8A
:10233000442002F02DFF002002F02AFF562002F078
:1023400027FF002002F024FF232002F021FF0020BD
:1023500002F01EFF332002F01BFF002002F018FFE6
:10236000452002F015FF002002F012FFE82002F0E5
:1023700015FF002002F00CFF002002F009FF992059
:1023800002F006FF002002F003FF872002F000FFAA
:10239000002002F0FDFE882002F0FAFE002002F08C
:1023A000F7FE772002F0F4FE002002F0F1FE662036
:1023B00002F0EEFE002002F0EBFE882002F0E8FEC4
:1023C000002002F0E5FEAA2002F0E2FE002002F06A
:1023D000DFFEBB2002F0DCFE002002F0D9FE9920D7
:1023E00002F0D6FE002002F0D3FE662002F0D0FEFE
:1023F000002002F0CDFE552002F0CAFE002002F0BF
:10240000C7FE552002F0C4FE002002F0C1FE4420A9
:1024100002F0BEFE002002F0BBFE442002F0B8FE37
:10242000002002F0B5FE552002F0B2FE002002F0BE
:10243000AFFEE92002F0B2FEAA2002F0A9FE0020C1
:1024400002F0A6FE002002F0A3FE002002F0A0FE93
:10245000002002F0A3FEAA2002F09AFECF2002F094
:102460009DFE002002F094FE002002F091FE00206C
:1024700002F08EFE002002F08BFE002002F088FEAB
:10248000002002F085FE002002F082FE002002F013
:102490007FFE002002F07CFE002002F079FE00208A
:1024A00002F076FE002002F073FE002002F070FEC3
:1024B000002002F06DFE002002F06AFE002002F013
:1024C00067FE002002F064FEF02002F067FE0020AC
:1024D00002F05EFE502002F05BFE002002F058FE8B
:1024E000002002F055FE002002F052FEF32002F020
:1024F00055FE002002F04CFEF92002F04FFE0620AF
:1025000002F046FE102002F043FE292002F040FEB9
:10251000002002F03DFE3A2002F040FE552002F07D
:1025200037FE112002F03AFE64200021FEF714FA73
:10253000292002F033FE352002F030FE002002F0A8
:1025400027FE512002F02AFEFF2002F021FE532038
:1025500002F024FE2C2002F01BFE552002F01EFE8D
:10256000822002F015FE2C2002F018FE02F016B9AF
:10257000FE48808845F2105188427DD155214FF4A4
:10258000704002F01BFEAA214FF2010002F016FE7D
:1025900052214FF2020002F011FE08214FF2030017
:1025A00002F00CFE01214FF2040002F007FE0D21A3
:1025B0004FF4304002F002FE0D214BF2010002F018
:1025C000FDFD0D214BF2020002F0F8FD34214FF425
:1025D000364002F0F3FD34214BF2016002F0EEFDD3
:1025E00034214BF2026002F0E9FD0D214FF431403D
:1025F00002F0E4FD0D214BF2011002F0DFFD0D2190
:102600004BF2021002F0DAFD34214FF4374002F0B1
:10261000D5FD34214BF2017002F0D0FD34214BF294
:10262000027002F0CBFD00214FF4324002F0C6FDF3
:1026300000214BF2012002F0C1FD00214BF20220EB
:1026400002F0BCFD24214FF4384002F0B7FD2421F4
:102650004BF6010002F0B2FD24214BF6020002F01D
:10266000ADFD01214FF43F4002F0A8FD0F214FF4D2
:10267000334002F0A3FD00E0FDE30F214BF20130F7
:1026800002F09CFD0F214BF2023002F097FD342145
:102690004FF4394002F092FD34214BF6011002F064
:1026A0008DFD34214BF6021002F088FD08214FF415
:1026B000354002F083FD08214BF2015002F07EFD0F
:1026C00008214BF2025002F079FD03214FF4424001
:1026D00002F074FD24214FF43A4002F06FFD2421F2
:1026E0004BF6012002F06AFD24214BF6022002F095
:1026F00065FD00214FF43C4002F060FD78214BF66F
:10270000014002F05BFD00214BF6024002F056FD55
:1027100000214FF43D4002F051FD78214BF601506D
:1027200002F04CFD00214BF6025002F047FD002163
:102730004FF43E4002F042FD64214BF6016002F08E
:102740003DFD00214FF4514002F038FD33214DF2A0
:10275000011002F033FD00214DF2021002F02EFDB7
:1027600034214DF2031002F029FD00214DF2041036
:1027700002F024FD3A214DF2051002F01FFD002168
:102780004DF2061002F01AFD4A214DF2071002F038
:1027900015FD00214DF2081002F010FD5C214DF2F4
:1027A000091002F00BFD00214DF20A1002F006FDA7
:1027B00081214DF20B1002F001FD00214DF20C10B1
:1027C00002F0FCFCA6214DF20D1002F0F7FC0021F6
:1027D0004DF20E1002F0F2FCE5214DF20F1002F066
:1027E000EDFC01214DF2101002F0E8FC13214DF236
:1027F000111002F0E3FC01214DF2121002F0DEFC98
:1028000054214DF2131002F0D9FC01214DF21410A5
:1028100002F0D4FC82214DF2151002F0CFFC012110
:102820004DF2161002F0CAFCCA214DF2171002F048
:10283000C5FC02214DF2181002F0C0FC00214DF23F
:10284000191002F0BBFC02214DF21A1002F0B6FC86
:1028500001214DF21B1002F0B1FC02214DF21C10BF
:1028600002F0ACFC34214DF21D1002F0A7FC022155
:102870004DF21E1002F0A2FC67214DF21F1002F073
:102880009DFC02214DF2201002F098FC84214DF2B3
:10289000211002F093FC02214DF2221002F08EFC76
:1028A000A4214DF2231002F089FC02214DF22410E4
:1028B00002F084FCB7214DF2251002F07FFC0221CA
:1028C0004DF2261002F07AFCCF214DF2271002F0D3
:1028D00075FC02214DF2281002F070FCDE214DF251
:1028E000291002F06BFC02214DF22A1002F066FC66
:1028F000F2214DF22B1002F061FC02214DF22C105E
:1029000002F05CFCFE214DF22D1002F057FC032179
:102910004DF22E1002F052FC10214DF22F1002F059
:102920004DFC03214DF2301002F048FC33214DF2F2
:10293000311002F043FC03214DF2321002F03EFC54
:102940006D214DF2331002F039FC00214FF452405A
:1029500002F034FC33214DF2012002F02FFC002163
:102960004DF2022002F02AFC342101E02006002072
:102970004DF2032002F022FC00214DF2042002F06F
:102980001DFC3A214DF2052002F018FC00214DF209
:10299000062002F013FC4A214DF2072002F00EFC43
:1029A00000214DF2082002F009FC5C214DF20920C3
:1029B00002F004FC00214DF20A2002F0FFFB81210D
:1029C0004DF20B2002F0FAFB00214DF20C2002F038
:1029D000F5FBA6214DF20D2002F0F0FB00214DF297
:1029E0000E2002F0EBFBE5214DF20F2002F0E6FB9A
:1029F00001214DF2102002F0E1FB13214DF21120D4
:102A000002F0DCFB01214DF2122002F0D7FB542131
:102A10004DF2132002F0D2FB01214DF2142002F0FE
:102A2000CDFB82214DF2152002F0C8FB01214DF2B1
:102A3000162002F0C3FBCA214DF2172002F0BEFBA4
:102A400002214DF2182002F0B9FB00214DF21920AD
:102A500002F0B4FB02214DF21A2002F0AFFB01217B
:102A60004DF21B2002F0AAFB02214DF21C2002F0C5
:102A7000A5FB34214DF21D2002F0A0FB02214DF2F6
:102A80001E2002F09BFB67214DF21F2002F096FBF7
:102A900002214DF2202002F091FB84214DF22120F1
:102AA00002F08CFB02214DF2222002F087FBA421D0
:102AB0004DF2232002F082FB02214DF2242002F08D
:102AC0007DFBB7214DF2252002F078FB02214DF26B
:102AD000262002F073FBCF214DF2272002F06EFB7F
:102AE00002214DF2282002F069FBDE214DF229205F
:102AF00002F064FB02214DF22A2002F05FFBF2217A
:102B00004DF22B2002F05AFB02214DF22C2002F054
:102B100055FBFE214DF22D2002F050FB03214DF21A
:102B20002E2002F04BFB10214DF22F2002F046FB2D
:102B300003214DF2302002F041FB33214DF23120D0
:102B400002F03CFB03214DF2322002F037FB6D21F5
:102B50004DF2332002F032FB00214FF4534002F0DB
:102B60002DFB33214DF2013002F028FB00214DF204
:102B7000023002F023FB34214DF2033002F01EFB41
:102B800000214DF2043002F019FB3A214DF20530DC
:102B900002F014FB00214DF2063002F00FFB4A2137
:102BA0004DF2073002F00AFB00214DF2083002F02E
:102BB00005FB5C214DF2093002F000FB00214DF2D3
:102BC0000A3002F0FBFA81214DF20B3002F0F6FAE6
:102BD00000214DF20C3002F0F1FAA6214DF20D3039
:102BE00002F0ECFA00214DF20E3002F0E7FAE52196
:102BF0004DF20F3002F0E2FA01214DF2103002F0F6
:102C0000DDFA13214DF2113002F0D8FA01214DF214
:102C1000123002F0D3FA54214DF2133002F0CEFA02
:102C200001214DF2143002F0C9FA82214DF2153023
:102C300002F0C4FA01214DF2163002F0BFFACA21A7
:102C40004DF2173002F0BAFA02214DF2183002F0BC
:102C5000B5FA00214DF2193002F0B0FA02214DF21E
:102C60001A3002F0ABFA01214DF21B3002F0A6FA45
:102C700002214DF21C3002F0A1FA34214DF21D3038
:102C800002F09CFA02214DF21E3002F097FA672101
:102C90004DF21F3002F092FA02214DF2203002F084
:102CA0008DFA84214DF2213002F088FA02214DF292
:102CB000223002F083FAA4214DF2233002F07EFA92
:102CC00002214DF2243002F079FAB7214DF225307D
:102CD00002F074FA02214DF2263002F06FFACF2191
:102CE0004DF2273002F06AFA02214DF2283002F04C
:102CF00065FADE214DF2293002F060FA02214DF230
:102D00002A3002F05BFAF2214DF22B3002F056FA33
:102D100002214DF22C3002F051FAFE214DF22D30FD
:102D200002F04CFA03214DF22E3002F047FA102146
:102D30004DF22F3002F042FA03214DF2303002F012
:102D40003DFA33214DF2313002F038FA03214DF2D1
:102D5000323002F033FA6D214DF2333002F02EFAA8
:102D600000214FF4544002F029FA33214DF2014082
:102D700002F024FA00214DF2024002F01FFA342141
:102D80004DF2034002F01AFA00214DF2044002F025
:102D900015FA3A214DF2054002F010FA00214DF2E9
:102DA000064002F00BFA4A214DF2074002F006FA03
:102DB00000214DF2084002F001FA5C214DF2094079
:102DC00002F0FCF900214DF20A4002F0F7F98121EE
:102DD0004DF20B4002F0F2F900214DF20C4002F0EE
:102DE000EDF9A6214DF20D4002F0E8F900214DF277
:102DF0000E4002F0E3F9E5214DF20F4002F0DEF95A
:102E000001214DF2104002F0D9F913214DF2114089
:102E100002F0D4F901214DF2124002F0CFF9542111
:102E20004DF2134002F0CAF901214DF2144002F0B4
:102E3000C5F982214DF2154002F0C0F901214DF291
:102E4000164002F0BBF9CA214DF2174002F0B6F964
:102E500002214DF2184002F0B1F900214DF2194063
:102E600002F0ACF902214DF21A4002F0A7F901215B
:102E70004DF21B4000E007E302F0A0F902214DF201
:102E80001C4002F09BF934214DF21D4002F096F9EE
:102E900002214DF21E4002F091F967214DF21F40D0
:102EA00002F08CF902214DF2204002F087F98421D2
:102EB0004DF2214002F082F902214DF2224002F04F
:102EC0007DF9A4214DF2234002F078F902214DF260
:102ED000244002F073F9B7214DF2254002F06EF95B
:102EE00002214DF2264002F069F9CF214DF2274030
:102EF00002F064F902214DF2284002F05FF9DE2170
:102F00004DF2294002F05AF902214DF22A4002F016
:102F100055F9F2214DF22B4002F050F902214DF209
:102F20002C4002F04BF9FE214DF22D4002F046F903
:102F300003214DF22E4002F041F910214DF22F40B5
:102F400002F03CF903214DF2304002F037F9332111
:102F50004DF2314002F032F903214DF2324002F0DD
:102F60002DF96D214DF2334002F028F900214FF484
:102F7000554002F023F933214DF2015002F01EF9C1
:102F800000214DF2025002F019F934214DF20350A4
:102F900002F014F900214DF2045002F00FF93A2129
:102FA0004DF2055002F00AF900214DF2065002F0F0
:102FB00005F94A214DF2075002F000F900214DF2C7
:102FC000085002F0FBF85C214DF2095002F0F6F8CF
:102FD00000214DF20A5002F0F1F881214DF20B5020
:102FE00002F0ECF800214DF20C5002F0E7F8A621B7
:102FF0004DF20D5002F0E2F800214DF20E5002F0B9
:10300000DDF8E5214DF20F5002F0D8F801214DF224
:10301000105002F0D3F813214DF2115002F0CEF807
:1030200001214DF2125002F0C9F854214DF2135013
:1030300002F0C4F801214DF2145002F0BFF88221D1
:103040004DF2155002F0BAF801214DF2165002F07F
:10305000B5F8CA214DF2175002F0B0F802214DF236
:10306000185002F0ABF800214DF2195002F0A6F80A
:1030700002214DF21A5002F0A1F801214DF21B502D
:1030800002F09CF802214DF21C5002F097F8342116
:103090004DF21D5002F092F802214DF21E5002F046
:1030A0008DF867214DF21F5002F088F802214DF291
:1030B000205002F083F884214DF2215002F07EF876
:1030C00002214DF2225002F079F8A4214DF2235052
:1030D00002F074F802214DF2245002F06FF8B7218B
:1030E0004DF2255002F06AF802214DF2265002F00E
:1030F00065F8CF214DF2275002F060F802214DF221
:10310000285002F05BF8DE214DF2295002F056F80B
:1031100002214DF22A5002F051F8F2214DF22B50CB
:1031200002F04CF802214DF22C5002F047F8FE213B
:103130004DF22D5002F042F803214DF22E5002F0D4
:103140003DF810214DF22F5002F038F803214DF2D6
:10315000305002F033F833214DF2315002F02EF8A6
:1031600003214DF2325002F029F86D214DF2335017
:1031700002F024F800214FF4564002F01FF83321EA
:103180004DF2016002F01AF800214DF2026002F0E7
:1031900015F834214DF2036002F010F800214DF2D1
:1031A000046002F00BF83A214DF2056002F006F8D7
:1031B00000214DF2066002F001F84A214DF207604D
:1031C00001F0FCFF00214DF2086001F0F7FF5C21E7
:1031D0004DF2096001F0F2FF00214DF20A6001F0AA
:1031E000EDFF81214DF20B6001F0E8FF00214DF26F
:1031F0000C6001F0E3FFA6214DF20D6001F0DEFF4F
:1032000000214DF20E6001F0D9FFE5214DF20F6073
:1032100001F0D4FF01214DF2106001F0CFFF132126
:103220004DF2116001F0CAFF01214DF2126001F070
:10323000C5FF54214DF2136001F0C0FF01214DF292
:10324000146001F0BBFF82214DF2156001F0B6FF62
:1032500001214DF2166001F0B1FFCA214DF2176055
:1032600001F0ACFF02214DF2186001F0A7FF002130
:103270004DF2196001F0A2FF02214DF21A6001F037
:103280009DFF01214DF21B6001F098FF02214DF2DC
:103290001C6001F093FF34214DF21D6001F08EFFA0
:1032A00002214DF21E6001F089FF67214DF21F607F
:1032B00001F084FF02214DF2206001F07FFF8421A4
:1032C0004DF2216001F07AFF02214DF2226001F0FF
:1032D00075FFA4214DF2236001F070FF02214DF231
:1032E000246001F06BFFB7214DF2256001F066FF0D
:1032F00002214DF2266001F061FFCF214DF22760DF
:1033000001F05CFF02214DF2286001F057FFDE2141
:103310004DF2296001F052FF02214DF22A6001F0C6
:103320004DFFF2214DF22B6001F048FF02214DF2DA
:103330002C6001F043FFFE214DF22D6001F03EFFB5
:1033400003214DF22E6001F039FF10214DF22F6064
:1033500001F034FF03214DF2306001F02FFF3321E3
:103360004DF2316001F02AFF03214DF2326001F08D
:1033700025FF6D214DF2336001F020FF55214FF400
:10338000704001F01BFFAA214FF2010001F016FF6F
:1033900052214FF2020001F011FF08214FF2030009
:1033A00001F00CFF00214FF2040001F007FFCC21D7
:1033B0004FF4314001F002FF00214BF2011001F007
:1033C000FDFE05214FF4364001F0F8FE70214FF468
:1033D000374001F0F3FE70214BF2017001F0EEFE78
:1033E00001214FF4384001F0E9FE03214BF60100C2
:1033F00001F0E4FE03214BF6020001F0DFFE0321A1
:103400004BF6030001F0DAFE02214FF43C4001F0DC
:10341000D5FE00214BF6014001F0D0FE00214BF615
:10342000024001F0CBFED0214FF4494001F0C6FE2E
:1034300002214CF6011001F0C1FE50214CF60210A1
:1034400001F0BCFE50214CF6031001F0B7FE5021F4
:103450004CF6041001F0B2FE00214FF4545001F07C
:10346000ADFE55214FF4685001F0A8FE4FF488508E
:1034700001F094FE78200021FDF7CEFA4FF424509D
:1034800001F08CFE01F08AB9FE48808849F22531AE
:1034900088427DD147F6F001E52001F08FFE4FF420
:1034A0008071012001F08AFE4FF4E061022001F0FA
:1034B00085FE41F23001032001F080FE002104204E
:1034C00001F07CFE40F20221082001F077FE00218D
:1034D000092001F073FE00210A2001F06FFE002197
:1034E0000C2001F06BFE00210D2001F067FE002191
:1034F0000F2001F063FE0021102001F05FFE072184
:10350000112001F05BFE0021122001F057FE002186
:10351000132001F053FE0021072001F04FFE41F27D
:103520009061102001F04AFE40F22721112001F0A5
:1035300045FE9D21122001F041FE4FF4C851132099
:1035400001F03CFE2521292001F038FE0D212B2021
:1035500001F034FE0721302001F030FE40F203314B
:10356000312001F02BFE0321322001F027FE40F232
:103570000621352001F022FE0821362001F01EFE32
:1035800040F20641372001F019FE4FF4417100E08E
:1035900058E0382001F012FE0721392001F00EFE1C
:1035A00040F202613C2001F009FE08213D2001F0BB
:1035B00005FE0021502001F001FEEF21512001F015
:1035C000FDFD0021522001F0F9FD40F23F11532092
:1035D00001F0F4FD4FF42741602001F0EFFD0121DF
:1035E000612001F0EBFD00216A2001F0E7FD0021E0
:1035F000802001F0E3FD0021812001F0DFFD0021AA
:10360000822001F0DBFD0021832001F0D7FD0021A5
:10361000842001F0D3FD0021852001F0CFFD102191
:10362000902001F0CBFD4FF4C061922001F0C6FD67
:1036300040F23311072001F0C1FD2221002001F0EA
:10364000BDFD1FE78F48808849F2283188427DD12F
:1036500041F28F01EC2001F0B1FD41F23421EF2065
:1036600001F0ACFD4FF48071012001F0A7FD4FF493
:10367000E061022001F0A2FD41F23001032001F0DF
:103680009DFD0021042001F099FD40F20221082057
:1036900001F094FD0021092001F090FD00210A2095
:1036A00001F08CFD01210C2001F088FD00210D208E
:1036B00001F084FD00210F2001F080FD0021102089
:1036C00001F07CFD0721112001F078FD002112207E
:1036D00001F074FD0021132001F070FD012107208D
:1036E00001F06CFD32200021FDF736F941F29041E6
:1036F000102001F063FD40F22721112001F05EFD52
:1037000032200021FDF728F98A21122001F056FD10
:1037100032200021FDF720F94FF4D051132001F0A1
:103720004DFD0621292001F049FD0D212B2001F03E
:1037300045FD32200021FDF70FF90021202001F086
:103740003DFD0021212001F039FD00E07BE0322029
:103750000021FDF701F90021302001F02FFD40F29A
:103760000461312001F02AFD40F20531322001F0E0
:1037700025FD0021352001F021FD40F609413620CC
:1037800001F01CFD4FF40171372001F017FD40F2EC
:103790000131382001F012FD40F20771392001F0AB
:1037A0000DFD00213C2001F009FD40F60A213D20DD
:1037B00001F004FD32200021FDF7CEF80021502059
:1037C00001F0FCFCEF21512001F0F8FC0021522017
:1037D00001F0F4FC40F23F11532001F0EFFC4FF4F4
:1037E0002741602001F0EAFC0121612001F0E6FCA4
:1037F00000216A2001F0E2FC0021802001F0DEFCC3
:103800000021812001F0DAFC0021822001F0D6FCA9
:103810000021832001F0D2FC0021842001F0CEFCA5
:103820000021852001F0CAFC1021902001F0C6FC87
:103830004FF4C061922001F0C1FC40F23311072027
:1038400001F0BCFC1EE60F48808849F22031884216
:103850007DD10021084601F0B1FC4FF480710120B8
:1038600001F0ACFC4FF4E061022001F0A7FC41F252
:103870003001032001F0A2FC0021042001F09EFC95
:1038800002E000002006002040F20221082001F0A2
:1038900095FC0021092001F091FC00210A2001F093
:1038A0008DFC01210C2001F089FC00210D2001F08C
:1038B00085FC00210F2001F081FC32200021FDF762
:1038C0004BF840F20111072001F078FC3220002172
:1038D000FDF742F84FF48651102001F06FFC0721EC
:1038E000112001F06BFC4FF48871122001F066FC8E
:1038F0004FF43061132001F061FC0021292001F018
:103900005DFC44F210012B2001F058FC00215020F6
:1039100001F054FCEF21512001F050FC0021522015
:1039200001F04CFC40F23F11532001F047FC4FF4F2
:103930001C51602001F042FC0121612001F03EFC9D
:1039400000216A2001F03AFC0021802000E034E0F0
:1039500001F034FC0021812001F030FC00218220A4
:1039600001F02CFC0021832001F028FC00218420A0
:1039700001F024FC0021852001F020FC1021902082
:1039800001F01CFC0021922001F018FC0121932081
:1039900001F014FC4FF48871952001F00FFC002118
:1039A000972001F00BFC0021982001F007FC40F269
:1039B0007311072001F002FC64E5FE48808849F29B
:1039C000313188427ED141F21401E72001F0F6FB4B
:1039D0004FF48071012001F0F1FB4FF400710220DF
:1039E00001F0ECFB41F23801032001F0E7FB40F26B
:1039F0000221082001F0E2FB0021092001F0DEFB9A
:103A000000210A2001F0DAFB00210C2001F0D6FB96
:103A100000210D2001F0D2FB00210F2001F0CEFB90
:103A20000021102001F0CAFB0721112001F0C6FB84
:103A30000021122001F0C2FB0021132001F0BEFB87
:103A4000C8200021FCF788FF41F29061102001F0AE
:103A5000B5FB40F22721112001F0B0FB32200021FC
:103A6000FCF77AFF0C21122001F0A8FB3220002184
:103A7000FCF772FF4FF40061132001F09FFB11214E
:103A8000292001F09BFB0B212B2001F097FB32201A
:103A90000021FCF761FF0021202001F08FFB40F2A4
:103AA0003F11212001F08AFB0021302001F086FB2C
:103AB0004FF48371312001F081FB0021322001F0AD
:103AC0007DFB00E067E04FF40171352001F076FBEB
:103AD00041F20A61362001F071FB40F20771372094
:103AE00001F06CFB4FF48371382001F067FB40F26A
:103AF0000771392001F062FB40F202413C2001F0E5
:103B00005DFB40F60F413D2001F058FB00215020A5
:103B100001F054FBEF21512001F050FB0021522015
:103B200001F04CFB40F23F11532001F047FB4FF4F2
:103B30001C51602001F042FB0121612001F03EFB9D
:103B400000216A2001F03AFB0021802001F036FBC1
:103B50000021812001F032FB0021822001F02EFBA8
:103B60000021832001F02AFB0021842001F026FBA4
:103B70000021852001F022FB1021902001F01EFB86
:103B80004FF4C061922001F019FB40F2331107207D
:103B900001F014FB76E48748808845F208418842AA
:103BA0007ED14FF48071012001F008FB4FF4E061F9
:103BB000022001F003FB41F23001032001F0FEFA84
:103BC0000021042001F0FAFA40F20721082001F058
:103BD000F5FA0021092001F0F1FA00210A2001F094
:103BE000EDFA00210C2001F0E9FA00210D2001F08E
:103BF000E5FA00210F2001F0E1FA14200021FCF782
:103C0000ABFE41F2B061102001F0D8FA0121112081
:103C100001F0D4FA0121172001F0D0FA4FF49C7181
:103C2000122001F0CBFA4FF40061132001F0C6FA24
:103C30000921292001F0C2FA09212A2001F0BEFA47
:103C40000021A42001F0BAFA0021502001F0B6FAB8
:103C5000EF21512001F0B2FA0021522001F0AEFA1A
:103C600040F23F11532001F0A9FA4FF41C5160209B
:103C700001F0A4FA0121612001F0A0FA00216A20DC
:103C800001F09CFA0021802001F098FA00218120A7
:103C900001F094FA0021822001F090FA002100E066
:103CA00025E0832001F08AFA0021842001F086FAC1
:103CB0000021852001F082FA1321902001F07EFA84
:103CC0000021922001F07AFA0321932001F076FA84
:103CD0004FF48871952001F071FA40F273110720BA
:103CE00001F06CFA32200021FCF736FEA9E43148DD
:103CF000808841F2055188427ED10021072001F0E1
:103D00005DFA32200021FCF727FE4FF48E7112205D
:103D100001F054FA0121A42001F050FA0F210820EB
:103D200001F04CFA08210A2001F048FA08210D2080
:103D300001F044FA40F20771302001F03FFA072108
:103D4000312001F03BFA40F20361322001F036FAF3
:103D50004FF4E061332001F031FA40F202213420C7
:103D600001F02CFA0221352001F028FA41F60F71FA
:103D7000362001F023FA40F20771372001F01EFAD5
:103D80000021382001F01AFA0021392001F016FA3A
:103D900040F207713A2001F011FA00213B2001F0B6
:103DA0000DFA07213C2001F009FA00213D2001F025
:103DB00005FA01E02006002032200021FCF7CCFDAE
:103DC0000121072001F0FAF90121172001F0F6F98D
:103DD00032200021FCF7C0FD4FF4BD51102001F04E
:103DE000EDF940F21721112001F0E8F94FF48F713D
:103DF000122001F0E3F900E09DE04FF47061132020
:103E000001F0DCF900212A2001F0D8F90A2129204B
:103E100001F0D4F94FF49F71122001F0CFF9002185
:103E2000502001F0CBF9EF21512001F0C7F900211A
:103E3000522001F0C3F940F23F11532001F0BEF9C6
:103E40004FF41C51602001F0B9F90121612001F00B
:103E5000B5F900216A2001F0B1F90021802001F0BC
:103E6000ADF90021812001F0A9F90021822001F0A3
:103E7000A5F90021832001F0A1F90021842001F09F
:103E80009DF90021852001F099F91321902001F07E
:103E900095F94FF44071922001F090F9052193209B
:103EA00001F08CF90021952001F088F9002197207C
:103EB00001F084F90021982001F080F94FF480711D
:103EC000012001F07BF94FF4E061022001F076F966
:103ED00041F23801032001F071F90021042001F0C2
:103EE0006DF900210C2001F069F900210F2001F08B
:103EF00065F90021202001F061F90021212001F065
:103F00005DF92121072001F059F914200021FCF767
:103F100023FD6121072001F051F914200021FCF755
:103F20001BFD40F27311072001F048F91420002115
:103F3000FCF712FD86E4FE4880884BF2055188426A
:103F40007ED10021084601F039F90021084601F030
:103F500035F90021084601F031F90021084601F049
:103F60002DF90121A42001F029F914200021FCF7EA
:103F7000F3FC4FF41C51602001F020F940F20221C3
:103F8000082001F01BF94FF40571302001F016F9FB
:103F900043F21571312001F011F940F20461322031
:103FA00001F00CF940F61661332001F007F942F2F6
:103FB0001121342001F002F94FF4A851352001F00D
:103FC000FDF848F20751362001F0F8F841F20741B8
:103FD000372001F0F3F841F20341382001F0EEF808
:103FE0002021392001F0EAF81A21902001F0E6F8AA
:103FF0000021102001F0E2F80721112001F0DEF885
:104000000021122001F0DAF80021132001F0D6F887
:1040100014200021FCF7A0FC4FF4E661102001F011
:10402000CDF840F23711112001F0C8F8142000211A
:10403000FCF792FC4FF4DC71122001F0BFF800E0B5
:104040008AE014200021FCF787FC4FF470611320F4
:1040500001F0B4F880212A2001F0B0F8482129208D
:1040600001F0ACF814200021FCF776FC4FF48071CD
:10407000012001F0A3F84FF4E061022001F09EF866
:1040800041F23801032001F099F840F202210820A2
:1040900001F094F800210A2001F090F800210C2092
:1040A00001F08CF800210D2001F088F830210E205D
:1040B00001F084F80021502001F080F8EF21512018
:1040C00001F07CF80021522001F078F840F23F1115
:1040D000532001F073F84FF41C51602001F06EF88A
:1040E0000121612001F06AF800216A2001F066F8E0
:1040F0001121902001F062F84FF4C061922001F08C
:104100005DF840F20241932001F058F8022194201A
:1041100001F054F814200021FCF71EFC01210720B7
:1041200001F04CF814200021FCF716FC6121072057
:1041300001F044F840F27311072001F03FF800212C
:10414000202001F03BF80021212001F037F8222146
:10415000002001F033F821E3754880884CF20551C6
:1041600088427CD10021084601F028F80021084649
:1041700001F024F814200021FCF7EEFB0021084692
:1041800001F01CF80021084601F018F8002108464B
:1041900001F014F80021084601F010F80121A420D4
:1041A00001F00CF814200021FCF7D6FB4FF41C5151
:1041B000602001F003F840F60601082000F0FEFF41
:1041C00040F20371302000F0F9FF0121312000F0AE
:1041D000F5FF0421322000F0F1FF4FF4817133200C
:1041E00000F0ECFF4FF44071342000F0E7FF40F2A4
:1041F0000311352000F0E2FF1F21362000F0DEFF22
:1042000040F20371372000F0D9FF0121382000F07F
:10421000D5FF0421392000F0D1FF1521902000F0B6
:10422000CDFF4FF48261102000F0C8FF40F247211B
:10423000112000F0C3FF4FF4DE71122000F0BEFF2A
:104240004FF46061132000F0B9FF78200021FCF7E3
:1042500083FB4FF48071012000F0B0FF00E056E0D6
:104260004FF40071022000F0A9FF41F23001032059
:1042700000F0A4FF08210A2000F0A0FF00210C207C
:1042800000F09CFF20210E2000F098FF00210F205D
:1042900000F094FF0021202000F090FF0021212059
:1042A00000F08CFF3D212A2000F088FF142000211F
:1042B000FCF752FB2D21292000F080FF0021502027
:1042C00000F07CFF4DF2EF01512000F077FF00215C
:1042D000522000F073FF40F23F11532000F06EFFB8
:1042E0000021612000F06AFF00216A2000F066FFD3
:1042F0004FF44071922000F061FF0521932000F0FF
:104300005DFF4FF48071072000F058FF46E2084837
:10431000808844F2315188427ED10121002000F092
:104320004DFF0A200021FCF717FB41F2286101E054
:1043300020060020102000F041FF0E21122000F086
:104340003DFF40F63921132000F038FF0A200021FC
:10435000FCF702FB4021112000F030FF5021152016
:1043600000F02CFF0A200021FCF7F6FA1E21122093
:1043700000F024FF0A200021FCF7EEFA4FF4B151BF
:10438000102000F01BFF42F63921132000F016FF29
:104390000A200021FCF7E0FA4FF48071012000F0C0
:1043A0000DFF4FF44071022000F008FF41F2380188
:1043B000032000F003FF40F20221082000F0FEFE7F
:1043C00008210A2000F0FAFE0021302000F0F6FE5D
:1043D00040F20241312000F0F1FE4FF483713220AF
:1043E00000F0ECFE40F20351332000F0E7FE4FF402
:1043F0008271342000F0E2FE40F20131352000F0FD
:10440000DDFE40F20771362000F0D8FE40F20531A3
:10441000372000F0D3FE00E043E04FF40271382073
:1044200000F0CCFE40F60B71392000F0C7FE0221EF
:10443000412000F0C3FE4FF41C51602000F0BEFE8E
:104440000121612000F0BAFE4FF40471902000F0C9
:10445000B5FE4FF48571922000F0B0FE0421932048
:1044600000F0ACFE4FF48071A02000F0A7FE012107
:10447000072000F0A3FE2121072000F09FFE23214A
:10448000072000F09BFE3321072000F097FE40F24A
:104490003311072000F092FE0021A02000F08EFED4
:1044A0007CE1BF48808844F2355188427ED130217A
:1044B000152000F083FE10219A2000F07FFE2021BD
:1044C000112000F07BFE43F22841102000F076FE20
:1044D0000221122000F072FE41F23801132000F098
:1044E0006DFE28200021FCF737FA1221084600F063
:1044F00065FE28200021FCF72FFA43F2204110200E
:1045000000F05CFE43F23801132000F057FE462015
:104510000021FCF721FA0021302000F04FFE40F28C
:104520000241312000F04AFE40F20731322000F013
:1045300045FE4FF44171332000F040FE0421342049
:1045400000F03CFE40F20141352000F037FE40F221
:104550000771362000F032FE40F20531372000F0BE
:104560002DFE4FF4C261382000F028FE4FF4C261E6
:10457000392000F023FE4FF48071012000F01EFE70
:104580004FF44071022000F019FE41F23001032087
:1045900000F014FE40F60801082000F00FFE08218C
:1045A0000A2000F00BFE4FF41C5100E034E06020C4
:1045B00000F004FE0121612000F000FE4FF49F7125
:1045C000902000F0FBFD4FF48071922000F0F6FD8A
:1045D0004FF48071932000F0F1FD4FF44051A02082
:1045E00000F0ECFD1021A32000F0E8FD01210720E0
:1045F00000F0E4FD2121072000F0E0FD2321072049
:1046000000F0DCFD3321072000F0D8FD40F233112B
:10461000072000F0D3FDC1E06148808841F66311B6
:104620008842F8D1E22000F0B9FD1D2000F0B0FD75
:10463000022000F0ADFD042000F0AAFD642000215E
:10464000FCF7EAF9E02000F0A9FD012000F0A0FD50
:104650000A200021FCF780F9E02000F09FFD0320F4
:1046600000F096FD0C200021FCF776F9012000F007
:1046700095FD0A200021FCF76FF9E62000F08EFD81
:104680002F2000F085FDFF2000F082FDFF2000F0CC
:104690007FFDB02000F082FD202000F079FD002099
:1046A00000F076FD032000F073FD40F21F3000F0B3
:1046B0006FFD012000F06CFD40F2DF1000F068FD9E
:1046C000002000F065FDB42000F068FD042000F03B
:1046D0005FFD40F21F4000F05BFD002000F058FD40
:1046E0002E2000F055FD002000F052FD002000F0CB
:1046F0004FFD002000F04CFD002000F049FDB620E9
:1047000000F04CFD022000F043FD4FF4037000F078
:104710003FFD002000F03CFD172000F039FD152082
:1047200000F036FD002000F033FD002000F030FDE9
:10473000F02000F033FD032000F02AFD292000F0D6
:104740002DFDD02000F02AFD002000F021FDBE202C
:1047500000F024FD052000F01BFDFE2000F018FDF8
:10476000012000F015FD002000F012FD002000F0F7
:104770000FFD002000F00CFDB82000F00FFD03201D
:1047800000F006FD012000F003FDBA2000F006FD58
:10479000012000F0FDFC642000F086FA10BD00004E
:1047A0002006002010B50446002C66D16C498871A3
:1047B000F02008804FF4A07048800846808849F2B5
:1047C000413188420BD06648808846F60401884211
:1047D00005D06348808845F2103188421AD12C20D8
:1047E0005F4908812A2048812B20888108468088DB
:1047F00046F60401884205D05948808845F21031B8
:10480000884206D14FF4A070554908804FF4F070EB
:104810004880A1E05248808845F21051884210D16A
:104820004FF430504E4908814FF4285048814FF4DE
:104830002C5088814FF4F07008804FF44870488005
:104840008AE04748808841F6631188420DD12C20C8
:10485000434908812B2048812A2088814FF4F07039
:1048600008804FF44870488076E022203C49088157
:1048700020204881212088816EE0012038498871FC
:104880004FF4A0700880F02048800846808849F2E4
:104890004131884205D03248808845F21031884243
:1048A00007D12C202E4908812A2048812B2088817D
:1048B0003FE02B48808846F60401884207D12C202F
:1048C000274908812B2048812A20888131E024480B
:1048D000808845F21051884210D14FF43050204961
:1048E00008814FF4285048814FF42C5088814FF4B0
:1048F000487008804FF4F07048801AE018488088AB
:1049000041F6631188420DD12C20154908812A20D7
:1049100048812B2088814FF4487008804FF4F07054
:10492000488006E022200E4908812120488120206D
:1049300088810B48808846F60401884205D00848E3
:10494000808845F21031884206D14FF4F070044956
:1049500008804FF4A0704880002000F0CFF910BD0F
:104960002006002000B59DB00121080200F07AFC6D
:1049700001200790002008900F20099000200A9045
:104980000B900C900D90009001900320029000205D
:10499000039004900590069006200E9000200F9042
:1049A00010901020119000201290149013901590E8
:1049B00016904FF480501790002018904FF48040CC
:1049C000199000201A9007A81B90CDF870D00EA85F
:1049D000FCF7F0F901210620FCF7D2F91DB000BD6B
:1049E00008B501214FF4B47000F05CFC0120ADF873
:1049F000000010208DF8030003208DF802006946A6
:104A00001648FCF74AFA4CF23370ADF80000182053
:104A10008DF8030003208DF8020069461048FCF76A
:104A20003CFA4FF68070ADF8000018208DF80300B6
:104A300003208DF8020069460A48FCF72EFA41F27D
:104A40000100ADF8000018208DF8030003208DF858
:104A5000020069460448FCF720FA08BD000C01403A
:104A600000140140001801400020014010B5FFF77C
:104A7000B7FFFFF777FF32200021FBF76DFF00F053
:104A80001BF8FCF71DFC0020FFF78CFE01210448F9
:104A9000FCF797FA4FF6FF70FCF7ACFB10BD000077
:104AA000000C014008B5034800880090BDF80000E4
:104AB00008BD00000008006C10B5002000F0E8F808
:104AC0006E49888008468088FF280ADB084680886F
:104AD0004FF6FF71884204D068488088B0F5134FC4
:104AE0007ED1D32000F05AFBFFF7DCFF63498880BA
:104AF000FFF7D8FF61498880FFF7D4FF5F498880BE
:104B0000084680884FF6FF7101EA00205B498880E3
:104B1000FFF7C8FF594989880843584988800846E3
:104B2000808849F2413188425AD0BF2000F036FBDC
:104B3000FFF7B8FF51498880FFF7B4FF4F498880DD
:104B4000FFF7B0FF4D498880FFF7ACFF4B498880E5
:104B5000084680884FF6FF7101EA002047498880A7
:104B6000FFF7A0FF454989880843444988800846E3
:104B7000808846F6040188427AD0D42000F00EFBEB
:104B8000FFF790FF3D498880FFF78CFF3B49888005
:104B9000FFF788FF39498880084680884FF6FF7103
:104BA00001EA002035498880FFF77CFF3349898876
:104BB0000843324988800846808845F2103188428F
:104BC00056D04FF45A4000F0E9FAFFF76BFF2B493B
:104BD00088804FF45B4000F0E1FAFFF763FF00E0EC
:104BE00046E026498880084680884FF6FF7101EA32
:104BF0000020224988804FF45C4000F0CFFAFFF794
:104C000051FF1E49898808431C49888008468088CE
:104C1000B0F5004F02D145F21050888017488088C7
:104C200045F21051884223D0A12000F0B7FAFFF7D7
:104C300039FF12498880FFF735FF10498880084600
:104C400080884FF6FF7101EA00200C498880FFF749
:104C500029FF0A49898808430849888008468088CE
:104C600045F26171884203D141F66310034988809F
:104C70000248818802A000F07DFF10BD20060020C0
:104C80006C6364206964EFBC9A25580D0A0000002B
:104C900010B50446204600F081FA05200021FBF7FC
:104CA000BBFEFFF7FFFE10BD2DE9F0470446BE2016
:104CB00000F074FA052000F06BFA2046FBF7BEFC0A
:104CC00007464FF066320C4BFBF7C1FB0546FBF77E
:104CD000C2FC1FFA80F9484600F05AFA012000F0A1
:104CE00057FAFF2000F054FA002000F051FA00209B
:104CF00000F04EFABDE8F0876666044070B50446E1
:104D000000230026B748807901280BD1B548808858
:104D100046F60401884205D0B248808841F6631106
:104D2000884208D1AF488079F0B9AE48808841F612
:104D30006311884218D1082C15D2DFE804F004066C
:104D4000080A0C0E101206240DE007240BE00424C0
:104D500009E0052407E0012405E0002403E0032422
:104D600001E0022400BF00BF9E48808849F2413123
:104D7000884217D09B48808846F60401884211D0AB
:104D80009848808845F2103188420BD09548808839
:104D900045F21051884205D09248808841F663114F
:104DA00088427DD1082C1CD2DFE804F00406090CEF
:104DB0000F12151800BF14E043F0800311E043F018
:104DC00040030EE043F0C0030BE043F0200308E093
:104DD00043F0600305E043F0A00302E043F0E0038A
:104DE00000BF00BF7F48808845F21051884202D141
:104DF0004FF4585600E036267A48808845F2103144
:104E000088420DD07748808845F21051884207D0FB
:104E10007448808841F66311884201D043F008034A
:104E20007048808846F60401884201D143F00203AD
:104E30001946304600F0C2F96A48808841F663118D
:104E400088421DD003F0200068B16648008865499B
:104E50004988884214DA6348058840886149088097
:104E6000084645800CE05F4800885E4949888842D2
:104E700006DD5C48058840885A4908800846458018
:104E80005848808845F21051884254D15549488984
:104E900000F084F9002000F07BF95249498900E0D4
:104EA00078E0491C88B200F079F9002000F070F930
:104EB0004C494989891C88B200F070F94949098830
:104EC000491EC1F30F2000F063F946494989C91C06
:104ED00088B200F063F943490978491EC8B200F06E
:104EE00057F94049888900F059F9002000F050F93D
:104EF0003C498989491C88B200F050F9002000F033
:104F000047F938498989891C88B200F047F9354941
:104F10004988491EC1F30F2000F03AF931498989C7
:104F2000C91C88B200F03AF92E498978491EC8B2E6
:104F300000F02EF955E02B49488900F02FF90020A8
:104F400000F026F9002000F023F926490988491EBF
:104F5000C1F30F2000F01CF922490978491EC8B29C
:104F600000F016F91F49888900F018F9002000F0B8
:104F70000FF9002000F00CF91A494988491EC1F3C5
:104F80000F2000F005F917498978491EC8B200F0D2
:104F9000FFF826E0082C1CD2DFE804F004070A0D15
:104FA0000F12151843F0300313E043F0100310E024
:104FB00043F020030DE000BF0BE043F0380308E0AE
:104FC00043F0280305E043F0180302E043F0080330
:104FD00000BF00BF032643F480531946304600F05B
:104FE000EDF870BD2006002010B503460C4667485A
:104FF000808849F24131884205D06448808845F272
:105000001031884214D16149488900F0C7F818125C
:1050100000F0BEF8D8B200F0BBF85C49888900F017
:10502000BDF8201200F0B4F8E0B200F0B1F8ABE047
:105030005648808846F6040188421DD1534880793D
:10504000012804D151480088401EC01A83B24F493C
:10505000488900F0A3F8181200F09AF8D8B200F0CE
:1050600097F84A49888900F099F8201200F090F8E2
:10507000E0B200F08DF887E04448808841F6631183
:10508000884247D141488079A8B940480088401EED
:10509000C01A83B23D49488900F080F8002000F032
:1050A00077F8002000F074F8181200F071F8D8B208
:1050B00000F06EF816E03549488900F06FF81812D4
:1050C00000F066F8D8B200F063F830490988491E4C
:1050D000C1F30F2000F05CF82C490978491EC8B2D2
:1050E00000F056F82949888900F058F8201200F09D
:1050F0004FF8E0B200F04CF824494988491EC1F34A
:105100000F2000F045F821498978491EC8B200F007
:105110003FF839E01D48808845F21051884220D17F
:105120001A49488900F03AF8181200F031F8174986
:105130004989491C88B200F031F8D8B200F028F84B
:105140001249888900F02AF8201200F021F80F494E
:105150008989491C88B200F021F8E0B200F018F803
:1051600012E00A488079012804D108480088401ECE
:10517000C01A83B205494889194600F01FF803494F
:105180008889214600F01AF810BD00002006002092
:1051900001490880704700000008006C0149088040
:1051A00070470000FE07006C024800890249088031
:1051B0007047000020060020FE07006C024A1080A5
:1051C000921C118070470000FE07006C04E018F08C
:1051D00011F864201EF04AFFF9E700BFFEE77047B0
:1051E00070B5002100230F22C47804B3154C246845
:1051F00004F4E064C4F5E064210AC1F10403CA4088
:10520000447804FA03F184781440214309010E4CD8
:105210000678A155047804F01F050124AC400578F8
:105220006D11AD0005F1E025C5F8004109E00478F5
:1052300004F01F050124AC40044D0678761145F8B2
:10524000264070BD0CED00E000E400E080E100E0ED
:1052500002490143024A1160704700000000FA054C
:105260000CED00E029B1064A52690243044B5A6131
:1052700004E0034A52698243014B5A6170470000BF
:105280000010024029B1064AD2690243044BDA6198
:1052900004E0034AD2698243014BDA61704700009F
:1052A0000010024029B1064A92690243044B9A61F8
:1052B00004E0034A92698243014B9A6170470000FF
:1052C0000010024030B500210022002400232D4DA3
:1052D0006D6805F00C0121B1042905D0082923D1FE
:1052E00005E0294D056022E0274D05601FE0254DB2
:1052F0006D6805F47012234D6D6805F48034022545
:1053000005EB92421CB9214D554305600BE01D4D44
:105310006D6805F400351DB11C4D5543056002E074
:10532000194D5543056002E0174D056000BF00BFF1
:10533000144D6D6805F0F0010909154D6B5C0568A9
:10534000DD4045600F4D6D6805F4E061090A104DC0
:105350006B5C4568DD4085600A4D6D6805F4605101
:10536000C90A0B4D6B5C4568DD40C560054D6D6835
:1053700005F44041890B074D6B5CC568B5FBF3F53F
:10538000056130BD0010024000127A0000093D00A6
:10539000000000201000002010B500F001F810BD42
:1053A0000CB50020019000903348006840F4803034
:1053B0003149086000BF3048006800F400300090B8
:1053C0000198401C0190009818B90198B0F5A06FA1
:1053D000F1D12948006800F4003010B1012000909C
:1053E00001E0002000900098012843D12348006884
:1053F00040F01000214908600846006820F00300D2
:1054000008600846006840F0020008601A484068DA
:10541000194948600846406848600846406840F4BA
:10542000806048600846406820F47C104860084668
:10543000406840F4E81048600846006840F080701A
:10544000086000BF0C48006800F000700028F9D028
:105450000948406820F00300074948600846406852
:1054600040F00200486000BF0348406800F00C00B4
:105470000828F9D10CBD00000010024000200240B5
:1054800010B500BFBF2080F31188BFF34F8FBFF36B
:105490006F8F00BF1FF012FA18B14FF0805004490F
:1054A000086000BF002080F3118800BF10BD00001D
:1054B00004ED00E010B51348006840F00100114908
:1054C000086008464068104908400E494860084690
:1054D00000680E4908400B4908600846006820F43F
:1054E000802008600846406820F4FE0048604FF4C1
:1054F0001F008860FFF750FF4FF00060044908600C
:1055000010BD0000001002400000FFF8FFFFF6FE93
:1055100008ED00E010B50121084800F022F858B16C
:10552000012018F055F806480068401C044908603E
:105530000121024800F006F810BD000000100040F4
:1055400028030020CA430282704721B1028842F03A
:105550000102028004E002884FF6FE731A400280C6
:10556000704730B50246002000230024158A05EA62
:105570000103958905EA010413B10CB1012000E093
:10558000002030BD1AB183890B43838102E08389F7
:105590008B438381704700001FB501211020FFF766
:1055A00071FE40F2E730ADF808004720ADF8040086
:1055B0000020ADF80A00ADF806008DF80C0001A936
:1055C0000D4800F01BF836208DF8000003208DF800
:1055D000010000208DF8020001208DF803006846CC
:1055E000FFF7FEFD012211460348FFF7CBFF012123
:1055F0000148FFF7AAFF1FBD0010004000220288EB
:105600001D4B98420ED01D4B98420BD0B0F1804FED
:1056100008D01B4B984205D01A4B984202D01A4B27
:10562000984204D14FF68F731A404B881A43174B98
:10563000984207D0164B984204D04FF6FF431A40C9
:10564000CB881A4302808B8883850B8803850A4B9D
:1056500098420BD0094B984208D00E4B984205D087
:105660000D4B984202D00D4B984201D10B7A038624
:105670000123838270470000002C01400034014068
:105680000004004000080040000C004000100040F2
:105690000014004000400140004401400048014027
:1056A00010B5002440F22551174800F09BF901285D
:1056B00018D11648C07803280CD2134800F04EFACF
:1056C000C1B21248C278C078401C104BD87018463E
:1056D000815402E00C4800F041FA40F225510A489A
:1056E00000F058F940F22441074800F07BF9012806
:1056F00008D10649087104480088C4B2024880886D
:10570000C4B200BF10BD000000500040A400002043
:1057100070B540F225511E4800F064F9C0B11C4834
:1057200000F01CFAC4B21B4890F8020178B919487D
:10573000B0F80001FF280ADC1648B0F80011B0F8F4
:105740000001401C134AA2F800011046445400BF57
:1057500040F224410E4800F045F950B10C48008851
:10576000C5B20B48001D0088C5B20120094981F867
:1057700002010821064800F028F938B104480088E1
:10578000C5B20348001D0088C5B200BF70BD00004F
:10579000003801402E06002000B587B0012144F2F8
:1057A0000400FFF77FFD4FF40070ADF818001820DB
:1057B0008DF81B0003208DF81A0006A92148FBF77D
:1057C0006CFB4FF48060ADF8180004208DF81B00CE
:1057D00006A91C48FBF761FB4FF4E1300290002062
:1057E000ADF80C00ADF80E00ADF81000ADF81400E7
:1057F0000C20ADF8120002A9134800F043F925204F
:105800008DF8040002208DF8050001208DF80600B7
:105810008DF8070001A8FFF7E3FC012240F22551B3
:10582000094800F009F9012240F22441064800F03D
:1058300003F90121044800F0BCF8034800F08EF998
:1058400007B000BD000801400038014010B5044613
:1058500000BF8021084800F0B8F80028F9D02146A0
:10586000054800F080F900BF4021034800F0ADF882
:105870000028F9D010BD00000038014038B50024E0
:1058800040F225511E4800F0ADF8012814D11D4802
:10589000807A08280BDA1A4800F060F9C1B219487A
:1058A000827A807A401C174B98721846815440F2D5
:1058B0002551134800F06EF840F22441104800F0E2
:1058C00091F801281AD10F49C8720020009069464A
:1058D0000D4800681EF0B4FE009838B14FF08050BB
:1058E0000A490860BFF34F8FBFF36F8F04480088E9
:1058F000C4B20348001D0088C4B200BF38BD000018
:1059000000440040000600204C00002004ED00E0B0
:1059100010B5002440F225511B4800F063F801281F
:1059200020D11948001D0088C4B2184804801848C6
:10593000B0F80012B0F80002401C154AA2F80002AC
:10594000104644540146B1F80002C11700EBD15192
:105950004912A0EB4121A2F8001240F225510A4859
:1059600000F018F840F22441074800F03BF8012805
:1059700009D1074981F8020203480088C4B20248ED
:10598000001D0088C4B210BD00480040043801402A
:105990001801002010B50022002340F66A14A1422D
:1059A00000D100BF0A1201249440A3B2DC4304805A
:1059B00010BD21B1828942F40052828104E08289C3
:1059C0004DF6FF731A408281704702460020B1F500
:1059D000007F00D100BF13880B400BB1012000E015
:1059E0000020704770B502460024002300250020E7
:1059F00040F66A16B14200D100BFC1F3421501F072
:105A00001F03012606FA03F3012D02D196893340C4
:105A100006E0022D02D1168A334001E0968A334017
:105A20000C12012606FA04F41688344013B10CB1A6
:105A3000012000E0002070BDF0B5034600240026E0
:105A40000025002040F66A17B94200D100BF184671
:105A5000C1F3421401F01F06012707FA06F5012CD5
:105A600001D10C3004E0022C01D1103000E01430E0
:105A70001AB107682F43076002E00768AF43076069
:105A8000F0BD00002DE9F04786B005460E46002423
:105A9000A24600BFA1460027B08900B100BF2F4633
:105AA0002C8A4CF6FF700440F08804432C82AC89A9
:105AB0004EF6F3100440B0883189084371890843D9
:105AC0000443AC81AC8A4FF6FF400440B0890443E4
:105AD000AC8201A8FFF7F6FB1F48874202D1DDF830
