:020000040800F2
:1000000020C20020DD01000845700008D11D000855
:1000100041700008C5110008598600080000000062
:100020000000000000000000000000004501000882
:10003000691300080000000089010008A179000888
:10004000F7010008F7010008F7010008F7010008B0
:10005000F7010008F7010008F7010008F7010008A0
:10006000F7010008F7010008F7010008F701000890
:10007000F7010008F7010008F7010008F701000880
:10008000F7010008F7010008F7010008F701000870
:10009000F7010008F7010008F7010008F701000860
:1000A000F7010008F7010008F7010008F701000850
:1000B000F7010008F7010008F7010008F701000840
:1000C000F7010008F7010008F7010008F701000830
:1000D000F7010008317C00089D7D0008317E000892
:1000E000F7010008F7010008F7010008F701000810
:1000F000F7010008F7010008F7010008F701000800
:10010000F7010008F7010008F7010008F7010008EF
:10011000F7010008C17B0008357A0008F7010008E4
:10012000F7010008F7010008F7010008F7010008CF
:10013000DFF80CD000F008FD00480047FD0A020877
:1001400020C20020224B19680868B0E8F00F80F345
:100150000988BFF36F8F4FF0000080F311884EF0D5
:100160000D0E70470000000006480068006880F32C
:10017000088862B661B6BFF34F8FBFF36F8F00DFA1
:1001800000BF00BF08ED00E0EFF30980BFF36F8F01
:100190000F4B1A6820E9F00F106008B54FF0BF0050
:1001A00080F31188BFF34F8FBFF36F8F27F0DCFB15
:1001B0004FF0000080F31188BDE808401968086816
:1001C000B0E8F00F80F30988BFF36F8F704700BF6E
:1001D00048030020EFF30580704700000648804781
:1001E00006480047FEE7FEE7FEE7FEE7FEE7FEE71C
:1001F000FEE7FEE7FEE7FEE7D579000831010008DB
:100200002DE9F05F0546002092469B46884606464B
:10021000814640241BE0284641464746224600F0DE
:100220008CFB53465A46C01A914110D311461846CA
:10023000224600F073FB2D1A67EB01084F46224659
:100240000120002100F06AFB17EB00094E41201E3F
:10025000A4F10104DFDC484631462A464346BDE8A6
:10026000F09F0000014610B509683C22B1FBF2F393
:1002700002FB1313B1FBF2F11D480360B1FBF2F373
:1002800002FB1313B1FBF2F118224360B1FBF2F34E
:1002900002FB1313B1FBF2F183600A1D0723B2FBCB
:1002A000F3F403FB142282618A0040F2B55102F696
:1002B0006C32B2FBF1F344334361B2FBF1F301FB67
:1002C00013218908C1613B2903D3027D920700D025
:1002D000491C0022074C13460261E25C8A4203D8A3
:1002E000891A5B1C0361F8E7491CC16010BD00005E
:1002F000F0BC00208EF8070840EA01039B0703D0FA
:1003000009E008C9121F08C0042AFAD203E011F854
:10031000013B00F8013B521EF9D27047D2B201E016
:1003200000F8012B491EFBD270470022F6E710B5FA
:1003300013460A4604461946FFF7F0FF204610BD53
:1003400030B505462A460B4612F8010B13F8014B4F
:1003500008B1A042F8D01CB1002802D06D1CF1E712
:10036000284630BDCAB2401E10F8011F8A4202D092
:100370000029F9D100207047421C10F8011B002908
:10038000FBD1801A704710B5002200E0521C835C3C
:100390008C5CA34201D1002BF8D1D8B2E1B2401A53
:1003A00010BD30B504460020034600E05B1C9342BC
:1003B00003D2E05CCD5C401BF8D030BD034611F8A1
:1003C000012B00F8012B002AF9D11846704770B5AF
:1003D000064608F0D9F9046805460A22002130468D
:1003E00000F0CDFA2C6070BD30B480EA010202F05A
:1003F000004530F0004221F0004013D090B1C30D11
:10040000D40DC2F31601C0F31600E41A41F4000142
:1004100040F400027D34914201D3641C00E04900A5
:10042000002C02DA30BC002070474FF4000000239B
:10043000914201D3891A034340084FEA4101F7D1A1
:1004400051B1914202D14FF0004105E002D24FF08C
:10045000010101E06FF0010103EBC450284430BCFE
:1004600000F0C5BA2DE9FE4F804681EA0300C00FB7
:100470000C46009021F0004123F00045B8EB02004B
:10048000A94105D24046214690461C460B460246ED
:1004900023F00040104347D0270DC7F30A00C3F3F1
:1004A0000A510290401A019040286BDAC3F31300FE
:1004B00040F4801B0098924620B10023D2EB030A3F
:1004C00063EB0B0B01985946C0F14002504600F017
:1004D00025FA06460D4650465946019A00F03DFA67
:1004E00010EB08006141002487EA115284EAE773A7
:1004F0001A4340D0009A62B3019A012A4FEA075288
:1005000015DC001B61EB02014FF0004202EA0752CA
:10051000CDE90042001C41F5801132462B4600F027
:10052000ACFA03B0BDE8F08F40462146F9E7001B66
:1005300061EB0201001C41F5801300185B4120189B
:10054000A2F5001747EB030140EAD570B6196D41DB
:1005500011E06D084FEA360645EAC0754FEA0752CA
:10056000001B61EB0201001C41F5801149084FEAB4
:1005700030000019514132462B4603B0BDE8F04F20
:1005800000F06CBA0098012240000023D0EB020278
:1005900063EBE073009821464FEAE074B8EB00008B
:1005A00061EB0401E9E783F000435BE781F0004180
:1005B00058E72DE9FE4F81EA030404F0004421F0DE
:1005C000004100944FF0000B23F0004350EA010477
:1005D0005ED052EA03045BD0C3F30A54C1F30A5558
:1005E0002C44A4F2F3340194A0FB0254C1F3130190
:1005F00041F48011C3F3130343F4801301FB02445D
:1006000000FB034E840A970A44EA815447EA835761
:10061000A4FB076802958D0A05FB07854FEA932C1A
:1006200004FB0C542705029D4FEA065847EA16378B
:10063000B5EB08056EEB070C870E920E47EA8117A3
:1006400042EA8312A7FB0201B6EB0B0164EB000444
:100650002B0D43EA0C335E1844EB1C50DA4651462E
:10066000E7FB0201C5F313044FEA0B3343EA1453CB
:100670004FEA0432019C43EA0603A4F10C040294FD
:10068000009CCDE900B400F0F8F903B0BDE8F08FAC
:1006900000200146F9E72DE9F04D81EA030404F05A
:1006A000004B21F0004514464FF0000A23F00041B2
:1006B00050EA050220D054EA01021DD0C5F30A57C2
:1006C0000246C5F31303C1F31300C1F30A5640F405
:1006D000801543F48013A7EB0608101BD64608F2DA
:1006E000FD3873EB050002D308F1010801E0921810
:1006F0005B41B8F1000F03DA00200146BDE8F08D40
:1007000000204FF48011064684460EE0171B73EB61
:10071000050705D3121B63EB050306434CEA010CE6
:1007200049084FEA300092185B4150EA0107EDD1C9
:1007300052EA030012D082EA040083EA050108436A
:1007400005D0101BAB4106D20122002306E0002297
:100750004FF0004302E06FF0010253101AEB060065
:100760004CEB085110EB0A0041EB0B01BDE8F04DDA
:1007700000F074B996230022114600F041B90EB57D
:10078000C10F80EAE0700844CA07002140F23343F9
:100790008DE80E000A460B4600F06FF903B000BD6D
:1007A0000EB540F2334102910021CDE900110A4615
:1007B0000B4600F062F903B000BD00F0004220F0EB
:1007C0000040C10DC0F3160040F400007F2901DA9B
:1007D00000207047962903DCC1F19601C84001E072
:1007E00096398840002AF4D040427047C1F30A523B
:1007F00010B5C1F3130140F2FF3341F480119A4266
:1008000001DA002010BD40F233439A42A2F2334293
:1008100003DC524200F091F810BD904010BD00F092
:10082000004230F000400AD0C10D01F56071C0F304
:10083000160042EA0151C2084007114370470020E8
:100840000146704730B5041E71F1000404DB4FF01F
:100850000044404264EB0101141E73F1000405DB07
:100860001C464FF00043524263EB04038B4208BF27
:10087000824230BD30B5041E71F1000404DB4FF03C
:100880000044404264EB0101141E73F1000405DBD7
:100890001C464FF00043524263EB0403994208BFE9
:1008A000904230BD01F0004330B421F0004150EAE5
:1008B000010206D00A0DA2F56072C1F31301002AED
:1008C00002DC30BC00207047440F44EAC104C10080
:1008D000E01830BC00EBC25000F089B8002801DB02
:1008E000C0F10040002901DBC1F10041884270479E
:1008F00030B50B46014600202022012409E021FAF0
:1009000002F59D4205D303FA02F5491B04FA02F5EC
:100910002844151EA2F10102F1DC30BD202A04DBBF
:10092000203A00FA02F1002070479140C2F1200302
:1009300020FA03F3194390407047202A04DB203A41
:1009400021FA02F00021704721FA02F3D040C2F1EF
:1009500020029140084319467047202A06DBCB1736
:10096000203A41FA02F043EAE07306E041FA02F36A
:10097000D040C2F1200291400843194670472DE94A
:10098000F04791460F4680460446002614F8015B66
:100990002DB100F0EBF80068405DC007F6D12B2DBB
:1009A00002D02D2D18D0641E4A463946204600F04C
:1009B000E1F827B13968A14201D1C7F8008071057B
:1009C0004FF002040BD54042002803DD07F0DCFEA7
:1009D0000460A007BDE8F08746F48066E4E70028DD
:1009E000F8DA07F0D1FE04606FF00040F2E700296A
:1009F000A8BF7047401C490008BF20F001007047A5
:100A000010B4B0FA80FC00FA0CF050EA010404BF04
:100A100010BC704749B1CCF1200421FA04F411FA5A
:100A20000CF118BF012121430843A3EB0C01CB1D9E
:100A30004FEA00614FEA102042BF002010BC70470F
:100A400000EBC35010440029A4BF10BC7047401CE9
:100A5000490008BF20F0010010BC704710B5141EFB
:100A600073F1000408DA401C41F1000192185B4167
:100A70001A4301D120F0010010BD2DE9F04D92463E
:100A80009B4611B1B1FA81F202E0B0FA80F2203255
:100A90009046FFF743FF04460F4640EA0A0041EA4A
:100AA0000B0153465A46084313D0114653EA01003E
:100AB00019D0C8F140025046FFF73FFF05460E46E9
:100AC000504659464246FFF729FF084305D001200A
:100AD00004E020463946BDE8F08D0020054346EA93
:100AE000E0762C4337430A986305E40AA0EB08003C
:100AF0000022FD0A44EA47540A3002D5002001468C
:100B0000E9E7010510196941DDE908450019694166
:100B1000BDE8F04DA2E7C1F30A52C1F3130140F260
:100B2000FF3341F480119A4202DA002001467047F7
:100B300040F233439A42A2F2334202DC5242FFF7C0
:100B4000FCBEFFF7EBBE0000064C074D06E0E06878
:100B500040F0010394E8070098471034AC42F6D304
:100B6000FFF7EAFAC4FA0708E4FA070800487047F2
:100B70001CF907082DE9F05F82460078002715462A
:100B80008B460AF10104B946302801D09DB113E02B
:100B900014F8010B0127782803D0582801D045B15B
:100BA0000AE00DB1102D07D10027102514F8010B14
:100BB00002E0082500E00A250026B0460EE005FB0D
:100BC000080005FB06F1012701EB10461FFA80F82B
:100BD000B6F5803F00D3B94614F8010B294600F062
:100BE00018F80028EBDABBF1000F05D00FB1641E36
:100BF00000E05446CBF80040B9F1000F06D007F0F2
:100C0000C3FD02210160C81EBDE8F09F48EA06400E
:100C1000FAE73A2800D2303820F02002412A01D3E6
:100C2000A2F13700884201D34FF0FF30704770B512
:100C30008C1810F8015B15F0070301D110F8013B87
:100C40002A1106D110F8012B03E010F8016B01F80E
:100C5000016B5B1EF9D12B0705D40023521E0DD466
:100C600001F8013BFAE710F8013BCB1A921C03E0B4
:100C700013F8015B01F8015B521EF9D5A142D8D3EC
:100C8000002070BD21B1826842F00102826003E061
:100C9000826822F001028260704721B1826842F4CA
:100CA0008072826003E0826822F480728260704702
:100CB000014600208A6802F004020AB1012000E027
:100CC000002070470146C86C80B270470246002081
:100CD00013680B400BB1012000E000207047014673
:100CE00000208A6802F008020AB1012000E000201A
:100CF0007047000030B502460020002350680F4CBA
:100D000020400D790C6844EA052420435060906827
:100D10000B4C2040D1E902542C434D7944EA450460
:100D200020439060D06A20F470000C7C641EE4B212
:100D3000234340EA0350D06230BD0000FFFEF0FFC5
:100D4000FDF7F1FFF0B504460D4600200021092D06
:100D500011DDE068A5F10A0606EB4607072606FA4C
:100D600007F18843A5F10A0606EB460603FA06F1E9
:100D70000843E0600CE0206905EB4507072606FA0A
:100D800007F1884305EB450603FA06F108432061A5
:100D9000072A0FDA606B561E06EB86071F2606FA37
:100DA00007F18843561E06EB860605FA06F108434E
:100DB000606322E00D2A0FDA206BD61F06EB860750
:100DC0001F2606FA07F18843D61F06EB860605FAAA
:100DD00006F10843206310E0E06AA2F10D0606EB7D
:100DE00086071F2606FA07F18843A2F10D0606EBD7
:100DF000860605FA06F10843E062F0BD816841F01D
:100E000008018160704721B1826842F4A0028260CB
:100E100003E0826822F4A00282607047816841F09A
:100E2000040181607047000010B501248021114841
:100E300000F0C7FF40210F4800F0C1FF052000214E
:100E400000F0F3FA40210B4800F0BBFF0520002121
:100E500000F0EBFA8021074800F0A8FF00B9002459
:100E60004021044800F0ABFF0520002100F0DDFA2E
:100E7000204610BD000C014070B5002500248021E3
:100E8000154800F09EFF00BF1AE06006040E4021E6
:100E9000114800F094FF0520002100F0C6FA40211F
:100EA0000D4800F08EFF0520002100F0BEFA8021E1
:100EB000094800F07BFF08B144F00104681CC5B28A
:100EC000082DE2DB4021044800F079FF05200021D5
:100ED00000F0ABFA204670BD000C014010B504468E
:100EE0004021154800F06BFF0520002100F09DFA1D
:100EF00024B98021104800F062FF03E080210E48F1
:100F000000F05FFF0520002100F08FFA40210A4821
:100F100000F057FF0520002100F087FA4021064825
:100F200000F04DFF8021044800F04BFF0520002118
:100F300000F07BFA10BD0000000C014070B50546C2
:100F4000002422E04021164800F039FF052000214E
:100F500000F06BFA80202041284020B18021104809
:100F600000F02FFF03E080210D4800F028FF05204E
:100F7000002100F05AFA4021094800F022FF052024
:100F8000002100F052FA601CC4B2082CDADB4021C8
:100F9000034800F014FF0520002100F046FA70BD60
:100FA000000C014010B5044600F018F84620FFF789
:100FB000C5FFFFF739FF18B100F02CF8012010BD74
:100FC0002046FFF7BBFFFFF72FFF18B100F022F814
:100FD0000120F4E700F01EF80020F0E710B54021F2
:100FE0000B4800F0EEFE8021094800F0EAFE0520E3
:100FF000002100F01AFA8021054800F0E0FE0520EB
:10100000002100F012FA4021014800F0D8FE10BD86
:10101000000C014010B540210D4800F0D0FE8021A9
:101020000B4800F0CCFE0520002100F0FEF9402125
:10103000074800F0C6FE0520002100F0F6F98021E7
:10104000034800F0BEFE0520002100F0EEF910BDBF
:10105000000C014010B500F03FF81020FFF7A2FF90
:1010600008B1012010BDB420002100F07EF900205D
:10107000F8E700002DE9F041FFF7B0FF4720FFF748
:101080005DFFFFF7D1FE20B1FFF7C4FF1048BDE8B8
:10109000F081FFF7F1FE05460020FFF71FFFFFF785
:1010A000EBFE07460120FFF719FFFFF7B3FF47EA02
:1010B0000524B4F5803F01DB0548E8E72046FFF74B
:1010C00059FB80460349FFF78FF906463046DEE7B5
:1010D000000080BF9A99993F08B50121082006F0C9
:1010E00027F8C020ADF8000014208DF8030003207D
:1010F0008DF802006946064800F0CDFD4021044805
:1011000000F05FFE8021024800F05BFE08BD000099
:10111000000C014010B5012006F01AF8002006F07E
:1011200017F810BD08B50146002000900348009054
:101130000098084400900098008808BD006C0040AA
:1011400008B500220092044A0092009A02440092DC
:10115000009A116008BD0000006C004010B5044604
:10116000012C03D10121044800F02BFE1CB9012100
:10117000014800F024FE10BD001001408CB0FFF7C4
:10118000ABFFFFF767FF2C2101A8FFF7CEF800BFE8
:1011900000BF26F0CFF9FFF76DFF079026F0DCF9CE
:1011A00003208DF82E000023021F01A904480068C7
:1011B00026F010FE4FF47A7026F04AFAE9E70000B4
:1011C0005000002000BFFEE721B1026842F001029A
:1011D000026004E002684FF6FE731A400260704736
:1011E00001684FF6FE72114001600021016041600C
:1011F0008160C1604B49884208D14A490839496831
:1012000041F00F01474A083A51608AE045491431DC
:10121000884208D143490839496841F0F001414A00
:10122000083A51607DE03F492831884208D13D4964
:101230000839496841F470613A4A083A516070E0EF
:1012400038493C31884208D136490839496841F467
:101250007041344A083A516063E032495031884263
:1012600008D130490839496841F470212D4A083ABB
:10127000516056E02B496431884208D12949083928
:10128000496841F47001274A083A516049E025490C
:101290007831884208D123490839496841F07061A2
:1012A000204A083A51603CE01F49884206D1011F9C
:1012B000096841F00F01021F116032E01A49143130
:1012C000884208D11849091F096841F0F001164AFF
:1012D000121F116025E014492831884208D11249B3
:1012E000091F096841F470610F4A121F116018E06C
:1012F0000D493C31884208D10B49091F096841F466
:101300007041094A121F11600BE0074950318842B1
:1013100007D10549091F096841F47021024A121FCB
:1013200011607047080002400804024010B5002216
:10133000026847F6F0739A430C6A8B6823430C6982
:1013400023434C6923438C692343CC6923434C6A70
:1013500023438C6A23431A430260CB6843600B68C3
:1013600083604B68C36010BD7047F0B54FF47A736B
:1013700000260446A4FB032701FB037300FB063190
:10138000104647E000BF00BF00BF00BF00BF00BF66
:1013900000BF00BF00BF00BF00BF00BF00BF00BF55
:1013A00000BF00BF00BF00BF00BF00BF00BF00BF45
:1013B00000BF00BF00BF00BF00BF00BF00BF00BF35
:1013C00000BF00BF00BF00BF00BF00BF00BF00BF25
:1013D00000BF00BF00BF00BF00BF00BF00BF00BF15
:1013E00000BF00BF00BF00BF00BF00BF00BF00BF05
:1013F00000BF00BF00BF00BF00BF00BF00BF00BFF5
:1014000000BF00BF00BF00BF00BF00BF00BF00BFE4
:1014100000BF00BF0A460346401E61F100010025DF
:101420006B406A401343ADD1F0BD30B547E000BF1B
:1014300000BF00BF00BF00BF00BF00BF00BF00BFB4
:1014400000BF00BF00BF00BF00BF00BF00BF00BFA4
:1014500000BF00BF00BF00BF00BF00BF00BF00BF94
:1014600000BF00BF00BF00BF00BF00BF00BF00BF84
:1014700000BF00BF00BF00BF00BF00BF00BF00BF74
:1014800000BF00BF00BF00BF00BF00BF00BF00BF64
:1014900000BF00BF00BF00BF00BF00BF00BF00BF54
:1014A00000BF00BF00BF00BF00BF00BF00BF00BF44
:1014B00000BF00BF00BF00BF00BF00BF00BF0A46A3
:1014C0000346401E61F1000100256B406A40134352
:1014D000ADD130BD8CB000F021F82C2101A8FEF771
:1014E00024FF00BF00F032F80A4800680490094861
:1014F0004168059101208DF82E000023821E01A96C
:101500000548006826F066FC4FF4FA6026F0A0F863
:10151000E8E70000B80000205000002008B50121D5
:10152000080205F005FE002000904FF40060ADF8C1
:10153000000001208DF8020014208DF80300694698
:10154000014800F0A8FB08BD002001402DE9F0474C
:1015500086B000224FF40061864800F034FC192068
:101560000021FFF702FF0122D102824800F02BFC8C
:101570004FF0000A0DE001200021FFF756FF0AF1AD
:10158000010000F0FF0ABAF1640F02DD06B0BDE809
:10159000F0874FF40061774800F008FC0128EAD09A
:1015A0004FF0000A0BE001200021FFF73EFF0AF197
:1015B000010000F0FF0ABAF1640F00DDE6E74FF426
:1015C00000616C4800F0F2FB0028ECD00020049091
:1015D0000590002473E04FF0000A0BE00120002189
:1015E000FFF723FF0AF1010000F0FF0ABAF1640FD0
:1015F00000DDCBE74FF400615E4800F0D7FB012827
:10160000ECD04FF0000A0BE001200021FFF70DFFA6
:101610000AF1010000F0FF0ABAF1640F00DDB5E73E
:101620004FF40061534800F0C1FB0028ECD02820A3
:101630000021FFF7FAFE4FF400614E4800F0B6FBC0
:1016400001281DD12046E21704EB5272D210C2F1DC
:10165000040204AB9A5C2146E31704EB5373DB10DE
:10166000A4EBC303C3F107050123AB401A43E317FF
:1016700004EB5373DB10C3F1040304ADEA541CE024
:10168000E21704EB5272D210C2F1040204AB9A5C6E
:101690002146E31704EB5373DB10A4EBC303C3F140
:1016A00007050123AB409A432046E31704EB53732D
:1016B000DB10C3F1040304ADEA54601CC4B2282C4F
:1016C00089DB9DF814009DF8131008449DF8121052
:1016D00008449DF8111008449DF81010884200D06D
:1016E00054E79DF81100802822DB9DF81110A1F12C
:1016F0008000FFF744F880461F4A204BFEF759FF51
:1017000004460D469DF81200FFF74AF806462246A9
:101710002B46FEF7A7FE0022194BCDE90001FEF78C
:1017200048FFCDE90201FFF7BDF81649086019E04E
:101730009DF81100FFF734F806460F4A0F4BFEF7ED
:1017400038FF04460D469DF81200FFF729F8804641
:1017500022462B46FEF786FECDE90201FFF7A2F8EE
:10176000084908609DF81400FFF704F8054948602F
:1017700000BF0BE7002001409A9999999999B93FC8
:101780000000F0BFB80000202DE9F0415E4800786D
:1017900020B1012803D0022800D13AE0B1E05BA0DB
:1017A00006F023FD64200021FFF7DFFD59A006F0BD
:1017B0001CFD64200021FFF7D8FD5AA006F015FD9E
:1017C0004FF47A700021FFF7D0FD59A006F00DFD0F
:1017D00064200021FFF7C9FD5EA006F006FD64202D
:1017E0000021FFF7C2FD5EA006F0FFFC642000218F
:1017F000FFF7BBFD5EA006F0F8FC64200021FFF7B8
:10180000B4FD00F0E1F840480078401C3E49087003
:1018100077E05C4890F80202012871D1002564212C
:101820005948FEF782FD59A15648FEF789FD064644
:101830000EB33A213046FEF795FD0746D7B1222177
:101840003846FEF78FFD04469CB1641C002006E07C
:1018500014F8013B0146421CD0B24B4A5354217844
:10186000222901D03128F3D30021474A1154012500
:1018700000BF00BF00BF48A14248FEF761FD064619
:1018800036B33A213046FEF76DFD0746FFB12221FF
:101890003846FEF767FD0446C4B1641C002007E02B
:1018A00014F8013B0146421CD0B2374A323253543D
:1018B0002178222901D03128F2D300223249323155
:1018C0000A54012D01D1691CCDB200BF00BF00BF79
:1018D000022D12D12C4A32322B4932A006F030FFB1
:1018E00005F084FE0220274981F8030201203449D3
:1018F0000870344908691DF0CFFE00F065F800BF9C
:1019000000BF00BFBDE8F0813C03002041540D0A38
:101910000000000041542B43574D4F44453D320DCC
:101920000A00000041542B5253540D0A00000000DD
:1019300041542B43575341503D2258585858222C5C
:101940002231323334353637383930222C352C3386
:101950000D0A000041542B43494653520D0A000022
:1019600041542B4349504D55583D310D0A0000005C
:1019700041542B4349505345525645523D310D0A6F
:101980000000000030010020CC00002022776966B2
:10199000696E616D652200002270617373776F72EA
:1019A000642200005061727365643A2053534944C5
:1019B0003D25732C20504153533D25730D0A0000E3
:1019C000360300203456002010B54FF4007105484E
:1019D000FEF7ABFC00200349A1F8000281F80202E7
:1019E00010BD000030010020FEB5264890F802022C
:1019F000012844D124A12348FEF7A2FC0546002D6E
:101A00002ED00020009001900290AE1D00BF04E097
:101A1000315C0DF80010411CC8B20A28F8DB002028
:101A20008DF80A0069461AA006F08AFE6846FEF79D
:101A3000CEFC04461C4884420DD921461BA006F06A
:101A40007FFE04F5E14005F041FD214908691DF0E4
:101A500023FE0120FEBD21461EA006F071FE02E01D
:101A600023A006F06DFE4FF400710648FEF75DFC02
:101A700000200449A1F8000281F8020200BF002002
:101A8000E8E700003001002074696D650000000087
:101A90005061727365642074696D65207374723A65
:101AA0002025730D0A00000000105E5F56616C690E
:101AB000642054696D6521205570646174696E6796
:101AC0002052544320746F3A2025640D0A00000010
:101AD00034560020496E76616C69642054696D65E6
:101AE0002056616C75653A2025640D0A00000000DF
:101AF0004B6579776F7264202774696D6527206E56
:101B00006F7420666F756E6420696E2072657370E5
:101B10006F6E73650D0A000070B505460E461446DB
:101B2000FFF752FF284606F060FB19E0012025F080
:101B30008FFD01200021FFF718FC0D4890F80202EC
:101B400001280DD131460A48FEF7FAFB08B1012001
:101B500070BD08A10648FEF7F3FB08B10220F7E7C5
:101B6000201EA4F101018CB2E0D100BFF0E700001B
:101B7000300100204552524F5200000051B1820006
:101B8000A2F1C042126842F001038200A2F1C042F9
:101B9000136009E08200A2F1C0421268034B1A40B0
:101BA0008300A3F1C0431A6070470000FEFF0F00DE
:101BB000D0E901121143C26811430269114342691D
:101BC000114382691143C2691143026A1143426A97
:101BD0001143826A1143C26A1143026B11430268C6
:101BE0009200A2F1C0421160816808290BD10168FE
:101BF0008900A1F1C041096841F0400201688900F3
:101C0000A1F1C0410A60416B0968426B526841EA28
:101C10000211426B926841EA0221426B928941EAC9
:101C20000241426B128A41EA0251426B127D41EA43
:101C30000261426B926911430268521C9200A2F148
:101C4000C0421160C16AB1F5804F1BD1816B096838
:101C5000826B526841EA0211826B926841EA02216A
:101C6000826B128A41EA0251826B127D41EA026163
:101C7000826B9269114302689200A2F1C042C2F8DD
:101C8000041107E06FF0704201688900A1F1C041C2
:101C9000C1F8042170472DE9F041024600250026D5
:101CA000002000230024002791F803C00CF00F054A
:101CB00091F803C00CF0100CBCF1000F03D091F8A8
:101CC00002C04CEA050591F800C0BCF1000F31D00C
:101CD000146800202BE04FF0010C0CFA00F3B1F86F
:101CE00000C00CEA03069E4220D183004FF00F0C87
:101CF0000CFA03F7BC4305FA03FC4CEA040491F820
:101D000003C0BCF1280F06D14FF0010C0CFA00FC07
:101D1000C2F814C00AE091F803C0BCF1480F05D125
:101D20004FF0010C0CFA00FCC2F810C0401C08284F
:101D3000D1D31460B1F800C0BCF1FF0F34DD54689A
:101D400000202EE000F1080C4FF0010808FA0CF317
:101D5000B1F800C00CEA03069E4221D183004FF087
:101D60000F0C0CFA03F7BC4305FA03FC4CEA04041D
:101D700091F803C0BCF1280F05D100F1080C08FA56
:101D80000CF8C2F8148091F803C0BCF1480F07D1D9
:101D900000F1080C4FF0010808FA0CF8C2F81080A6
:101DA000401C0828CED35460BDE8F08102460020D4
:101DB00093680B400BB1012000E0002070474161A7
:101DC0007047016170470AB1016100E041617047ED
:101DD00000BFFEE708B50121142005F0A9F9012094
:101DE000ADF8000028208DF8030003208DF80200D4
:101DF00069460748FFF74FFF7020ADF80000482004
:101E00008DF8030069460348FFF745FF08BD000051
:101E1000000801400010014070B50446A188206808
:101E2000FFF7C4FF0546A079A84201D1012070BD8B
:101E30000020FCE72DE9F0410027002642E023487E
:101E400000EB06142046FFF7E7FF0546607A30B145
:101E500001280BD0022816D0032829D124E025B16F
:101E6000012060721A480068E06024E045B118491A
:101E7000E0680968081A142804D30220607201E09F
:101E80000020607217E05DB11149E0680968081A26
:101E900040F6B831884206D3277A0320607202E008
:101EA000E7790020607206E00DB90020607202E060
:101EB0000020607200BF00BF17B13846BDE8F08156
:101EC000701CC6B2042EBAD30020F7E770000020C1
:101ED00040030020FFF77EFF00260124012500BFFC
:101EE0000A2025F0B5FBFFF7A5FF0646012E1AD103
:101EF000681CC5B2022D00DD0125012D08D101218C
:101F00001C48006825F03FFE1BA006F019FC0BE002
:101F1000022D09D101211748006825F017FE1BA0EA
:101F200006F00EFC00E000BF052E12D1601CC4B20A
:101F3000022C00DD0124012C04D1194908681DF090
:101F4000A5FB13E0022C11D1154908691DF09EFB79
:101F50000CE0072E0AD10120124981F80302104932
:101F6000486F1DF093FB10A006F0EAFB0A2025F055
:101F70006FFBB5E7580000204B4559315F50524583
:101F800053533A20E5B883E998B20A004B455932D9
:101F90005F50524553533A20E692A4E998B20A00A2
:101FA00034560020300100206170E6A8A1E5BC8F06
:101FB000200D0A008CB000F055F82C2101A8FEF786
:101FC000B4F900BF4FF0FF312048006826F0BEF89A
:101FD00000F0A4F81E48D0E906211046FEF762FC86
:101FE00001901B48006902901948C06803900020C6
:101FF0008DF82E000023421E01A91648006825F026
:10200000E9FE15490198FEF769FC05D24021134805
:10201000006825F0B8FD04E040211048006825F074
:1020200095FD0398FEF7FBFB044600220C4BFEF7E0
:1020300021FC05D210210948006825F0A4FDC1E764
:1020400010210648006825F081FDBBE75400002000
:10205000C0070020500000200000BE4358000020B0
:102060000000E03F00B587B00121042005F060F8D2
:102070000121480405F04CF80420ADF818001820A0
:102080008DF81B0003208DF81A0006A92148FFF7E0
:1020900002FE0820ADF8180004208DF81B00032074
:1020A0008DF81A0006A91B48FFF7F5FD4FF41650EE
:1020B00002900020ADF80C00ADF80E00ADF8100055
:1020C000ADF814000C20ADF8120002A9124805F07A
:1020D00083FF012240F225510F4805F057FF0122EE
:1020E00040F224410C4805F051FF26208DF80400F1
:1020F00002208DF8050001208DF806008DF80700FC
:1021000001A804F0A1FF0121034805F0FCFE07B07F
:1021100000BD000000080140004400402DE9F041EE
:102120002948C07A012843D12748807A08283FDB14
:10213000254800785F283CD10024002005E0224992
:10214000095C2144CCB2411CC8B20728F7DB1E4809
:10215000C079A0422BD11C4989781B4A527841EAA8
:102160000220FEF70CFB0746184A194BFEF721FA2E
:102170000546FEF797FB1449C8600A79C97802EB57
:102180000120FEF7FCFA0746124A134BFEF711FA3C
:102190000546FEF787FB0C49086189790A4A52799E
:1021A00041EA0220FEF7EBFA074AC2E9060100E025
:1021B00000BF00200449C87288720A210248FEF755
:1021C000B4F8BDE8F0810000C00700209A99999901
:1021D0009999B93F7B14AE47E17A843F9CB0342192
:1021E0000FA8FEF7A2F82C2104A8FEF79EF800BF66
:1021F0004FF0FF3204A96E48006825F025FF9DF8D6
:102200003A00052827D2DFE800F00A03121B1F005E
:1022100068490798C8606748089901611BE06549EB
:1022200004980860059848600698886013E0BDF837
:10223000240060498882BDF826105E48C1820AE009
:102240005C490A98886106E00E220BA959481C30A7
:10225000FEF752F800BF00BF9DF83A00052874D27F
:10226000DFE800F026035874880034210FA8FEF739
:102270005CF80798FEF7D3FA044622460B464EA1B7
:102280000FA806F06DFA5149086A0FA919F05CFD14
:102290000898FEF7C4FA044622460B464CA10FA844
:1022A00006F05EFA4949C86A0FA919F04DFD7DE0B4
:1022B00034210FA8FEF739F80498FEF7B0FA044667
:1022C00022460B4646A10FA806F04AFA3F49886B02
:1022D0000FA919F039FD0598FEF7A1FA0446224628
:1022E0000B4643A10FA806F03BFA3849086C0FA92A
:1022F00019F02AFD0698FEF792FA044622460B468C
:102300003FA10FA806F02CFA3049C86B0FA919F0AD
:102310001BFD4BE034210FA8FEF707F8BDF8242081
:102320003BA10FA806F01CFA2849C86D0FA919F0A7
:102330000BFDBDF826203AA10FA806F011FA23499B
:10234000C86E0FA919F000FD30E02EE034210FA86F
:10235000FDF7EBFF0A98FEF762FA044622460B46A9
:1023600033A10FA806F0FCF91849886D0FA919F0E0
:10237000EBFC1BE034210FA8FDF7D7FFBDF83410AC
:10238000BDF83200BDF83020CDE900200291BDF843
:102390002E30BDF82C2029A10FA806F0E1F90B4939
:1023A00088690FA919F0D0FC00E000BF20E7000009
:1023B0005000002004060020E6B8A9E5BAA63A2598
:1023C000202E3166E2848320000000003456002075
:1023D000E6B9BFE5BAA63A25202E316625250000CC
:1023E000434F3220203A25202E326670706D000057
:1023F0004348324F203A25202E326670706D00001F
:10240000564F4320203A25202E326670706D000012
:102410006C696768743A25303264206C6D00000086
:1024200079616E77753A253032642070706D0000E6
:1024300042483A252E3166206C78000025303464FD
:102440002D253032642D2530326420253032643A17
:10245000253032640000000070B50446002617489D
:102460000588408845431548808846F6040188421F
:1024700016D112488079012812D100200F498871A5
:102480002A2048812B2088810021084603F0DCFEA9
:1024900001200A4988712B2048812A20888103E085
:1024A0000021084603F0D0FE03F0AEFF002602E054
:1024B00003480480761CAE42FAD370BDE0070020CA
:1024C0000008006C2DE9F84F07460D4690469946E6
:1024D000DDF828B0A8EB0700401C1FFA80FAA9EB32
:1024E0000500401C80B20090002414E0281981B23D
:1024F000384603F0A9FE03F087FF002607E004FB3F
:102500000A603BF8100006490880701C86B25645E8
:10251000F5DB601C84B200988442E7DBBDE8F88FED
:102520000008006C10B5FE48808849F241318842AD
:102530007ED1CF2003F062FF002003F059FFC120BD
:1025400003F056FF302003F053FFED2003F056FF59
:10255000642003F04DFF032003F04AFF122003F034
:1025600047FF812003F044FFE82003F047FF852068
:1025700003F03EFF102003F03BFF7A2003F038FF0A
:10258000CB2003F03BFF392003F032FF2C2003F077
:102590002FFF002003F02CFF342003F029FF02203E
:1025A00003F026FFF72003F029FF202003F020FF8F
:1025B000EA2003F023FF002003F01AFF002003F0BD
:1025C00017FFC02003F01AFF1B2003F011FFC120EA
:1025D00003F014FF012003F00BFFC52003F00EFFF2
:1025E000302003F005FF302003F002FFC72003F086
:1025F00005FFB72003F0FCFE362003F0FFFE482065
:1026000003F0F6FE3A2003F0F9FE552003F0F0FE49
:10261000B12003F0F3FE002003F0EAFE1A2003F0DD
:10262000E7FEB62003F0EAFE0A2003F0E1FE00E038
:1026300098E0A22003F0DCFEF22003F0DFFE002091
:1026400003F0D6FE262003F0D9FE012003F0D0FED1
:10265000E02003F0D3FE0F2003F0CAFE2A2003F08F
:10266000C7FE282003F0C4FE082003F0C1FE0E20A0
:1026700003F0BEFE082003F0BBFE542003F0B8FEBA
:10268000A92003F0B5FE432003F0B2FE0A2003F0B8
:10269000AFFE0F2003F0ACFE002003F0A9FE0020E7
:1026A00003F0A6FE002003F0A3FE002003F0A0FE2E
:1026B000E12003F0A3FE002003F09AFE152003F0B2
:1026C00097FE172003F094FE072003F091FE1120DF
:1026D00003F08EFE062003F08BFE2B2003F088FE15
:1026E000562003F085FE3C2003F082FE052003F017
:1026F0007FFE102003F07CFE0F2003F079FE3F20C8
:1027000003F076FE3F2003F073FE0F2003F070FE0F
:102710002B2003F073FE002003F06AFE002003F07C
:1027200067FE012003F064FE3F2003F061FE2A20D3
:1027300003F064FE002003F05BFE002003F058FE6F
:10274000002003F055FEEF2003F052FE112003F0AD
:1027500055FE78200021FEF708FE292003F04EFEEA
:1027600003F04EB96E48808846F6040188427DD158
:10277000112003F043FE14200021FEF7F6FDD020C7
:1027800003F03CFE072003F033FE422003F030FE4E
:102790001D2003F02DFED12003F030FE002003F0B9
:1027A00027FE1A2003F024FE092003F021FED22088
:1027B00003F024FE012003F01BFE222003F018FE8C
:1027C000C02003F01BFE102003F012FE3B2003F09C
:1027D0000FFE002003F00CFE022003F009FE112082
:1027E00003F006FEC52003F009FE032003F000FEFF
:1027F000C82003F003FE002003F0FAFD252003F0BB
:10280000F7FD212003F0F4FD052003F0F1FD002089
:1028100003F0EEFD0A2003F0EBFD652003F0E8FD78
:10282000252003F0E5FD772003F0E2FD502003F0C2
:10283000DFFD0F2003F0DCFD002003F0D9FDF820C0
:1028400003F0DCFD012003F0D3FDFE2003F0D6FDF4
:10285000002003F0CDFD022003F0CAFD202003F08C
:10286000CDFD362003F0CAFD082000E02DE003F086
:10287000BFFD3A2003F0C2FD552003F0B9FD2B2027
:1028800003F0BCFD002003F0B3FD002003F0B0FD19
:10289000012003F0ADFD3F2003F0AAFD2A2003F044
:1028A000ADFD002003F0A4FD002003F0A1FD0120F8
:1028B00003F09EFDDF2003F09BFD78200021FEF752
:1028C00054FD292003F09AFD4AE71548808845F217
:1028D0001031884240F07E87ED2003F08FFD01200B
:1028E00003F086FDFE2003F083FDEE2003F086FD5D
:1028F000DE2003F07DFD212003F07AFDF12003F0BE
:102900007DFD012003F074FDDF2003F077FD102032
:1029100003F06EFDC42003F071FD8F2002E0000083
:10292000E007002003F064FDC62003F067FD0020EF
:1029300003F05EFDE22003F05BFDE22003F058FDB2
:10294000E22003F055FDBF2003F058FDAA2003F05C
:102950004FFDB02003F052FD0D2003F049FD002093
:1029600003F046FD0D2003F043FD002003F040FD81
:10297000112003F03DFD002003F03AFD192003F083
:1029800037FD002003F034FD212003F031FD00204D
:1029900003F02EFD2D2003F02BFD002003F028FD79
:1029A0003D2003F025FD002003F022FD5D2003F013
:1029B0001FFD002003F01CFD5D2003F019FD002029
:1029C00003F016FDB12003F019FD802003F010FD87
:1029D000002003F00DFD8B2003F00AFD002003F022
:1029E00007FD962003F004FD002003F001FDB22056
:1029F00003F004FD002003F0FBFC002003F0F8FCD2
:102A0000022003F0F5FC002003F0F2FC032003F0A9
:102A1000EFFC002003F0ECFCB32003F0EFFC0020FF
:102A200003F0E6FC002003F0E3FC002003F0E0FCF0
:102A3000002003F0DDFC002003F0DAFC002003F0AE
:102A4000D7FC002003F0D4FC002003F0D1FC0020D0
:102A500003F0CEFC002003F0CBFC002003F0C8FC08
:102A6000002003F0C5FC002003F0C2FC002003F0AE
:102A7000BFFC002003F0BCFC002003F0B9FC0020E8
:102A800003F0B6FC002003F0B3FC002003F0B0FC20
:102A9000002003F0ADFC002003F0AAFC002003F0AE
:102AA000A7FC002003F0A4FC002003F0A1FCB4204C
:102AB00003F0A4FC8B2003F09BFC002003F098FCA7
:102AC000962003F095FC002003F092FCA12003F077
:102AD0008FFC002003F08CFCB52003F08FFC02205B
:102AE00003F086FC002003F083FC032003F080FC4D
:102AF000002003F07DFC042003F07AFC002003F0AA
:102B000077FCB62003F07AFC002003F071FC002073
:102B100003F06EFCB72003F071FC002003F068FCAA
:102B2000002003F065FC3F2003F062FC002003F06E
:102B30005FFC5E2003F05CFC002003F059FC642085
:102B400003F056FC002003F053FC8C2003F050FCF3
:102B5000002003F04DFCAC2003F04AFC002003F001
:102B600047FCDC2003F044FC002003F041FC702013
:102B700003F03EFC002003F03BFC902003F038FC07
:102B8000002003F035FCEB2003F032FC002003F0C2
:102B90002FFCDC2003F02CFC002003F029FCB820E3
:102BA00003F02CFC002003F023FC002003F020FCA9
:102BB000002003F01DFC002003F01AFC002003F0AD
:102BC00017FC002003F014FC002003F011FC00208F
:102BD00003F00EFCBA2003F011FC242003F008FCE3
:102BE000002003F005FC002003F002FC002003F0AD
:102BF000FFFBC12003F002FC202003F0F9FB0020C2
:102C000003F0F6FB542003F0F3FB002003F0F0FB8D
:102C1000FF2003F0EDFB002003F0EAFBC22003F0ED
:102C2000EDFB0A2003F0E4FB002003F0E1FB0420AD
:102C300003F0DEFB002003F0DBFBC32003F0DEFB30
:102C40003C2003F0D5FB002003F0D2FB3A2003F038
:102C5000CFFB002003F0CCFB392003F0C9FB0020A0
:102C600003F0C6FB372003F0C3FB002003F0C0FBDA
:102C70003C2003F0BDFB002003F0BAFB362003F03C
:102C8000B7FB002003F0B4FB322003F0B1FB0020BF
:102C900003F0AEFB2F2003F0ABFB002003F0A8FBFA
:102CA0002C2003F0A5FB002003F0A2FB292003F059
:102CB0009FFB002003F09CFB262003F099FB0020E3
:102CC00003F096FB242003F093FB002003F090FB1D
:102CD000242003F08DFB002003F08AFB232003F067
:102CE00087FB002003F084FB3C2003F081FB0020E5
:102CF00003F07EFB362003F07BFB002003F078FB23
:102D0000322003F075FB002003F072FB2F2003F04C
:102D10006FFB002003F06CFB2C2003F069FB00200C
:102D200003F066FB292003F063FB002003F060FB47
:102D3000262003F05DFB002003F05AFB242003F063
:102D400057FB002003F054FB242003F051FB00202C
:102D500003F04EFB232003F04BFB002003F048FB65
:102D6000C42003F04BFB622003F042FB002003F081
:102D70003FFB052003F03CFB002003F039FB8420DF
:102D800003F036FB002003F033FBF02003F030FBB0
:102D9000002003F02DFB182003F02AFB002003F095
:102DA00027FBA42003F024FB002003F021FB1820C4
:102DB00003F01EFB002003F01BFB502003F018FB68
:102DC000002003F015FB0C2003F012FB002003F0A1
:102DD0000FFB172003F00CFB002003F009FB9520EC
:102DE00003F006FB002003F003FBF32003F000FBDD
:102DF000002003F0FDFAE62003F0FAFA002003F0C9
:102E0000F7FAC52003F0FAFA322003F0F1FA0020B5
:102E100003F0EEFA442003F0EBFA002003F0E8FAA6
:102E2000652003F0E5FA002003F0E2FA762003F0D3
:102E3000DFFA002003F0DCFA882003F0D9FA002042
:102E400003F0D6FAC62003F0D9FA202003F0D0FA16
:102E5000002003F0CDFA172003F0CAFA002003F097
:102E6000C7FA012003F0C4FA002003F0C1FAC7201A
:102E700003F0C4FA002003F0BBFA002003F0B8FA14
:102E8000002003F0B5FA002003F0B2FAC82003F0E6
:102E9000B5FA002003F0ACFA002003F0A9FA0020F4
:102EA00003F0A6FA002003F0A3FAC92003F0A6FA63
:102EB000002003F09DFA002003F09AFA002003F0AE
:102EC00097FA002003F094FA002003F091FA002012
:102ED00003F08EFA002003F08BFA002003F088FA4A
:102EE000002003F085FA002003F082FA002003F0AE
:102EF0007FFA002003F07CFA002003F079FA00202A
:102F000003F076FA002003F073FA002003F070FA61
:102F1000E02003F073FA162003F06AFA002003F0B1
:102F200067FA1C2003F064FA002003F061FA212004
:102F300003F05EFA002003F05BFA362003F058FA43
:102F4000002003F055FA462003F052FA002003F067
:102F50004FFA522003F04CFA002003F049FA6420A3
:102F600003F046FA002003F043FA7A2003F040FA17
:102F7000002003F03DFA8B2003F03AFA002003F022
:102F800037FA992003F034FA002003F031FAA82030
:102F900003F02EFA002003F02BFAB92003F028FAF0
:102FA000002003F025FAC42003F022FA002003F0E9
:102FB0001FFACA2003F01CFA002003F019FAD220ED
:102FC00003F016FA002003F013FAD92003F010FAE8
:102FD000002003F00DFAE02003F00AFA002003F0CD
:102FE00007FAF32003F004FA002003F001FAE120CD
:102FF00003F004FA162003F0FBF9002003F0F8F9BF
:103000001C2003F0F5F9002003F0F2F9222003F070
:10301000EFF9002003F0ECF9362003F0E9F9002085
:1030200003F0E6F9452003F0E3F9002003F0E0F9AE
:10303000522003F0DDF9002003F0DAF9642003F0F8
:10304000D7F9002003F0D4F97A2003F0D1F9002059
:1030500003F0CEF98B2003F0CBF9002003F0C8F980
:10306000992003F0C5F9002003F0C2F9A82003F06D
:10307000BFF9002003F0BCF9B92003F0B9F9002032
:1030800003F0B6F9C42003F0B3F9002003F0B0F95F
:10309000CA2003F0ADF9002003F0AAF9D22003F012
:1030A000A7F9002003F0A4F9D82003F0A1F900202B
:1030B00003F09EF9E02003F09BF9002003F098F95B
:1030C000F32003F095F9002003F092F9E22003F0D9
:1030D00095F9052003F08CF9002003F089F90B2005
:1030E00003F086F9002003F083F91B2003F080F938
:1030F000002003F07DF9342003F07AF9002003F07A
:1031000077F9442003F074F9002003F071F94F209F
:1031100003F06EF9002003F06BF9612003F068F909
:10312000002003F065F9792003F062F9002003F034
:103130005FF9882003F05CF9002003F059F997202B
:1031400003F056F9002003F053F9A62003F050F9DC
:10315000002003F04DF9B72003F04AF9002003F0F6
:1031600047F9C22003F044F9002003F041F9C720D9
:1031700003F03EF9002003F03BF9D12003F038F9C9
:10318000002003F035F9D62003F032F9002003F0D7
:103190002FF9DD2003F02CF9002003F029F9F320AA
:1031A00003F026F9002003F023F9E32003F026F9C9
:1031B000052003F01DF9002003F01AF90A2003F09E
:1031C00017F9002003F014F91C2003F011F9002076
:1031D00003F00EF9332003F00BF9002003F008F997
:1031E000442003F005F9002003F002F9502003F019
:1031F000FFF8002003F0FCF8622003F0F9F800204B
:1032000003F0F6F8782003F0F3F8002003F0F0F86C
:10321000882003F0EDF8002003F0EAF8972003F08F
:10322000E7F8002003F0E4F8A62003F0E1F800201E
:1032300003F0DEF8B72003F0DBF8002003F0D8F845
:10324000C22003F0D5F8002003F0D2F8C72003F025
:10325000CFF8002003F0CCF8D12003F0C9F800200B
:1032600003F0C6F8D52003F0C3F8002003F0C0F83F
:10327000DD2003F0BDF8002003F0BAF8F32003F0DE
:10328000B7F8002003F0B4F8E42003F0B7F8012009
:1032900003F0AEF8002003F0ABF8012003F0A8F82B
:1032A000002003F0A5F8022003F0A2F8002003F0AC
:1032B0009FF82A2003F09CF8002003F099F83C20A6
:1032C00003F096F8002003F093F84B2003F090F8F9
:1032D000002003F08DF85D2003F08AF8002003F051
:1032E00087F8742003F084F8002003F081F884202C
:1032F00003F07EF8002003F07BF8932003F078F8C9
:10330000002003F075F8A22003F072F8002003F00B
:103310006FF8B32003F06CF8002003F069F8BE20CA
:1033200003F066F8002003F063F8C42003F060F8AF
:10333000002003F05DF8CD2003F05AF8002003F0E0
:1033400057F8D32003F054F8002003F051F8DD20A3
:1033500003F04EF8002003F04BF8F32003F048F898
:10336000002003F045F8E52003F048F8002003F0C2
:103370003FF8002003F03CF8002003F039F800206B
:1033800003F036F8022003F033F8002003F030F8A1
:10339000292003F02DF8002003F02AF83C2003F048
:1033A00027F8002003F024F84B2003F021F8002038
:1033B00003F01EF85D2003F01BF8002003F018F85E
:1033C000742003F015F8002003F012F8842003F0B5
:1033D0000FF8002003F00CF8932003F009F8002008
:1033E00003F006F8A22003F003F8002003F000F831
:1033F000B32002F0FDFF002002F0FAFFBE2002F031
:10340000F7FF002002F0F4FFC42002F0F1FF0020DB
:1034100002F0EEFFCD2002F0EBFF002002F0E8FF0B
:10342000D32002F0E5FF002002F0E2FFDC2002F0F2
:10343000DFFF002002F0DCFFF32002F0D9FF0020C4
:1034400002F0D6FFE62002F0D9FF112002F0D0FFF3
:10345000002002F0CDFF342002F0CAFF002002F06D
:10346000C7FF562002F0C4FF002002F0C1FF762003
:1034700002F0BEFF002002F0BBFF772002F0B8FF91
:10348000002002F0B5FF662002F0B2FF002002F03B
:10349000AFFF882002F0ACFF002002F0A9FF9920C6
:1034A00002F0A6FF002002F0A3FFBB2002F0A0FF65
:1034B000002002F09DFF992002F09AFF002002F008
:1034C00097FF662002F094FF002002F091FF552044
:1034D00002F08EFF002002F08BFF552002F088FFE3
:1034E000002002F085FF452002F082FF002002F05C
:1034F0007FFF432002F07CFF002002F079FF442090
:1035000002F076FF002002F073FFE72002F076FF62
:10351000322002F06DFF002002F06AFF552002F019
:1035200067FF002002F064FF762002F061FF0020B8
:1035300002F05EFF662002F05BFF002002F058FF01
:10354000672002F055FF002002F052FF672002F0D2
:103550004FFF002002F04CFF872002F049FF0020BF
:1035600002F046FF992002F043FF002002F040FFE6
:10357000BB2002F03DFF002002F03AFF992002F04C
:1035800037FF002002F034FF772002F031FF0020E7
:1035900002F02EFF442002F02BFF002002F028FF53
:1035A000562002F025FF002002F022FF232002F027
:1035B0001FFF002002F01CFF332002F019FF002043
:1035C00002F016FF452002F013FF002002F010FF6A
:1035D000E82002F013FF002002F00AFF002002F0B2
:1035E00007FF992002F004FF002002F001FF87206E
:1035F00002F0FEFE002002F0FBFE882002F0F8FE42
:10360000002002F0F5FE772002F0F2FE002002F02A
:10361000EFFE662002F0ECFE002002F0E9FE8820BA
:1036200002F0E6FE002002F0E3FEAA2002F0E0FE37
:10363000002002F0DDFEBB2002F0DAFE002002F0E6
:10364000D7FE992002F0D4FE002002F0D1FE6620C1
:1036500002F0CEFE002002F0CBFE552002F0C8FEA4
:10366000002002F0C5FE552002F0C2FE002002F04C
:10367000BFFE442002F0BCFE002002F0B9FE442050
:1036800002F0B6FE002002F0B3FE552002F0B0FEBC
:10369000002002F0ADFEE92002F0B0FEAA2002F008
:1036A000A7FE002002F0A4FE002002F0A1FE0020F0
:1036B00002F09EFE002002F0A1FEAA2002F098FE79
:1036C000CF2002F09BFE002002F092FE002002F0CC
:1036D0008FFE002002F08CFE002002F089FE002008
:1036E00002F086FE002002F083FE002002F080FE41
:1036F000002002F07DFE002002F07AFE002002F0A1
:1037000077FE002002F074FE002002F071FE00201F
:1037100002F06EFE002002F06BFE002002F068FE58
:10372000002002F065FE002002F062FEF02002F0B0
:1037300065FE002002F05CFE502002F059FE0020E1
:1037400002F056FE002002F053FE002002F050FE70
:10375000F32002F053FE002002F04AFEF92002F0AE
:103760004DFE062002F044FE102002F041FE29200A
:1037700002F03EFE002002F03BFE3A2002F03EFE48
:10378000552002F035FE112002F038FE64200021A1
:10379000FDF7EBFD292002F031FE352002F02EFE70
:1037A000002002F025FE512002F028FEFF2002F04A
:1037B0001FFE532002F022FE2C2002F019FE55209D
:1037C00002F01CFE822002F013FE2C2002F016FEF6
:1037D00002F016B9FE48808845F2105188427DD12A
:1037E00055214FF4704002F019FEAA214FF201005A
:1037F00002F014FE52214FF2020002F00FFE0821E7
:103800004FF2030002F00AFE01214FF2040002F021
:1038100005FE0D214FF4304002F000FE0D214BF269
:10382000010002F0FBFD0D214BF2020002F0F6FD5B
:1038300034214FF4364002F0F1FD34214BF20160A7
:1038400002F0ECFD34214BF2026002F0E7FD0D21A5
:103850004FF4314002F0E2FD0D214BF2011002F075
:10386000DDFD0D214BF2021002F0D8FD34214FF4A2
:10387000374002F0D3FD34214BF2017002F0CEFD4F
:1038800034214BF2027002F0C9FD00214FF43240A6
:1038900002F0C4FD00214BF2012002F0BFFD002127
:1038A0004BF2022002F0BAFD24214FF4384002F01E
:1038B000B5FD24214BF6010002F0B0FD24214BF6AA
:1038C000020002F0ABFD01214FF43F4002F0A6FDE3
:1038D0000F214FF4334002F0A1FD00E0FDE30F2182
:1038E0004BF2013002F09AFD0F214BF2023002F050
:1038F00095FD34214FF4394002F090FD34214BF610
:10390000011002F08BFD34214BF6021002F086FD0F
:1039100008214FF4354002F081FD08214BF201509F
:1039200002F07CFD08214BF2025002F077FD0321EA
:103930004FF4424002F072FD24214FF43A4002F06D
:103940006DFD24214BF6012002F068FD24214BF689
:10395000022002F063FD00214FF43C4002F05EFDC6
:1039600078214BF6014002F059FD00214BF6024050
:1039700002F054FD00214FF43D4002F04FFD78214C
:103980004BF6015002F04AFD00214BF6025002F0C6
:1039900045FD00214FF43E4002F040FD64214BF60E
:1039A000016002F03BFD00214FF4514002F036FD72
:1039B00033214DF2011002F031FD00214DF20210D1
:1039C00002F02CFD34214DF2031002F027FD0021FE
:1039D0004DF2041002F022FD3A214DF2051002F0E2
:1039E0001DFD00214DF2061002F018FD4A214DF296
:1039F000071002F013FD00214DF2081002F00EFD39
:103A00005C214DF2091002F009FD00214DF20A106F
:103A100002F004FD81214DF20B1002F0FFFC0021A9
:103A20004DF20C1002F0FAFCA6214DF20D1002F03E
:103A3000F5FC00214DF20E1002F0F0FCE5214DF2F4
:103A40000F1002F0EBFC01214DF2101002F0E6FC29
:103A500013214DF2111002F0E1FC01214DF2121080
:103A600002F0DCFC54214DF2131002F0D7FC0121CE
:103A70004DF2141002F0D2FC82214DF2151002F02A
:103A8000CDFC01214DF2161002F0C8FCCA214DF206
:103A9000171002F0C3FC02214DF2181002F0BEFC18
:103AA00000214DF2191002F0B9FC02214DF21A105A
:103AB00002F0B4FC01214DF21B1002F0AFFC022118
:103AC0004DF21C1002F0AAFC34214DF21D1002F040
:103AD000A5FC02214DF21E1002F0A0FC67214DF260
:103AE0001F1002F09BFC02214DF2201002F096FC08
:103AF00084214DF2211002F091FC02214DF222109E
:103B000002F08CFCA4214DF2231002F087FC02216C
:103B10004DF2241002F082FCB7214DF2251002F084
:103B20007DFC02214DF2261002F078FCCF214DF2EF
:103B3000271002F073FC02214DF2281002F06EFCF7
:103B4000DE214DF2291002F069FC02214DF22A100B
:103B500002F064FCF2214DF22B1002F05FFC022116
:103B60004DF22C1002F05AFCFE214DF22D1002F005
:103B700055FC03214DF22E1002F050FC10214DF2A5
:103B80002F1002F04BFC03214DF2301002F046FCE6
:103B900033214DF2311002F041FC03214DF232107D
:103BA00002F03CFC6D214DF2331002F037FC002195
:103BB0004FF4524002F032FC33214DF2012002F06A
:103BC0002DFC00214DF2022002F028FC342101E0FE
:103BD000E00700204DF2032002F020FC00214DF20E
:103BE000042002F01BFC3A214DF2052002F016FCE5
:103BF00000214DF2062002F011FC4A214DF207206F
:103C000002F00CFC00214DF2082002F007FC5C21C0
:103C10004DF2092002F002FC00214DF20A2002F0D0
:103C2000FDFB81214DF20B2002F0F8FB00214DF24B
:103C30000C2002F0F3FBA6214DF20D2002F0EEFB6A
:103C400000214DF20E2002F0E9FBE5214DF20F209C
:103C500002F0E4FB01214DF2102002F0DFFB132102
:103C60004DF2112002F0DAFB01214DF2122002F098
:103C7000D5FB54214DF2132002F0D0FB01214DF26F
:103C8000142002F0CBFB82214DF2152002F0C6FB7E
:103C900001214DF2162002F0C1FBCA214DF217207E
:103CA00002F0BCFB02214DF2182002F0B7FB00210C
:103CB0004DF2192002F0B2FB02214DF21A2002F05F
:103CC000ADFB01214DF21B2002F0A8FB02214DF2B9
:103CD0001C2002F0A3FB34214DF21D2002F09EFBBC
:103CE00002214DF21E2002F099FB67214DF21F20A8
:103CF00002F094FB02214DF2202002F08FFB842180
:103D00004DF2212002F08AFB02214DF2222002F026
:103D100085FBA4214DF2232002F080FB02214DF20D
:103D2000242002F07BFBB7214DF2252002F076FB28
:103D300002214DF2262002F071FBCF214DF2272007
:103D400002F06CFB02214DF2282002F067FBDE211D
:103D50004DF2292002F062FB02214DF22A2002F0EE
:103D60005DFBF2214DF22B2002F058FB02214DF2B7
:103D70002C2002F053FBFE214DF22D2002F04EFBD1
:103D800003214DF22E2002F049FB10214DF22F208D
:103D900002F044FB03214DF2302002F03FFB3321BF
:103DA0004DF2312002F03AFB03214DF2322002F0B5
:103DB00035FB6D214DF2332002F030FB00214FF432
:103DC000534002F02BFB33214DF2013002F026FB71
:103DD00000214DF2023002F021FB34214DF203307C
:103DE00002F01CFB00214DF2043002F017FB3A21D7
:103DF0004DF2053002F012FB00214DF2063002F0C8
:103E00000DFB4A214DF2073002F008FB00214DF274
:103E1000083002F003FB5C214DF2093002F0FEFA9B
:103E200000214DF20A3002F0F9FA81214DF20B30F7
:103E300002F0F4FA00214DF20C3002F0EFFAA62164
:103E40004DF20D3002F0EAFA00214DF20E3002F090
:103E5000E5FAE5214DF20F3002F0E0FA01214DF2D2
:103E6000103002F0DBFA13214DF2113002F0D6FAD5
:103E700001214DF2123002F0D1FA54214DF21330EB
:103E800002F0CCFA01214DF2143002F0C7FA82217F
:103E90004DF2153002F0C2FA01214DF2163002F057
:103EA000BDFACA214DF2173002F0B8FA02214DF2E4
:103EB000183002F0B3FA00214DF2193002F0AEFAD8
:103EC00002214DF21A3002F0A9FA01214DF21B3005
:103ED00002F0A4FA02214DF21C3002F09FFA3421C4
:103EE0004DF21D3002F09AFA02214DF21E3002F01E
:103EF00095FA67214DF21F3002F090FA02214DF23F
:103F0000203002F08BFA84214DF2213002F086FA43
:103F100002214DF2223002F081FAA4214DF2233029
:103F200002F07CFA02214DF2243002F077FAB72138
:103F30004DF2253002F072FA02214DF2263002F0E5
:103F40006DFACF214DF2273002F068FA02214DF2CE
:103F5000283002F063FADE214DF2293002F05EFAD9
:103F600002214DF22A3002F059FAF2214DF22B30A3
:103F700002F054FA02214DF22C3002F04FFAFE21E9
:103F80004DF22D3002F04AFA03214DF22E3002F0AC
:103F900045FA10214DF22F3002F040FA03214DF284
:103FA000303002F03BFA33214DF2313002F036FA74
:103FB00003214DF2323002F031FA6D214DF23330EF
:103FC00002F02CFA00214FF4544002F027FA33217A
:103FD0004DF2014002F022FA00214DF2024002F0BF
:103FE0001DFA34214DF2034002F018FA00214DF27F
:103FF000044002F013FA3A214DF2054002F00EFAA5
:1040000000214DF2064002F009FA4A214DF2074024
:1040100002F004FA00214DF2084002F0FFF95C21A1
:104020004DF2094002F0FAF900214DF20A4002F087
:10403000F5F981214DF20B4002F0F0F900214DF22B
:104040000C4002F0EBF9A6214DF20D4002F0E6F92A
:1040500000214DF20E4002F0E1F9E5214DF20F4052
:1040600002F0DCF901214DF2104002F0D7F91321E2
:104070004DF2114002F0D2F901214DF2124002F04E
:10408000CDF954214DF2134002F0C8F901214DF24F
:10409000144002F0C3F982214DF2154002F0BEF93E
:1040A00001214DF2164002F0B9F9CA214DF2174034
:1040B00002F0B4F902214DF2184002F0AFF90021EC
:1040C0004DF2194002F0AAF902214DF21A4002F015
:1040D000A5F901214DF21B4000E007E302F09EF933
:1040E00002214DF21C4002F099F934214DF21D409D
:1040F00002F094F902214DF21E4002F08FF967217F
:104100004DF21F4002F08AF902214DF2204002F0E8
:1041100085F984214DF2214002F080F902214DF20F
:10412000224002F07BF9A4214DF2234002F076F9FF
:1041300002214DF2244002F071F9B7214DF22540E1
:1041400002F06CF902214DF2264002F067F9CF210E
:104150004DF2274002F062F902214DF2284002F0B0
:104160005DF9DE214DF2294002F058F902214DF2AD
:104170002A4002F053F9F2214DF22B4002F04EF9A1
:1041800002214DF22C4002F049F9FE214DF22D4062
:1041900002F044F903214DF22E4002F03FF91021C4
:1041A0004DF22F4002F03AF903214DF2304002F077
:1041B00035F933214DF2314002F030F903214DF24F
:1041C000324002F02BF96D214DF2334002F026F916
:1041D00000214FF4554002F021F933214DF20150F6
:1041E00002F01CF900214DF2025002F017F93421BF
:1041F0004DF2035002F012F900214DF2045002F08A
:104200000DF93A214DF2055002F008F900214DF266
:10421000065002F003F94A214DF2075002F0FEF871
:1042200000214DF2085002F0F9F85C214DF20950DE
:1042300002F0F4F800214DF20A5002F0EFF881216B
:104240004DF20B5002F0EAF800214DF20C5002F052
:10425000E5F8A6214DF20D5002F0E0F800214DF2F4
:104260000E5002F0DBF8E5214DF20F5002F0D6F8C7
:1042700001214DF2105002F0D1F813214DF21150EE
:1042800002F0CCF801214DF2125002F0C7F854218F
:104290004DF2135002F0C2F801214DF2145002F019
:1042A000BDF882214DF2155002F0B8F801214DF20F
:1042B000165002F0B3F8CA214DF2175002F0AEF8D2
:1042C00002214DF2185002F0A9F800214DF21950C8
:1042D00002F0A4F802214DF21A5002F09FF80121D9
:1042E0004DF21B5002F09AF802214DF21C5002F0E0
:1042F00095F834214DF21D5002F090F802214DF254
:104300001E5002F08BF867214DF21F5002F086F824
:1043100002214DF2205002F081F884214DF221500B
:1043200002F07CF802214DF2225002F077F8A4212D
:104330004DF2235002F072F802214DF2245002F0A7
:104340006DF8B7214DF2255002F068F802214DF2C8
:10435000265002F063F8CF214DF2275002F05EF8AC
:1043600002214DF2285002F059F8DE214DF2295079
:1043700002F054F802214DF22A5002F04FF8F221D7
:104380004DF22B5002F04AF802214DF22C5002F06F
:1043900045F8FE214DF22D5002F040F803214DF278
:1043A0002E5002F03BF810214DF22F5002F036F85B
:1043B00003214DF2305002F031F833214DF23150EB
:1043C00002F02CF803214DF2325002F027F86D2153
:1043D0004DF2335002F022F800214FF4564002F023
:1043E0001DF833214DF2016002F018F800214DF262
:1043F000026002F013F834214DF2036002F00EF86F
:1044000000214DF2046002F009F83A214DF20560F6
:1044100002F004F800214DF2066001F0FFFF4A218E
:104420004DF2076001F0FAFF00214DF2086001F043
:10443000F5FF5C214DF2096001F0F0FF00214DF223
:104440000A6001F0EBFF81214DF20B6001F0E6FF05
:1044500000214DF20C6001F0E1FFA6214DF20D604C
:1044600001F0DCFF00214DF20E6001F0D7FFE521E5
:104470004DF20F6001F0D2FF01214DF2106001F00A
:10448000CDFF13214DF2116001F0C8FF01214DF263
:10449000126001F0C3FF54214DF2136001F0BEFF22
:1044A00001214DF2146001F0B9FF82214DF2156037
:1044B00001F0B4FF01214DF2166001F0AFFFCA21F7
:1044C0004DF2176001F0AAFF02214DF2186001F0D1
:1044D000A5FF00214DF2196001F0A0FF02214DF26D
:1044E0001A6001F09BFF01214DF21B6001F096FF65
:1044F00002214DF21C6001F091FF34214DF21D604C
:1045000001F08CFF02214DF21E6001F087FF672150
:104510004DF21F6001F082FF02214DF2206001F098
:104520007DFF84214DF2216001F078FF02214DF2E0
:10453000226001F073FFA4214DF2236001F06EFFB1
:1045400002214DF2246001F069FFB7214DF2256090
:1045500001F064FF02214DF2266001F05FFFCF21E0
:104560004DF2276001F05AFF02214DF2286001F060
:1045700055FFDE214DF2296001F050FF02214DF27E
:104580002A6001F04BFFF2214DF22B6001F046FF53
:1045900002214DF22C6001F041FFFE214DF22D6011
:1045A00001F03CFF03214DF22E6001F037FF102196
:1045B0004DF22F6001F032FF03214DF2306001F027
:1045C0002DFF33214DF2316001F028FF03214DF220
:1045D000326001F023FF6D214DF2336001F01EFFC8
:1045E00055214FF4704001F019FFAA214FF201004C
:1045F00001F014FF52214FF2020001F00FFF0821D9
:104600004FF2030001F00AFF00214FF2040001F015
:1046100005FFCC214FF4314001F000FF00214BF2A7
:10462000011001F0FBFE05214FF4364001F0F6FECB
:1046300070214FF4374001F0F1FE70214BF2017010
:1046400001F0ECFE01214FF4384001F0E7FE0321B8
:104650004BF6010001F0E2FE03214BF6020001F0EF
:10466000DDFE03214BF6030001F0D8FE02214FF4DA
:104670003C4001F0D3FE00214BF6014001F0CEFE9C
:1046800000214BF6024001F0C9FED0214FF4494011
:1046900001F0C4FE02214CF6011001F0BFFE5021D2
:1046A0004CF6021001F0BAFE50214CF6031001F056
:1046B000B5FE50214CF6041001F0B0FE00214FF47D
:1046C000545001F0ABFE55214FF4685001F0A6FEA6
:1046D0004FF4885001F092FE78200021FCF7A5FEEF
:1046E0004FF4245001F08AFE01F08AB9FE48808818
:1046F00049F2253188427DD147F6F001E52001F0ED
:104700008DFE4FF48071012001F088FE4FF4E061CE
:10471000022001F083FE41F23001032001F07EFE11
:104720000021042001F07AFE40F20221082001F06D
:1047300075FE0021092001F071FE00210A2001F020
:104740006DFE00210C2001F069FE00210D2001F01A
:1047500065FE00210F2001F061FE0021102001F014
:104760005DFE0721112001F059FE0021122001F009
:1047700055FE0021132001F051FE0021072001F019
:104780004DFE41F29061102001F048FE40F22721D9
:10479000112001F043FE9D21122001F03FFE4FF455
:1047A000C851132001F03AFE2521292001F036FEE0
:1047B0000D212B2001F032FE0721302001F02EFECA
:1047C00040F20331312001F029FE0321322001F0B3
:1047D00025FE40F20621352001F020FE082136207A
:1047E00001F01CFE40F20641372001F017FE4FF4A5
:1047F000417100E058E0382001F010FE0721392017
:1048000001F00CFE40F202613C2001F007FE08219D
:104810003D2001F003FE0021502001F0FFFDEF21BB
:10482000512001F0FBFD0021522001F0F7FD40F284
:104830003F11532001F0F2FD4FF42741602001F0B9
:10484000EDFD0121612001F0E9FD00216A2001F068
:10485000E5FD0021802001F0E1FD0021812001F033
:10486000DDFD0021822001F0D9FD0021832001F02F
:10487000D5FD0021842001F0D1FD0021852001F02B
:10488000CDFD1021902001F0C9FD4FF4C0619220B0
:1048900001F0C4FD40F23311072001F0BFFD2221D9
:1048A000002001F0BBFD1FE78F48808849F22831C6
:1048B00088427DD141F28F01EC2001F0AFFD41F241
:1048C0003421EF2001F0AAFD4FF48071012001F0A6
:1048D000A5FD4FF4E061022001F0A0FD41F230019E
:1048E000032001F09BFD0021042001F097FD40F220
:1048F0000221082001F092FD0021092001F08EFD27
:1049000000210A2001F08AFD01210C2001F086FD22
:1049100000210D2001F082FD00210F2001F07EFD1D
:104920000021102001F07AFD0721112001F076FD11
:104930000021122001F072FD0021132001F06EFD14
:104940000121072001F06AFD32200021FCF70DFD56
:1049500041F29041102001F061FD40F22721112029
:1049600001F05CFD32200021FCF7FFFC8A211220BF
:1049700001F054FD32200021FCF7F7FC4FF4D05138
:10498000132001F04BFD0621292001F047FD0D21E8
:104990002B2001F043FD32200021FCF7E6FC002132
:1049A000202001F03BFD0021212001F037FD00E037
:1049B0007BE032200021FCF7D8FC0021302001F000
:1049C0002DFD40F20461312001F028FD40F2053157
:1049D000322001F023FD0021352001F01FFD40F6BB
:1049E0000941362001F01AFD4FF40171372001F022
:1049F00015FD40F20131382001F010FD40F2077141
:104A0000392001F00BFD00213C2001F007FD40F6AC
:104A10000A213D2001F002FD32200021FCF7A5FC17
:104A20000021502001F0FAFCEF21512001F0F6FCAA
:104A30000021522001F0F2FC40F23F11532001F01E
:104A4000EDFC4FF42741602001F0E8FC01216120DA
:104A500001F0E4FC00216A2001F0E0FC002180204C
:104A600001F0DCFC0021812001F0D8FC0021822033
:104A700001F0D4FC0021832001F0D0FC002184202F
:104A800001F0CCFC0021852001F0C8FC1021902011
:104A900001F0C4FC4FF4C061922001F0BFFC40F271
:104AA0003311072001F0BAFC1EE60F48808849F256
:104AB000203188427DD10021084601F0AFFC4FF43F
:104AC0008071012001F0AAFC4FF4E061022001F0A6
:104AD000A5FC41F23001032001F0A0FC00210420DC
:104AE00001F09CFC02E00000E007002040F20221FF
:104AF000082001F093FC0021092001F08FFC002127
:104B00000A2001F08BFC01210C2001F087FC002120
:104B10000D2001F083FC00210F2001F07FFC3220EA
:104B20000021FCF722FC40F20111072001F076FC85
:104B300032200021FCF719FC4FF48651102001F0BF
:104B40006DFC0721112001F069FC4FF488711220DF
:104B500001F064FC4FF43061132001F05FFC002190
:104B6000292001F05BFC44F210012B2001F056FCDF
:104B70000021502001F052FCEF21512001F04EFCA9
:104B80000021522001F04AFC40F23F11532001F075
:104B900045FC4FF41C51602001F040FC01216120D4
:104BA00001F03CFC00216A2001F038FC002180204B
:104BB00000E034E001F032FC0021812001F02EFC05
:104BC0000021822001F02AFC0021832001F026FC34
:104BD0000021842001F022FC0021852001F01EFC30
:104BE0001021902001F01AFC0021922001F016FC07
:104BF0000121932001F012FC4FF48871952001F0FF
:104C00000DFC0021972001F009FC0021982001F003
:104C100005FC40F27311072001F000FC64E5FE483A
:104C2000808849F2313188427ED141F21401E72077
:104C300001F0F4FB4FF48071012001F0EFFB4FF421
:104C40000071022001F0EAFB41F23801032001F07B
:104C5000E5FB40F20221082001F0E0FB00210920E1
:104C600001F0DCFB00210A2001F0D8FB00210C2020
:104C700001F0D4FB00210D2001F0D0FB00210F201A
:104C800001F0CCFB0021102001F0C8FB072111200E
:104C900001F0C4FB0021122001F0C0FB0021132011
:104CA00001F0BCFBC8200021FCF75FFB41F29061E2
:104CB000102001F0B3FB40F22721112001F0AEFBE0
:104CC00032200021FCF751FB0C21122001F0A6FB41
:104CD00032200021FCF749FB4FF40061132001F062
:104CE0009DFB1121292001F099FB0B212B2001F0C4
:104CF00095FB32200021FCF738FB0021202001F039
:104D00008DFB40F23F11212001F088FB0021302073
:104D100001F084FB4FF48371312001F07FFB00210F
:104D2000322001F07BFB00E067E04FF40171352099
:104D300001F074FB41F20A61362001F06FFB40F292
:104D40000771372001F06AFB4FF48371382001F0BE
:104D500065FB40F20771392001F060FB40F202412F
:104D60003C2001F05BFB40F60F413D2001F056FB7B
:104D70000021502001F052FBEF21512001F04EFBA9
:104D80000021522001F04AFB40F23F11532001F074
:104D900045FB4FF41C51602001F040FB01216120D4
:104DA00001F03CFB00216A2001F038FB002180204B
:104DB00001F034FB0021812001F030FB0021822032
:104DC00001F02CFB0021832001F028FB002184202E
:104DD00001F024FB0021852001F020FB1021902010
:104DE00001F01CFB4FF4C061922001F017FB40F270
:104DF0003311072001F012FB76E48748808845F2E2
:104E0000084188427ED14FF48071012001F006FBF9
:104E10004FF4E061022001F001FB41F23001032078
:104E200001F0FCFA0021042001F0F8FA40F2072119
:104E3000082001F0F3FA0021092001F0EFFA002127
:104E40000A2001F0EBFA00210C2001F0E7FA002122
:104E50000D2001F0E3FA00210F2001F0DFFA142009
:104E60000021FCF782FA41F2B061102001F0D6FA7D
:104E70000121112001F0D2FA0121172001F0CEFA10
:104E80004FF49C71122001F0C9FA4FF40061132015
:104E900001F0C4FA0921292001F0C0FA09212A20D1
:104EA00001F0BCFA0021A42001F0B8FA0021502042
:104EB00001F0B4FAEF21512001F0B0FA00215220A4
:104EC00001F0ACFA40F23F11532001F0A7FA4FF481
:104ED0001C51602001F0A2FA0121612001F09EFA2C
:104EE00000216A2001F09AFA0021802001F096FA50
:104EF0000021812001F092FA0021822001F08EFA37
:104F0000002100E025E0832001F088FA00218420C0
:104F100001F084FA0021852001F080FA132190200D
:104F200001F07CFA0021922001F078FA032193200D
:104F300001F074FA4FF48871952001F06FFA40F295
:104F40007311072001F06AFA32200021FCF70DFAF4
:104F5000A9E43148808841F2055188427ED1002180
:104F6000072001F05BFA32200021FCF7FEF94FF434
:104F70008E71122001F052FA0121A42001F04EFAA4
:104F80000F21082001F04AFA08210A2001F046FA10
:104F900008210D2001F042FA40F20771302001F0A3
:104FA0003DFA0721312001F039FA40F20361322045
:104FB00001F034FA4FF4E061332001F02FFA40F2AF
:104FC0000221342001F02AFA0221352001F026FACC
:104FD00041F60F71362001F021FA40F207713720B7
:104FE00001F01CFA0021382001F018FA00213920C4
:104FF00001F014FA40F207713A2001F00FFA002193
:105000003B2001F00BFA07213C2001F007FA0021B8
:105010003D2001F003FA01E0E007002032200021EA
:10502000FCF7A3F90121072001F0F8F9012117206D
:1050300001F0F4F932200021FCF797F94FF4BD514B
:10504000102001F0EBF940F21721112001F0E6F9F0
:105050004FF48F71122001F0E1F900E09DE04FF470
:105060007061132001F0DAF900212A2001F0D6F94D
:105070000A21292001F0D2F94FF49F71122001F08A
:10508000CDF90021502001F0C9F9EF21512001F0A4
:10509000C5F90021522001F0C1F940F23F1153201F
:1050A00001F0BCF94FF41C51602001F0B7F9012167
:1050B000612001F0B3F900216A2001F0AFF900216D
:1050C000802001F0ABF90021812001F0A7F9002137
:1050D000822001F0A3F90021832001F09FF9002133
:1050E000842001F09BF90021852001F097F913211C
:1050F000902001F093F94FF44071922001F08EF965
:105100000521932001F08AF90021952001F086F90C
:105110000021972001F082F90021982001F07EF90A
:105120004FF48071012001F079F94FF4E061022021
:1051300001F074F941F23801032001F06FF9002108
:10514000042001F06BF900210C2001F067F9002127
:105150000F2001F063F90021202001F05FF9002108
:10516000212001F05BF92121072001F057F91420DB
:105170000021FCF7FAF86121072001F04FF9142013
:105180000021FCF7F2F840F27311072001F046F914
:1051900014200021FCF7E9F886E4FE4880884BF2F1
:1051A000055188427ED10021084601F037F90021DF
:1051B000084601F033F90021084601F02FF90021DB
:1051C000084601F02BF90121A42001F027F9142051
:1051D0000021FCF7CAF84FF41C51602001F01EF9C1
:1051E00040F20221082001F019F94FF40571302036
:1051F00001F014F943F21571312001F00FF940F27A
:105200000461322001F00AF940F61661332001F002
:1052100005F942F21121342001F000F94FF4A851B0
:10522000352001F0FBF848F20751362001F0F6F87E
:1052300041F20741372001F0F1F841F203413820F3
:1052400001F0ECF82021392001F0E8F81A21902033
:1052500001F0E4F80021102001F0E0F8072111200E
:1052600001F0DCF80021122001F0D8F80021132011
:1052700001F0D4F814200021FCF777F84FF4E66130
:10528000102001F0CBF840F23711112001F0C6F8E0
:1052900014200021FCF769F84FF4DC71122001F0B2
:1052A000BDF800E08AE014200021FCF75EF84FF41E
:1052B0007061132001F0B2F880212A2001F0AEF8CD
:1052C0004821292001F0AAF814200021FCF74DF80C
:1052D0004FF48071012001F0A1F84FF4E061022049
:1052E00001F09CF841F23801032001F097F840F2F8
:1052F0000221082001F092F800210A2001F08EF826
:1053000000210C2001F08AF800210D2001F086F820
:1053100030210E2001F082F80021502001F07EF8AB
:10532000EF21512001F07AF80021522001F076F8A7
:1053300040F23F11532001F071F84FF41C516020EE
:1053400001F06CF80121612001F068F800216A2069
:1053500001F064F81121902001F060F84FF4C06171
:10536000922001F05BF840F20241932001F056F8E0
:105370000221942001F052F814200021FBF7F5FFE0
:105380000121072001F04AF814200021FBF7EDFF6E
:105390006121072001F042F840F27311072001F06B
:1053A0003DF80021202001F039F80021212001F0F2
:1053B00035F82221002001F031F821E3754880887A
:1053C0004CF2055188427CD10021084601F026F8B4
:1053D0000021084601F022F814200021FBF7C5FF48
:1053E0000021084601F01AF80021084601F016F8DD
:1053F0000021084601F012F80021084601F00EF8DD
:105400000121A42001F00AF814200021FBF7ADFFD0
:105410004FF41C51602001F001F840F6060108200D
:1054200000F0FCFF40F20371302000F0F7FF012193
:10543000312000F0F3FF0421322000F0EFFF4FF4A1
:105440008171332000F0EAFF4FF44071342000F006
:10545000E5FF40F20311352000F0E0FF1F21362068
:1054600000F0DCFF40F20371372000F0D7FF01218C
:10547000382000F0D3FF0421392000F0CFFF1521A0
:10548000902000F0CBFF4FF48261102000F0C6FFA7
:1054900040F24721112000F0C1FF4FF4DE711220CD
:1054A00000F0BCFF4FF46061132000F0B7FF7820DC
:1054B0000021FBF75AFF4FF48071012000F0AEFF8E
:1054C00000E056E04FF40071022000F0A7FF41F227
:1054D0003001032000F0A2FF08210A2000F09EFF07
:1054E00000210C2000F09AFF20210E2000F096FFF2
:1054F00000210F2000F092FF0021202000F08EFFFD
:105500000021212000F08AFF3D212A2000F086FFA3
:1055100014200021FBF729FF2D21292000F07EFF18
:105520000021502000F07AFF4DF2EF01512000F0F1
:1055300075FF0021522000F071FF40F23F1153200F
:1055400000F06CFF0021612000F068FF00216A205C
:1055500000F064FF4FF44071922000F05FFF0521DE
:10556000932000F05BFF4FF48071072000F056FF9E
:1055700046E20848808844F2315188427ED10121B8
:10558000002000F04BFF0A200021FBF7EEFE41F265
:10559000286101E0E0070020102000F03FFF0E210D
:1055A000122000F03BFF40F63921132000F036FFB7
:1055B0000A200021FBF7D9FE4021112000F02EFF28
:1055C0005021152000F02AFF0A200021FBF7CDFE14
:1055D0001E21122000F022FF0A200021FBF7C5FE49
:1055E0004FF4B151102000F019FF42F63921132079
:1055F00000F014FF0A200021FBF7B7FE4FF4807182
:10560000012000F00BFF4FF44071022000F006FF74
:1056100041F23801032000F001FF40F2022108208E
:1056200000F0FCFE08210A2000F0F8FE00213020E6
:1056300000F0F4FE40F20241312000F0EFFE4FF4A2
:105640008371322000F0EAFE40F20351332000F073
:10565000E5FE4FF48271342000F0E0FE40F20131AB
:10566000352000F0DBFE40F20771362000F0D6FE58
:1056700040F20531372000F0D1FE00E043E04FF466
:105680000271382000F0CAFE40F60B71392000F09C
:10569000C5FE0221412000F0C1FE4FF41C516020E4
:1056A00000F0BCFE0121612000F0B8FE4FF404714F
:1056B000902000F0B3FE4FF48571922000F0AEFE12
:1056C0000421932000F0AAFE4FF48071A02000F086
:1056D000A5FE0121072000F0A1FE2121072000F0F6
:1056E0009DFE2321072000F099FE3321072000F0C2
:1056F00095FE40F23311072000F090FE0021A0201B
:1057000000F08CFE7CE1BF48808844F2355188422D
:105710007ED13021152000F081FE10219A2000F06A
:105720007DFE2021112000F079FE43F22841102057
:1057300000F074FE0221122000F070FE41F23801E8
:10574000132000F06BFE28200021FBF70EFE122133
:10575000084600F063FE28200021FBF706FE43F216
:105760002041102000F05AFE43F23801132000F0CF
:1057700055FE46200021FBF7F8FD0021302000F007
:105780004DFE40F20241312000F048FE40F2073168
:10579000322000F043FE4FF44171332000F03EFE12
:1057A0000421342000F03AFE40F20141352000F09F
:1057B00035FE40F20771362000F030FE40F2053130
:1057C000372000F02BFE4FF4C261382000F026FE97
:1057D0004FF4C261392000F021FE4FF480710120A6
:1057E00000F01CFE4FF44071022000F017FE41F261
:1057F0003001032000F012FE40F60801082000F0FE
:105800000DFE08210A2000F009FE4FF41C5100E0B3
:1058100034E0602000F002FE0121612000F0FEFD76
:105820004FF49F71902000F0F9FD4FF480719220A9
:1058300000F0F4FD4FF48071932000F0EFFD4FF481
:105840004051A02000F0EAFD1021A32000F0E6FD69
:105850000121072000F0E2FD2121072000F0DEFDFC
:105860002321072000F0DAFD3321072000F0D6FDC8
:1058700040F23311072000F0D1FDC1E0614880887B
:1058800041F663118842F8D1E22000F0B7FD1D20F7
:1058900000F0AEFD022000F0ABFD042000F0A8FDFA
:1058A00064200021FBF7C1FDE02000F0A7FD0120EE
:1058B00000F09EFD0A200021FBF757FDE02000F0DC
:1058C0009DFD032000F094FD0C200021FBF74DFD11
:1058D000012000F093FD0A200021FBF746FDE620A1
:1058E00000F08CFD2F2000F083FDFF2000F080FDF4
:1058F000FF2000F07DFDB02000F080FD202000F0B2
:1059000077FD002000F074FD032000F071FD40F2EF
:105910001F3000F06DFD012000F06AFD40F2DF1045
:1059200000F066FD002000F063FDB42000F066FD8D
:10593000042000F05DFD40F21F4000F059FD002002
:1059400000F056FD2E2000F053FD002000F050FD29
:10595000002000F04DFD002000F04AFD002000F086
:1059600047FDB62000F04AFD022000F041FD4FF453
:10597000037000F03DFD002000F03AFD172000F01C
:1059800037FD152000F034FD002000F031FD00202F
:1059900000F02EFDF02000F031FD032000F028FD86
:1059A000292000F02BFDD02000F028FD002000F081
:1059B0001FFDBE2000F022FD052000F019FDFE2095
:1059C00000F016FD012000F013FD002000F010FD96
:1059D000002000F00DFD002000F00AFDB82000F0CE
:1059E0000DFD032000F004FD012000F001FDBA20B0
:1059F00000F004FD012000F0FBFC642000F084FABC
:105A000010BD0000E007002010B50446002C66D150
:105A10006C498871F02008804FF4A07048800846D7
:105A2000808849F2413188420BD06648808846F62A
:105A30000401884205D06348808845F210318842CD
:105A40001AD12C205F4908812A2048812B20888187
:105A50000846808846F60401884205D05948808867
:105A600045F21031884206D14FF4A07055490880A4
:105A70004FF4F0704880A1E05248808845F2105100
:105A8000884210D14FF430504E4908814FF42850CD
:105A900048814FF42C5088814FF4F07008804FF407
:105AA000487048808AE04748808841F66311884200
:105AB0000DD12C20434908812B2048812A20888140
:105AC0004FF4F07008804FF44870488076E0222050
:105AD0003C49088120204881212088816EE00120F6
